{"contracts/PokeContract.sol":{"PokemonNFT":{"abi":[{"inputs":[],"stateMutability":"nonpayable","type":"constructor"},{"inputs":[{"internalType":"address","name":"sender","type":"address"},{"internalType":"uint256","name":"balance","type":"uint256"},{"internalType":"uint256","name":"needed","type":"uint256"},{"internalType":"uint256","name":"tokenId","type":"uint256"}],"name":"ERC1155InsufficientBalance","type":"error"},{"inputs":[{"internalType":"address","name":"approver","type":"address"}],"name":"ERC1155InvalidApprover","type":"error"},{"inputs":[{"internalType":"uint256","name":"idsLength","type":"uint256"},{"internalType":"uint256","name":"valuesLength","type":"uint256"}],"name":"ERC1155InvalidArrayLength","type":"error"},{"inputs":[{"internalType":"address","name":"operator","type":"address"}],"name":"ERC1155InvalidOperator","type":"error"},{"inputs":[{"internalType":"address","name":"receiver","type":"address"}],"name":"ERC1155InvalidReceiver","type":"error"},{"inputs":[{"internalType":"address","name":"sender","type":"address"}],"name":"ERC1155InvalidSender","type":"error"},{"inputs":[{"internalType":"address","name":"operator","type":"address"},{"internalType":"address","name":"owner","type":"address"}],"name":"ERC1155MissingApprovalForAll","type":"error"},{"inputs":[{"internalType":"address","name":"owner","type":"address"}],"name":"OwnableInvalidOwner","type":"error"},{"inputs":[{"internalType":"address","name":"account","type":"address"}],"name":"OwnableUnauthorizedAccount","type":"error"},{"anonymous":false,"inputs":[{"indexed":true,"internalType":"address","name":"account","type":"address"},{"indexed":true,"internalType":"address","name":"operator","type":"address"},{"indexed":false,"internalType":"bool","name":"approved","type":"bool"}],"name":"ApprovalForAll","type":"event"},{"anonymous":false,"inputs":[{"indexed":true,"internalType":"address","name":"previousOwner","type":"address"},{"indexed":true,"internalType":"address","name":"newOwner","type":"address"}],"name":"OwnershipTransferred","type":"event"},{"anonymous":false,"inputs":[{"indexed":true,"internalType":"uint256","name":"pokemonId","type":"uint256"},{"indexed":false,"internalType":"uint256","name":"groundId","type":"uint256"},{"indexed":false,"internalType":"uint256","name":"xpGained","type":"uint256"}],"name":"TrainingCompleted","type":"event"},{"anonymous":false,"inputs":[{"indexed":true,"internalType":"uint256","name":"pokemonId","type":"uint256"},{"indexed":false,"internalType":"uint256","name":"groundId","type":"uint256"},{"indexed":false,"internalType":"uint256","name":"startTime","type":"uint256"}],"name":"TrainingStarted","type":"event"},{"anonymous":false,"inputs":[{"indexed":true,"internalType":"address","name":"operator","type":"address"},{"indexed":true,"internalType":"address","name":"from","type":"address"},{"indexed":true,"internalType":"address","name":"to","type":"address"},{"indexed":false,"internalType":"uint256[]","name":"ids","type":"uint256[]"},{"indexed":false,"internalType":"uint256[]","name":"values","type":"uint256[]"}],"name":"TransferBatch","type":"event"},{"anonymous":false,"inputs":[{"indexed":true,"internalType":"address","name":"operator","type":"address"},{"indexed":true,"internalType":"address","name":"from","type":"address"},{"indexed":true,"internalType":"address","name":"to","type":"address"},{"indexed":false,"internalType":"uint256","name":"id","type":"uint256"},{"indexed":false,"internalType":"uint256","name":"value","type":"uint256"}],"name":"TransferSingle","type":"event"},{"anonymous":false,"inputs":[{"indexed":false,"internalType":"string","name":"value","type":"string"},{"indexed":true,"internalType":"uint256","name":"id","type":"uint256"}],"name":"URI","type":"event"},{"inputs":[],"name":"BASIC_TRAINING","outputs":[{"internalType":"uint256","name":"","type":"uint256"}],"stateMutability":"view","type":"function"},{"inputs":[],"name":"BASIC_TRAINING_COST","outputs":[{"internalType":"uint256","name":"","type":"uint256"}],"stateMutability":"view","type":"function"},{"inputs":[],"name":"FIRE_DOJO","outputs":[{"internalType":"uint256","name":"","type":"uint256"}],"stateMutability":"view","type":"function"},{"inputs":[],"name":"GRASS_GARDEN","outputs":[{"internalType":"uint256","name":"","type":"uint256"}],"stateMutability":"view","type":"function"},{"inputs":[],"name":"MIN_TRAINING_TIME","outputs":[{"internalType":"uint256","name":"","type":"uint256"}],"stateMutability":"view","type":"function"},{"inputs":[],"name":"SPECIALIZED_TRAINING_COST","outputs":[{"internalType":"uint256","name":"","type":"uint256"}],"stateMutability":"view","type":"function"},{"inputs":[],"name":"TYPE_BONUS_MULTIPLIER","outputs":[{"internalType":"uint256","name":"","type":"uint256"}],"stateMutability":"view","type":"function"},{"inputs":[],"name":"WATER_TEMPLE","outputs":[{"internalType":"uint256","name":"","type":"uint256"}],"stateMutability":"view","type":"function"},{"inputs":[],"name":"XP_PER_MINUTE","outputs":[{"internalType":"uint256","name":"","type":"uint256"}],"stateMutability":"view","type":"function"},{"inputs":[{"internalType":"address","name":"account","type":"address"},{"internalType":"uint256","name":"id","type":"uint256"}],"name":"balanceOf","outputs":[{"internalType":"uint256","name":"","type":"uint256"}],"stateMutability":"view","type":"function"},{"inputs":[{"internalType":"address[]","name":"accounts","type":"address[]"},{"internalType":"uint256[]","name":"ids","type":"uint256[]"}],"name":"balanceOfBatch","outputs":[{"internalType":"uint256[]","name":"","type":"uint256[]"}],"stateMutability":"view","type":"function"},{"inputs":[{"internalType":"uint256","name":"pokemonId","type":"uint256"},{"internalType":"uint256","name":"groundId","type":"uint256"}],"name":"calculateCurrentXP","outputs":[{"internalType":"uint256","name":"","type":"uint256"}],"stateMutability":"view","type":"function"},{"inputs":[{"internalType":"uint256","name":"pokemonId","type":"uint256"},{"internalType":"uint256","name":"groundId","type":"uint256"}],"name":"endTraining","outputs":[],"stateMutability":"nonpayable","type":"function"},{"inputs":[{"internalType":"uint256","name":"tokenId","type":"uint256"}],"name":"getPokemonData","outputs":[{"components":[{"internalType":"string","name":"name","type":"string"},{"internalType":"string","name":"pokemonType","type":"string"},{"internalType":"uint256","name":"level","type":"uint256"},{"internalType":"uint256","name":"xp","type":"uint256"},{"internalType":"uint256","name":"trainingStartTime","type":"uint256"},{"internalType":"bool","name":"isTraining","type":"bool"}],"internalType":"struct PokemonNFT.Pokemon","name":"","type":"tuple"}],"stateMutability":"view","type":"function"},{"inputs":[{"internalType":"uint256","name":"groundId","type":"uint256"}],"name":"getTrainingGround","outputs":[{"components":[{"internalType":"string","name":"name","type":"string"},{"internalType":"uint256","name":"xpPerHour","type":"uint256"},{"internalType":"string","name":"requiredType","type":"string"},{"internalType":"uint256","name":"minLevel","type":"uint256"}],"internalType":"struct PokemonNFT.TrainingGround","name":"","type":"tuple"}],"stateMutability":"view","type":"function"},{"inputs":[{"internalType":"address","name":"","type":"address"}],"name":"hasStarterPokemon","outputs":[{"internalType":"bool","name":"","type":"bool"}],"stateMutability":"view","type":"function"},{"inputs":[{"internalType":"address","name":"account","type":"address"},{"internalType":"address","name":"operator","type":"address"}],"name":"isApprovedForAll","outputs":[{"internalType":"bool","name":"","type":"bool"}],"stateMutability":"view","type":"function"},{"inputs":[{"internalType":"uint256","name":"pokemonId","type":"uint256"}],"name":"mintStarterPokemon","outputs":[],"stateMutability":"nonpayable","type":"function"},{"inputs":[],"name":"owner","outputs":[{"internalType":"address","name":"","type":"address"}],"stateMutability":"view","type":"function"},{"inputs":[],"name":"pokeCoin","outputs":[{"internalType":"contract PokeCoin","name":"","type":"address"}],"stateMutability":"view","type":"function"},{"inputs":[{"internalType":"uint256","name":"","type":"uint256"}],"name":"pokemonData","outputs":[{"internalType":"string","name":"name","type":"string"},{"internalType":"string","name":"pokemonType","type":"string"},{"internalType":"uint256","name":"level","type":"uint256"},{"internalType":"uint256","name":"xp","type":"uint256"},{"internalType":"uint256","name":"trainingStartTime","type":"uint256"},{"internalType":"bool","name":"isTraining","type":"bool"}],"stateMutability":"view","type":"function"},{"inputs":[],"name":"renounceOwnership","outputs":[],"stateMutability":"nonpayable","type":"function"},{"inputs":[{"internalType":"address","name":"from","type":"address"},{"internalType":"address","name":"to","type":"address"},{"internalType":"uint256[]","name":"ids","type":"uint256[]"},{"internalType":"uint256[]","name":"values","type":"uint256[]"},{"internalType":"bytes","name":"data","type":"bytes"}],"name":"safeBatchTransferFrom","outputs":[],"stateMutability":"nonpayable","type":"function"},{"inputs":[{"internalType":"address","name":"from","type":"address"},{"internalType":"address","name":"to","type":"address"},{"internalType":"uint256","name":"id","type":"uint256"},{"internalType":"uint256","name":"value","type":"uint256"},{"internalType":"bytes","name":"data","type":"bytes"}],"name":"safeTransferFrom","outputs":[],"stateMutability":"nonpayable","type":"function"},{"inputs":[{"internalType":"address","name":"operator","type":"address"},{"internalType":"bool","name":"approved","type":"bool"}],"name":"setApprovalForAll","outputs":[],"stateMutability":"nonpayable","type":"function"},{"inputs":[{"internalType":"string","name":"newBaseURI","type":"string"}],"name":"setBaseURI","outputs":[],"stateMutability":"nonpayable","type":"function"},{"inputs":[{"internalType":"address","name":"_pokeCoinContract","type":"address"}],"name":"setPokeCoinContract","outputs":[],"stateMutability":"nonpayable","type":"function"},{"inputs":[{"internalType":"uint256","name":"pokemonId","type":"uint256"},{"internalType":"uint256","name":"groundId","type":"uint256"}],"name":"startTraining","outputs":[],"stateMutability":"nonpayable","type":"function"},{"inputs":[{"internalType":"bytes4","name":"interfaceId","type":"bytes4"}],"name":"supportsInterface","outputs":[{"internalType":"bool","name":"","type":"bool"}],"stateMutability":"view","type":"function"},{"inputs":[{"internalType":"uint256","name":"","type":"uint256"}],"name":"trainingGrounds","outputs":[{"internalType":"string","name":"name","type":"string"},{"internalType":"uint256","name":"xpPerHour","type":"uint256"},{"internalType":"string","name":"requiredType","type":"string"},{"internalType":"uint256","name":"minLevel","type":"uint256"}],"stateMutability":"view","type":"function"},{"inputs":[{"internalType":"address","name":"newOwner","type":"address"}],"name":"transferOwnership","outputs":[],"stateMutability":"nonpayable","type":"function"},{"inputs":[{"internalType":"uint256","name":"tokenId","type":"uint256"}],"name":"uri","outputs":[{"internalType":"string","name":"","type":"string"}],"stateMutability":"view","type":"function"}],"evm":{"bytecode":{"linkReferences":{},"object":"60806040523480156200001157600080fd5b5060408051602081019091526000815233906200002e8162000652565b506001600160a01b0381166200005e57604051631e4fbdf760e01b81526000600482015260240160405180910390fd5b620000698162000664565b506040805161010081018252600960c0820190815268213ab63130b9b0bab960b91b60e0830152815281518083018352600580825264477261737360d81b60208381019190915280840192909252928201929092526000606082018190526080820181905260a0820181905260019052600490915280517fabd6e7cb50984ff9c2f3e18a2660c3353dadf4e3291deeb275dae2cd1e44fe059081906200011090826200075b565b50602082015160018201906200012790826200075b565b506040828101516002830155606080840151600384015560808085015160048086019190915560a0958601516005958601805460ff1916911515919091179055835161010081018552600a60c082019081526921b430b936b0b73232b960b11b60e0830152815284518086018652828152634669726560e01b602082810191909152808301919091529481019590955260009285018390529084018290529383018190528390529190915280517f1a1e6821cde7d0159c0d293177871e09677b4e42307c7db3ba94f8648a5a050f9081906200020490826200075b565b50602082015160018201906200021b90826200075b565b506040828101516002830155606080840151600384015560808085015160048086019190915560a0958601516005958601805460ff1916911515919091179055835161010081018552600860c08201908152675371756972746c6560c01b60e0830152815284518086018652868152642bb0ba32b960d91b60208281019190915280830191909152948101959095526000928501839052908401829052938301819052600790529190915280517fbeb3bad75134cb432e5707980e3245c52c5998a1125ee30f2f0dbf3925b1e551908190620002f890826200075b565b50602082015160018201906200030f90826200075b565b5060408281015160028301556060808401516003840155608080850151600485015560a0948501516005909401805460ff191694151594909417909355815160c081018352600e9381019384526d426173696320547261696e696e6760901b94810194909452918352603c6020808501919091528151808201835260008082529285015260019284018390529190526006905280517f3e5fec24aa4dc4e5aee2e025e51e1392c72a2500577559fae9665c6d52bd6a31908190620003d490826200075b565b506020820151600182015560408201516002820190620003f590826200075b565b506060918201516003909101556040805160c081018252600960808201908152684669726520446f6a6f60b81b60a0830152815260786020808301919091528251808401845260048152634669726560e01b818301529282019290925260059281019290925260026000526006905280517f8819ef417987f8ae7a81f42cdfb18815282fe989326fbff903d13cf0e03ace299081906200049690826200075b565b506020820151600182015560408201516002820190620004b790826200075b565b506060918201516003918201556040805160c081018252600c608082019081526b57617465722054656d706c6560a01b60a083015281526078602080830191909152825180840184526005808252642bb0ba32b960d91b828401529383015293810191909152600091909152600690915280517f75f96ab15d697e93042dc45b5c896c4b27e89bb6eaf39475c5c371cb2513f7d29081906200055a90826200075b565b5060208201516001820155604082015160028201906200057b90826200075b565b506060918201516003909101556040805160c081018252600c608082019081526b23b930b9b99023b0b93232b760a11b60a08301528152607860208083019190915282518084018452600580825264477261737360d81b8284015293830152928101919091526004600052600690915280517fc5069e24aaadb2addc3e52e868fcf3f4f8acf5a87e24300992fd4540c2a87eed9081906200061d90826200075b565b5060208201516001820155604082015160028201906200063e90826200075b565b506060820151816003015590505062000827565b60026200066082826200075b565b5050565b600380546001600160a01b038381166001600160a01b0319831681179093556040519116919082907f8be0079c531659141344cd1fd0a4f28419497f9722a3daafe3b4186f6b6457e090600090a35050565b634e487b7160e01b600052604160045260246000fd5b600181811c90821680620006e157607f821691505b6020821081036200070257634e487b7160e01b600052602260045260246000fd5b50919050565b601f8211156200075657600081815260208120601f850160051c81016020861015620007315750805b601f850160051c820191505b8181101562000752578281556001016200073d565b5050505b505050565b81516001600160401b03811115620007775762000777620006b6565b6200078f81620007888454620006cc565b8462000708565b602080601f831160018114620007c75760008415620007ae5750858301515b600019600386901b1c1916600185901b17855562000752565b600085815260208120601f198616915b82811015620007f857888601518255948401946001909101908401620007d7565b5085821015620008175787850151600019600388901b60f8161c191681555b5050505050600190811b01905550565b61299080620008376000396000f3fe608060405234801561001057600080fd5b50600436106101ef5760003560e01c8063715018a61161010f578063c1b2c1ae116100a2578063f17f767a11610071578063f17f767a14610361578063f242432a14610436578063f2fde38b14610449578063fb1224e51461045c57600080fd5b8063c1b2c1ae146103c8578063de23cfca146103ed578063e47248dc14610410578063e985e9c51461042357600080fd5b80638da5cb5b116100de5780638da5cb5b14610394578063a22cb465146103a5578063b8708c42146103b8578063be6c5b7e146103c057600080fd5b8063715018a6146103465780637506bf691461034e57806376a939e714610361578063809525471461036957600080fd5b80632eb2c2d61161018757806355f804b31161015657806355f804b3146103055780635eade5461461031857806362ebe57e1461032b5780636af783ea1461033e57600080fd5b80632eb2c2d6146102aa5780633f758568146102bd5780634e1273f4146102c55780634f13b164146102e557600080fd5b80630fccc072116101c35780630fccc07214610265578063154aa2a81461026d5780632273c74e146102825780632c17a522146102a257600080fd5b8062fdd58e146101f457806301ffc9a71461021a5780630e89341c1461023d5780630f8ea1c21461025d575b600080fd5b610207610202366004611eff565b61047f565b6040519081526020015b60405180910390f35b61022d610228366004611f3f565b6104a7565b6040519015158152602001610211565b61025061024b366004611f63565b6104f7565b6040516102119190611fcc565b610207609681565b610207603c81565b61028061027b366004611fdf565b61052b565b005b610295610290366004611f63565b610854565b6040516102119190612001565b610207600481565b6102806102b83660046121bf565b6109ff565b610207600a81565b6102d86102d3366004612269565b610a66565b6040516102119190612364565b6102f86102f3366004611f63565b610b3b565b6040516102119190612377565b6102806103133660046123d1565b610cbd565b610207610326366004611fdf565b610cd5565b610280610339366004612422565b610efc565b610207600381565b610280610f26565b61028061035c366004611fdf565b610f3a565b610207600181565b60085461037c906001600160a01b031681565b6040516001600160a01b039091168152602001610211565b6003546001600160a01b031661037c565b6102806103b336600461244b565b6111e8565b610207600281565b610207600581565b6103db6103d6366004611f63565b6111f3565b60405161021196959493929190612482565b61022d6103fb366004612422565b60056020526000908152604090205460ff1681565b61028061041e366004611f63565b61133b565b61022d6104313660046124cf565b611498565b610280610444366004612502565b6114c6565b610280610457366004612422565b611525565b61046f61046a366004611f63565b611563565b6040516102119493929190612567565b6000818152602081815260408083206001600160a01b03861684529091529020545b92915050565b60006001600160e01b03198216636cdb3d1360e11b14806104d857506001600160e01b031982166303a24d0760e21b145b806104a157506301ffc9a760e01b6001600160e01b03198316146104a1565b606060076105048361169b565b604051602001610515929190612651565b6040516020818303038152906040529050919050565b6000610537338461047f565b1161057c5760405162461bcd60e51b815260206004820152601060248201526f2737ba103cb7bab9102837b5b2b6b7b760811b60448201526064015b60405180910390fd5b60008281526004602052604090206005015460ff16156105d15760405162461bcd60e51b815260206004820152601060248201526f416c726561647920747261696e696e6760801b6044820152606401610573565b60008181526006602090815260408083206003015485845260049092529091206002015410156106335760405162461bcd60e51b815260206004820152600d60248201526c4c6576656c20746f6f206c6f7760981b6044820152606401610573565b60006001821461064457600a610647565b60055b6008546040516370a0823160e01b815233600482015291925082916001600160a01b03909116906370a0823190602401602060405180830381865afa158015610694573d6000803e3d6000fd5b505050506040513d601f19601f820116820180604052508101906106b89190612686565b10156106ff5760405162461bcd60e51b8152602060048201526016602482015275496e73756666696369656e7420506f6b65436f696e7360501b6044820152606401610573565b6008546001600160a01b03166323b872dd333061072485670de0b6b3a76400006126b5565b6040516001600160e01b031960e086901b1681526001600160a01b03938416600482015292909116602483015260448201526064016020604051808303816000875af1158015610778573d6000803e3d6000fd5b505050506040513d601f19601f8201168201806040525081019061079c91906126cc565b6107e85760405162461bcd60e51b815260206004820152601860248201527f506f6b65436f696e207472616e73666572206661696c656400000000000000006044820152606401610573565b60008381526004602081905260409182902060058101805460ff19166001179055429101819055905184917f1ec33602afef38dd401d03630f0a99444fae8d2cca4f187b3368262dc152df809161084791868252602082015260400190565b60405180910390a2505050565b61088f6040518060c0016040528060608152602001606081526020016000815260200160008152602001600081526020016000151581525090565b60008281526004602052604090819020815160c081019092528054829082906108b7906125a4565b80601f01602080910402602001604051908101604052809291908181526020018280546108e3906125a4565b80156109305780601f1061090557610100808354040283529160200191610930565b820191906000526020600020905b81548152906001019060200180831161091357829003601f168201915b50505050508152602001600182018054610949906125a4565b80601f0160208091040260200160405190810160405280929190818152602001828054610975906125a4565b80156109c25780601f10610997576101008083540402835291602001916109c2565b820191906000526020600020905b8154815290600101906020018083116109a557829003601f168201915b505050918352505060028201546020820152600382015460408201526004820154606082015260059091015460ff16151560809091015292915050565b336001600160a01b0386168114801590610a205750610a1e8682611498565b155b15610a515760405163711bec9160e11b81526001600160a01b03808316600483015287166024820152604401610573565b610a5e868686868661172e565b505050505050565b60608151835114610a975781518351604051635b05999160e01b815260048101929092526024820152604401610573565b6000835167ffffffffffffffff811115610ab357610ab3612071565b604051908082528060200260200182016040528015610adc578160200160208202803683370190505b50905060005b8451811015610b3357602080820286010151610b069060208084028701015161047f565b828281518110610b1857610b186126e9565b6020908102919091010152610b2c816126ff565b9050610ae2565b509392505050565b610b666040518060800160405280606081526020016000815260200160608152602001600081525090565b60008281526006602052604090819020815160808101909252805482908290610b8e906125a4565b80601f0160208091040260200160405190810160405280929190818152602001828054610bba906125a4565b8015610c075780601f10610bdc57610100808354040283529160200191610c07565b820191906000526020600020905b815481529060010190602001808311610bea57829003601f168201915b5050505050815260200160018201548152602001600282018054610c2a906125a4565b80601f0160208091040260200160405190810160405280929190818152602001828054610c56906125a4565b8015610ca35780601f10610c7857610100808354040283529160200191610ca3565b820191906000526020600020905b815481529060010190602001808311610c8657829003601f168201915b505050505081526020016003820154815250509050919050565b610cc561178e565b6007610cd18282612763565b5050565b600082815260046020526040808220815160c0810190925280548392919082908290610d00906125a4565b80601f0160208091040260200160405190810160405280929190818152602001828054610d2c906125a4565b8015610d795780601f10610d4e57610100808354040283529160200191610d79565b820191906000526020600020905b815481529060010190602001808311610d5c57829003601f168201915b50505050508152602001600182018054610d92906125a4565b80601f0160208091040260200160405190810160405280929190818152602001828054610dbe906125a4565b8015610e0b5780601f10610de057610100808354040283529160200191610e0b565b820191906000526020600020905b815481529060010190602001808311610dee57829003601f168201915b505050918352505060028201546020820152600382015460408201526004820154606082015260059091015460ff16151560809091015260a0810151909150610e59576060015190506104a1565b6000816080015142610e6b9190612823565b90506000610e7a603c83612836565b90506000610e896001836126b5565b905060066000878152602001908152602001600020600201604051610eae9190612858565b604051809103902084602001518051906020012003610ee1576064610ed46096836126b5565b610ede9190612836565b90505b808460600151610ef19190612864565b979650505050505050565b610f0461178e565b600880546001600160a01b0319166001600160a01b0392909216919091179055565b610f2e61178e565b610f3860006117bb565b565b6000610f46338461047f565b11610f865760405162461bcd60e51b815260206004820152601060248201526f2737ba103cb7bab9102837b5b2b6b7b760811b6044820152606401610573565b60008281526004602052604090206005015460ff16610fd65760405162461bcd60e51b815260206004820152600c60248201526b4e6f7420747261696e696e6760a01b6044820152606401610573565b60008281526004602081905260409091200154610ff590603c90612864565b4210156110445760405162461bcd60e51b815260206004820152601960248201527f4d696e20747261696e696e672074696d65206e6f74206d6574000000000000006044820152606401610573565b6000828152600460208190526040822001546110609042612823565b9050600061106f603c83612836565b9050600061107e6001836126b5565b9050600660008581526020019081526020016000206002016040516110a39190612858565b60408051918290038220600088815260046020529190912090916110ca9160010190612858565b6040518091039020036110f15760646110e46096836126b5565b6110ee9190612836565b90505b60008581526004602052604081206003018054839290611112908490612864565b90915550505b600085815260046020526040902060030154606411611185576000858152600460205260408120600201805460019290611153908490612864565b9091555050600085815260046020526040812060030180546064929061117a908490612823565b909155506111189050565b600085815260046020818152604080842060058101805460ff1916905590920192909255805186815291820183905286917f0ccc42750d9dce02f33355c35d96f5b942523df7acac68e43b23572a50c9f25f910160405180910390a25050505050565b610cd133838361180d565b60046020526000908152604090208054819061120e906125a4565b80601f016020809104026020016040519081016040528092919081815260200182805461123a906125a4565b80156112875780601f1061125c57610100808354040283529160200191611287565b820191906000526020600020905b81548152906001019060200180831161126a57829003601f168201915b50505050509080600101805461129c906125a4565b80601f01602080910402602001604051908101604052809291908181526020018280546112c8906125a4565b80156113155780601f106112ea57610100808354040283529160200191611315565b820191906000526020600020905b8154815290600101906020018083116112f857829003601f168201915b505050506002830154600384015460048501546005909501549394919390925060ff1686565b806001148061134a5750806004145b806113555750806007145b6113a15760405162461bcd60e51b815260206004820152601760248201527f496e76616c6964207374617274657220506f6b656d6f6e0000000000000000006044820152606401610573565b3360009081526005602052604090205460ff16156114015760405162461bcd60e51b815260206004820152601b60248201527f416c726561647920686173207374617274657220506f6b656d6f6e00000000006044820152606401610573565b61141d33826001604051806020016040528060008152506118a3565b3360008181526005602052604090819020805460ff191660011790556008549051630178e1d360e31b815260048101929092526001600160a01b031690630bc70e9890602401600060405180830381600087803b15801561147d57600080fd5b505af1158015611491573d6000803e3d6000fd5b5050505050565b6001600160a01b03918216600090815260016020908152604080832093909416825291909152205460ff1690565b336001600160a01b03861681148015906114e757506114e58682611498565b155b156115185760405163711bec9160e11b81526001600160a01b03808316600483015287166024820152604401610573565b610a5e8686868686611900565b61152d61178e565b6001600160a01b03811661155757604051631e4fbdf760e01b815260006004820152602401610573565b611560816117bb565b50565b60066020526000908152604090208054819061157e906125a4565b80601f01602080910402602001604051908101604052809291908181526020018280546115aa906125a4565b80156115f75780601f106115cc576101008083540402835291602001916115f7565b820191906000526020600020905b8154815290600101906020018083116115da57829003601f168201915b505050505090806001015490806002018054611612906125a4565b80601f016020809104026020016040519081016040528092919081815260200182805461163e906125a4565b801561168b5780601f106116605761010080835404028352916020019161168b565b820191906000526020600020905b81548152906001019060200180831161166e57829003601f168201915b5050505050908060030154905084565b606060006116a88361198e565b600101905060008167ffffffffffffffff8111156116c8576116c8612071565b6040519080825280601f01601f1916602001820160405280156116f2576020820181803683370190505b5090508181016020015b600019016f181899199a1a9b1b9c1cb0b131b232b360811b600a86061a8153600a85049450846116fc57509392505050565b6001600160a01b03841661175857604051632bfa23e760e11b815260006004820152602401610573565b6001600160a01b03851661178157604051626a0d4560e21b815260006004820152602401610573565b6114918585858585611a66565b6003546001600160a01b03163314610f385760405163118cdaa760e01b8152336004820152602401610573565b600380546001600160a01b038381166001600160a01b0319831681179093556040519116919082907f8be0079c531659141344cd1fd0a4f28419497f9722a3daafe3b4186f6b6457e090600090a35050565b6001600160a01b0382166118365760405162ced3e160e81b815260006004820152602401610573565b6001600160a01b03838116600081815260016020908152604080832094871680845294825291829020805460ff191686151590811790915591519182527f17307eab39ab6107e8899845ad3d59bd9653f200f220920489ca2b5937696c31910160405180910390a3505050565b6001600160a01b0384166118cd57604051632bfa23e760e11b815260006004820152602401610573565b60408051600180825260208201869052818301908152606082018590526080820190925290610a5e600087848487611a66565b6001600160a01b03841661192a57604051632bfa23e760e11b815260006004820152602401610573565b6001600160a01b03851661195357604051626a0d4560e21b815260006004820152602401610573565b604080516001808252602082018690528183019081526060820185905260808201909252906119858787848487611a66565b50505050505050565b60008072184f03e93ff9f4daa797ed6e38ed64bf6a1f0160401b83106119cd5772184f03e93ff9f4daa797ed6e38ed64bf6a1f0160401b830492506040015b6d04ee2d6d415b85acef810000000083106119f9576d04ee2d6d415b85acef8100000000830492506020015b662386f26fc100008310611a1757662386f26fc10000830492506010015b6305f5e1008310611a2f576305f5e100830492506008015b6127108310611a4357612710830492506004015b60648310611a55576064830492506002015b600a83106104a15760010192915050565b611a7285858585611ab9565b6001600160a01b038416156114915782513390600103611aab5760208481015190840151611aa4838989858589611cd6565b5050610a5e565b610a5e818787878787611dfa565b8051825114611ae85781518151604051635b05999160e01b815260048101929092526024820152604401610573565b3360005b8351811015611bf7576020818102858101820151908501909101516001600160a01b03881615611b9f576000828152602081815260408083206001600160a01b038c16845290915290205481811015611b78576040516303dee4c560e01b81526001600160a01b038a166004820152602481018290526044810183905260648101849052608401610573565b6000838152602081815260408083206001600160a01b038d16845290915290209082900390555b6001600160a01b03871615611be4576000828152602081815260408083206001600160a01b038b16845290915281208054839290611bde908490612864565b90915550505b505080611bf0906126ff565b9050611aec565b508251600103611c785760208301516000906020840151909150856001600160a01b0316876001600160a01b0316846001600160a01b03167fc3d58168c5ae7397731d063d5bbf3d657854427343f4c083240f7aacaa2d0f628585604051611c69929190918252602082015260400190565b60405180910390a45050611491565b836001600160a01b0316856001600160a01b0316826001600160a01b03167f4a39dc06d4c0dbc64b70af90fd698a233a518aa5d07e595d983b8c0526c8f7fb8686604051611cc7929190612877565b60405180910390a45050505050565b6001600160a01b0384163b15610a5e5760405163f23a6e6160e01b81526001600160a01b0385169063f23a6e6190611d1a90899089908890889088906004016128a5565b6020604051808303816000875af1925050508015611d55575060408051601f3d908101601f19168201909252611d52918101906128df565b60015b611dbe573d808015611d83576040519150601f19603f3d011682016040523d82523d6000602084013e611d88565b606091505b508051600003611db657604051632bfa23e760e11b81526001600160a01b0386166004820152602401610573565b805181602001fd5b6001600160e01b0319811663f23a6e6160e01b1461198557604051632bfa23e760e11b81526001600160a01b0386166004820152602401610573565b6001600160a01b0384163b15610a5e5760405163bc197c8160e01b81526001600160a01b0385169063bc197c8190611e3e90899089908890889088906004016128fc565b6020604051808303816000875af1925050508015611e79575060408051601f3d908101601f19168201909252611e76918101906128df565b60015b611ea7573d808015611d83576040519150601f19603f3d011682016040523d82523d6000602084013e611d88565b6001600160e01b0319811663bc197c8160e01b1461198557604051632bfa23e760e11b81526001600160a01b0386166004820152602401610573565b80356001600160a01b0381168114611efa57600080fd5b919050565b60008060408385031215611f1257600080fd5b611f1b83611ee3565b946020939093013593505050565b6001600160e01b03198116811461156057600080fd5b600060208284031215611f5157600080fd5b8135611f5c81611f29565b9392505050565b600060208284031215611f7557600080fd5b5035919050565b60005b83811015611f97578181015183820152602001611f7f565b50506000910152565b60008151808452611fb8816020860160208601611f7c565b601f01601f19169290920160200192915050565b602081526000611f5c6020830184611fa0565b60008060408385031215611ff257600080fd5b50508035926020909101359150565b602081526000825160c0602084015261201d60e0840182611fa0565b90506020840151601f1984830301604085015261203a8282611fa0565b9150506040840151606084015260608401516080840152608084015160a084015260a0840151151560c08401528091505092915050565b634e487b7160e01b600052604160045260246000fd5b604051601f8201601f1916810167ffffffffffffffff811182821017156120b0576120b0612071565b604052919050565b600067ffffffffffffffff8211156120d2576120d2612071565b5060051b60200190565b600082601f8301126120ed57600080fd5b813560206121026120fd836120b8565b612087565b82815260059290921b8401810191818101908684111561212157600080fd5b8286015b8481101561213c5780358352918301918301612125565b509695505050505050565b600067ffffffffffffffff83111561216157612161612071565b612174601f8401601f1916602001612087565b905082815283838301111561218857600080fd5b828260208301376000602084830101529392505050565b600082601f8301126121b057600080fd5b611f5c83833560208501612147565b600080600080600060a086880312156121d757600080fd5b6121e086611ee3565b94506121ee60208701611ee3565b9350604086013567ffffffffffffffff8082111561220b57600080fd5b61221789838a016120dc565b9450606088013591508082111561222d57600080fd5b61223989838a016120dc565b9350608088013591508082111561224f57600080fd5b5061225c8882890161219f565b9150509295509295909350565b6000806040838503121561227c57600080fd5b823567ffffffffffffffff8082111561229457600080fd5b818501915085601f8301126122a857600080fd5b813560206122b86120fd836120b8565b82815260059290921b840181019181810190898411156122d757600080fd5b948201945b838610156122fc576122ed86611ee3565b825294820194908201906122dc565b9650508601359250508082111561231257600080fd5b5061231f858286016120dc565b9150509250929050565b600081518084526020808501945080840160005b838110156123595781518752958201959082019060010161233d565b509495945050505050565b602081526000611f5c6020830184612329565b60208152600082516080602084015261239360a0840182611fa0565b9050602084015160408401526040840151601f198483030160608501526123ba8282611fa0565b915050606084015160808401528091505092915050565b6000602082840312156123e357600080fd5b813567ffffffffffffffff8111156123fa57600080fd5b8201601f8101841361240b57600080fd5b61241a84823560208401612147565b949350505050565b60006020828403121561243457600080fd5b611f5c82611ee3565b801515811461156057600080fd5b6000806040838503121561245e57600080fd5b61246783611ee3565b915060208301356124778161243d565b809150509250929050565b60c08152600061249560c0830189611fa0565b82810360208401526124a78189611fa0565b91505085604083015284606083015283608083015282151560a0830152979650505050505050565b600080604083850312156124e257600080fd5b6124eb83611ee3565b91506124f960208401611ee3565b90509250929050565b600080600080600060a0868803121561251a57600080fd5b61252386611ee3565b945061253160208701611ee3565b93506040860135925060608601359150608086013567ffffffffffffffff81111561255b57600080fd5b61225c8882890161219f565b60808152600061257a6080830187611fa0565b85602084015282810360408401526125928186611fa0565b91505082606083015295945050505050565b600181811c908216806125b857607f821691505b6020821081036125d857634e487b7160e01b600052602260045260246000fd5b50919050565b600081546125eb816125a4565b60018281168015612603576001811461261857612647565b60ff1984168752821515830287019450612647565b8560005260208060002060005b8581101561263e5781548a820152908401908201612625565b50505082870194505b5050505092915050565b600061265d82856125de565b835161266d818360208801611f7c565b64173539b7b760d91b9101908152600501949350505050565b60006020828403121561269857600080fd5b5051919050565b634e487b7160e01b600052601160045260246000fd5b80820281158282048414176104a1576104a161269f565b6000602082840312156126de57600080fd5b8151611f5c8161243d565b634e487b7160e01b600052603260045260246000fd5b6000600182016127115761271161269f565b5060010190565b601f82111561275e57600081815260208120601f850160051c8101602086101561273f5750805b601f850160051c820191505b81811015610a5e5782815560010161274b565b505050565b815167ffffffffffffffff81111561277d5761277d612071565b6127918161278b84546125a4565b84612718565b602080601f8311600181146127c657600084156127ae5750858301515b600019600386901b1c1916600185901b178555610a5e565b600085815260208120601f198616915b828110156127f5578886015182559484019460019091019084016127d6565b50858210156128135787850151600019600388901b60f8161c191681555b5050505050600190811b01905550565b818103818111156104a1576104a161269f565b60008261285357634e487b7160e01b600052601260045260246000fd5b500490565b6000611f5c82846125de565b808201808211156104a1576104a161269f565b60408152600061288a6040830185612329565b828103602084015261289c8185612329565b95945050505050565b6001600160a01b03868116825285166020820152604081018490526060810183905260a060808201819052600090610ef190830184611fa0565b6000602082840312156128f157600080fd5b8151611f5c81611f29565b6001600160a01b0386811682528516602082015260a06040820181905260009061292890830186612329565b828103606084015261293a8186612329565b9050828103608084015261294e8185611fa0565b9897505050505050505056fea2646970667358221220244397a1b5f5cb1c8c82e56de8bac563cb0cb64a50a0fe2d06d01b659381448864736f6c63430008140033","opcodes":"PUSH1 0x80 PUSH1 0x40 MSTORE CALLVALUE DUP1 ISZERO PUSH3 0x11 JUMPI PUSH1 0x0 DUP1 REVERT JUMPDEST POP PUSH1 0x40 DUP1 MLOAD PUSH1 0x20 DUP2 ADD SWAP1 SWAP2 MSTORE PUSH1 0x0 DUP2 MSTORE CALLER SWAP1 PUSH3 0x2E DUP2 PUSH3 0x652 JUMP JUMPDEST POP PUSH1 0x1 PUSH1 0x1 PUSH1 0xA0 SHL SUB DUP2 AND PUSH3 0x5E JUMPI PUSH1 0x40 MLOAD PUSH4 0x1E4FBDF7 PUSH1 0xE0 SHL DUP2 MSTORE PUSH1 0x0 PUSH1 0x4 DUP3 ADD MSTORE PUSH1 0x24 ADD PUSH1 0x40 MLOAD DUP1 SWAP2 SUB SWAP1 REVERT JUMPDEST PUSH3 0x69 DUP2 PUSH3 0x664 JUMP JUMPDEST POP PUSH1 0x40 DUP1 MLOAD PUSH2 0x100 DUP2 ADD DUP3 MSTORE PUSH1 0x9 PUSH1 0xC0 DUP3 ADD SWAP1 DUP2 MSTORE PUSH9 0x213AB63130B9B0BAB9 PUSH1 0xB9 SHL PUSH1 0xE0 DUP4 ADD MSTORE DUP2 MSTORE DUP2 MLOAD DUP1 DUP4 ADD DUP4 MSTORE PUSH1 0x5 DUP1 DUP3 MSTORE PUSH5 0x4772617373 PUSH1 0xD8 SHL PUSH1 0x20 DUP4 DUP2 ADD SWAP2 SWAP1 SWAP2 MSTORE DUP1 DUP5 ADD SWAP3 SWAP1 SWAP3 MSTORE SWAP3 DUP3 ADD SWAP3 SWAP1 SWAP3 MSTORE PUSH1 0x0 PUSH1 0x60 DUP3 ADD DUP2 SWAP1 MSTORE PUSH1 0x80 DUP3 ADD DUP2 SWAP1 MSTORE PUSH1 0xA0 DUP3 ADD DUP2 SWAP1 MSTORE PUSH1 0x1 SWAP1 MSTORE PUSH1 0x4 SWAP1 SWAP2 MSTORE DUP1 MLOAD PUSH32 0xABD6E7CB50984FF9C2F3E18A2660C3353DADF4E3291DEEB275DAE2CD1E44FE05 SWAP1 DUP2 SWAP1 PUSH3 0x110 SWAP1 DUP3 PUSH3 0x75B JUMP JUMPDEST POP PUSH1 0x20 DUP3 ADD MLOAD PUSH1 0x1 DUP3 ADD SWAP1 PUSH3 0x127 SWAP1 DUP3 PUSH3 0x75B JUMP JUMPDEST POP PUSH1 0x40 DUP3 DUP2 ADD MLOAD PUSH1 0x2 DUP4 ADD SSTORE PUSH1 0x60 DUP1 DUP5 ADD MLOAD PUSH1 0x3 DUP5 ADD SSTORE PUSH1 0x80 DUP1 DUP6 ADD MLOAD PUSH1 0x4 DUP1 DUP7 ADD SWAP2 SWAP1 SWAP2 SSTORE PUSH1 0xA0 SWAP6 DUP7 ADD MLOAD PUSH1 0x5 SWAP6 DUP7 ADD DUP1 SLOAD PUSH1 0xFF NOT AND SWAP2 ISZERO ISZERO SWAP2 SWAP1 SWAP2 OR SWAP1 SSTORE DUP4 MLOAD PUSH2 0x100 DUP2 ADD DUP6 MSTORE PUSH1 0xA PUSH1 0xC0 DUP3 ADD SWAP1 DUP2 MSTORE PUSH10 0x21B430B936B0B73232B9 PUSH1 0xB1 SHL PUSH1 0xE0 DUP4 ADD MSTORE DUP2 MSTORE DUP5 MLOAD DUP1 DUP7 ADD DUP7 MSTORE DUP3 DUP2 MSTORE PUSH4 0x46697265 PUSH1 0xE0 SHL PUSH1 0x20 DUP3 DUP2 ADD SWAP2 SWAP1 SWAP2 MSTORE DUP1 DUP4 ADD SWAP2 SWAP1 SWAP2 MSTORE SWAP5 DUP2 ADD SWAP6 SWAP1 SWAP6 MSTORE PUSH1 0x0 SWAP3 DUP6 ADD DUP4 SWAP1 MSTORE SWAP1 DUP5 ADD DUP3 SWAP1 MSTORE SWAP4 DUP4 ADD DUP2 SWAP1 MSTORE DUP4 SWAP1 MSTORE SWAP2 SWAP1 SWAP2 MSTORE DUP1 MLOAD PUSH32 0x1A1E6821CDE7D0159C0D293177871E09677B4E42307C7DB3BA94F8648A5A050F SWAP1 DUP2 SWAP1 PUSH3 0x204 SWAP1 DUP3 PUSH3 0x75B JUMP JUMPDEST POP PUSH1 0x20 DUP3 ADD MLOAD PUSH1 0x1 DUP3 ADD SWAP1 PUSH3 0x21B SWAP1 DUP3 PUSH3 0x75B JUMP JUMPDEST POP PUSH1 0x40 DUP3 DUP2 ADD MLOAD PUSH1 0x2 DUP4 ADD SSTORE PUSH1 0x60 DUP1 DUP5 ADD MLOAD PUSH1 0x3 DUP5 ADD SSTORE PUSH1 0x80 DUP1 DUP6 ADD MLOAD PUSH1 0x4 DUP1 DUP7 ADD SWAP2 SWAP1 SWAP2 SSTORE PUSH1 0xA0 SWAP6 DUP7 ADD MLOAD PUSH1 0x5 SWAP6 DUP7 ADD DUP1 SLOAD PUSH1 0xFF NOT AND SWAP2 ISZERO ISZERO SWAP2 SWAP1 SWAP2 OR SWAP1 SSTORE DUP4 MLOAD PUSH2 0x100 DUP2 ADD DUP6 MSTORE PUSH1 0x8 PUSH1 0xC0 DUP3 ADD SWAP1 DUP2 MSTORE PUSH8 0x5371756972746C65 PUSH1 0xC0 SHL PUSH1 0xE0 DUP4 ADD MSTORE DUP2 MSTORE DUP5 MLOAD DUP1 DUP7 ADD DUP7 MSTORE DUP7 DUP2 MSTORE PUSH5 0x2BB0BA32B9 PUSH1 0xD9 SHL PUSH1 0x20 DUP3 DUP2 ADD SWAP2 SWAP1 SWAP2 MSTORE DUP1 DUP4 ADD SWAP2 SWAP1 SWAP2 MSTORE SWAP5 DUP2 ADD SWAP6 SWAP1 SWAP6 MSTORE PUSH1 0x0 SWAP3 DUP6 ADD DUP4 SWAP1 MSTORE SWAP1 DUP5 ADD DUP3 SWAP1 MSTORE SWAP4 DUP4 ADD DUP2 SWAP1 MSTORE PUSH1 0x7 SWAP1 MSTORE SWAP2 SWAP1 SWAP2 MSTORE DUP1 MLOAD PUSH32 0xBEB3BAD75134CB432E5707980E3245C52C5998A1125EE30F2F0DBF3925B1E551 SWAP1 DUP2 SWAP1 PUSH3 0x2F8 SWAP1 DUP3 PUSH3 0x75B JUMP JUMPDEST POP PUSH1 0x20 DUP3 ADD MLOAD PUSH1 0x1 DUP3 ADD SWAP1 PUSH3 0x30F SWAP1 DUP3 PUSH3 0x75B JUMP JUMPDEST POP PUSH1 0x40 DUP3 DUP2 ADD MLOAD PUSH1 0x2 DUP4 ADD SSTORE PUSH1 0x60 DUP1 DUP5 ADD MLOAD PUSH1 0x3 DUP5 ADD SSTORE PUSH1 0x80 DUP1 DUP6 ADD MLOAD PUSH1 0x4 DUP6 ADD SSTORE PUSH1 0xA0 SWAP5 DUP6 ADD MLOAD PUSH1 0x5 SWAP1 SWAP5 ADD DUP1 SLOAD PUSH1 0xFF NOT AND SWAP5 ISZERO ISZERO SWAP5 SWAP1 SWAP5 OR SWAP1 SWAP4 SSTORE DUP2 MLOAD PUSH1 0xC0 DUP2 ADD DUP4 MSTORE PUSH1 0xE SWAP4 DUP2 ADD SWAP4 DUP5 MSTORE PUSH14 0x426173696320547261696E696E67 PUSH1 0x90 SHL SWAP5 DUP2 ADD SWAP5 SWAP1 SWAP5 MSTORE SWAP2 DUP4 MSTORE PUSH1 0x3C PUSH1 0x20 DUP1 DUP6 ADD SWAP2 SWAP1 SWAP2 MSTORE DUP2 MLOAD DUP1 DUP3 ADD DUP4 MSTORE PUSH1 0x0 DUP1 DUP3 MSTORE SWAP3 DUP6 ADD MSTORE PUSH1 0x1 SWAP3 DUP5 ADD DUP4 SWAP1 MSTORE SWAP2 SWAP1 MSTORE PUSH1 0x6 SWAP1 MSTORE DUP1 MLOAD PUSH32 0x3E5FEC24AA4DC4E5AEE2E025E51E1392C72A2500577559FAE9665C6D52BD6A31 SWAP1 DUP2 SWAP1 PUSH3 0x3D4 SWAP1 DUP3 PUSH3 0x75B JUMP JUMPDEST POP PUSH1 0x20 DUP3 ADD MLOAD PUSH1 0x1 DUP3 ADD SSTORE PUSH1 0x40 DUP3 ADD MLOAD PUSH1 0x2 DUP3 ADD SWAP1 PUSH3 0x3F5 SWAP1 DUP3 PUSH3 0x75B JUMP JUMPDEST POP PUSH1 0x60 SWAP2 DUP3 ADD MLOAD PUSH1 0x3 SWAP1 SWAP2 ADD SSTORE PUSH1 0x40 DUP1 MLOAD PUSH1 0xC0 DUP2 ADD DUP3 MSTORE PUSH1 0x9 PUSH1 0x80 DUP3 ADD SWAP1 DUP2 MSTORE PUSH9 0x4669726520446F6A6F PUSH1 0xB8 SHL PUSH1 0xA0 DUP4 ADD MSTORE DUP2 MSTORE PUSH1 0x78 PUSH1 0x20 DUP1 DUP4 ADD SWAP2 SWAP1 SWAP2 MSTORE DUP3 MLOAD DUP1 DUP5 ADD DUP5 MSTORE PUSH1 0x4 DUP2 MSTORE PUSH4 0x46697265 PUSH1 0xE0 SHL DUP2 DUP4 ADD MSTORE SWAP3 DUP3 ADD SWAP3 SWAP1 SWAP3 MSTORE PUSH1 0x5 SWAP3 DUP2 ADD SWAP3 SWAP1 SWAP3 MSTORE PUSH1 0x2 PUSH1 0x0 MSTORE PUSH1 0x6 SWAP1 MSTORE DUP1 MLOAD PUSH32 0x8819EF417987F8AE7A81F42CDFB18815282FE989326FBFF903D13CF0E03ACE29 SWAP1 DUP2 SWAP1 PUSH3 0x496 SWAP1 DUP3 PUSH3 0x75B JUMP JUMPDEST POP PUSH1 0x20 DUP3 ADD MLOAD PUSH1 0x1 DUP3 ADD SSTORE PUSH1 0x40 DUP3 ADD MLOAD PUSH1 0x2 DUP3 ADD SWAP1 PUSH3 0x4B7 SWAP1 DUP3 PUSH3 0x75B JUMP JUMPDEST POP PUSH1 0x60 SWAP2 DUP3 ADD MLOAD PUSH1 0x3 SWAP2 DUP3 ADD SSTORE PUSH1 0x40 DUP1 MLOAD PUSH1 0xC0 DUP2 ADD DUP3 MSTORE PUSH1 0xC PUSH1 0x80 DUP3 ADD SWAP1 DUP2 MSTORE PUSH12 0x57617465722054656D706C65 PUSH1 0xA0 SHL PUSH1 0xA0 DUP4 ADD MSTORE DUP2 MSTORE PUSH1 0x78 PUSH1 0x20 DUP1 DUP4 ADD SWAP2 SWAP1 SWAP2 MSTORE DUP3 MLOAD DUP1 DUP5 ADD DUP5 MSTORE PUSH1 0x5 DUP1 DUP3 MSTORE PUSH5 0x2BB0BA32B9 PUSH1 0xD9 SHL DUP3 DUP5 ADD MSTORE SWAP4 DUP4 ADD MSTORE SWAP4 DUP2 ADD SWAP2 SWAP1 SWAP2 MSTORE PUSH1 0x0 SWAP2 SWAP1 SWAP2 MSTORE PUSH1 0x6 SWAP1 SWAP2 MSTORE DUP1 MLOAD PUSH32 0x75F96AB15D697E93042DC45B5C896C4B27E89BB6EAF39475C5C371CB2513F7D2 SWAP1 DUP2 SWAP1 PUSH3 0x55A SWAP1 DUP3 PUSH3 0x75B JUMP JUMPDEST POP PUSH1 0x20 DUP3 ADD MLOAD PUSH1 0x1 DUP3 ADD SSTORE PUSH1 0x40 DUP3 ADD MLOAD PUSH1 0x2 DUP3 ADD SWAP1 PUSH3 0x57B SWAP1 DUP3 PUSH3 0x75B JUMP JUMPDEST POP PUSH1 0x60 SWAP2 DUP3 ADD MLOAD PUSH1 0x3 SWAP1 SWAP2 ADD SSTORE PUSH1 0x40 DUP1 MLOAD PUSH1 0xC0 DUP2 ADD DUP3 MSTORE PUSH1 0xC PUSH1 0x80 DUP3 ADD SWAP1 DUP2 MSTORE PUSH12 0x23B930B9B99023B0B93232B7 PUSH1 0xA1 SHL PUSH1 0xA0 DUP4 ADD MSTORE DUP2 MSTORE PUSH1 0x78 PUSH1 0x20 DUP1 DUP4 ADD SWAP2 SWAP1 SWAP2 MSTORE DUP3 MLOAD DUP1 DUP5 ADD DUP5 MSTORE PUSH1 0x5 DUP1 DUP3 MSTORE PUSH5 0x4772617373 PUSH1 0xD8 SHL DUP3 DUP5 ADD MSTORE SWAP4 DUP4 ADD MSTORE SWAP3 DUP2 ADD SWAP2 SWAP1 SWAP2 MSTORE PUSH1 0x4 PUSH1 0x0 MSTORE PUSH1 0x6 SWAP1 SWAP2 MSTORE DUP1 MLOAD PUSH32 0xC5069E24AAADB2ADDC3E52E868FCF3F4F8ACF5A87E24300992FD4540C2A87EED SWAP1 DUP2 SWAP1 PUSH3 0x61D SWAP1 DUP3 PUSH3 0x75B JUMP JUMPDEST POP PUSH1 0x20 DUP3 ADD MLOAD PUSH1 0x1 DUP3 ADD SSTORE PUSH1 0x40 DUP3 ADD MLOAD PUSH1 0x2 DUP3 ADD SWAP1 PUSH3 0x63E SWAP1 DUP3 PUSH3 0x75B JUMP JUMPDEST POP PUSH1 0x60 DUP3 ADD MLOAD DUP2 PUSH1 0x3 ADD SSTORE SWAP1 POP POP PUSH3 0x827 JUMP JUMPDEST PUSH1 0x2 PUSH3 0x660 DUP3 DUP3 PUSH3 0x75B JUMP JUMPDEST POP POP JUMP JUMPDEST PUSH1 0x3 DUP1 SLOAD PUSH1 0x1 PUSH1 0x1 PUSH1 0xA0 SHL SUB DUP4 DUP2 AND PUSH1 0x1 PUSH1 0x1 PUSH1 0xA0 SHL SUB NOT DUP4 AND DUP2 OR SWAP1 SWAP4 SSTORE PUSH1 0x40 MLOAD SWAP2 AND SWAP2 SWAP1 DUP3 SWAP1 PUSH32 0x8BE0079C531659141344CD1FD0A4F28419497F9722A3DAAFE3B4186F6B6457E0 SWAP1 PUSH1 0x0 SWAP1 LOG3 POP POP JUMP JUMPDEST PUSH4 0x4E487B71 PUSH1 0xE0 SHL PUSH1 0x0 MSTORE PUSH1 0x41 PUSH1 0x4 MSTORE PUSH1 0x24 PUSH1 0x0 REVERT JUMPDEST PUSH1 0x1 DUP2 DUP2 SHR SWAP1 DUP3 AND DUP1 PUSH3 0x6E1 JUMPI PUSH1 0x7F DUP3 AND SWAP2 POP JUMPDEST PUSH1 0x20 DUP3 LT DUP2 SUB PUSH3 0x702 JUMPI PUSH4 0x4E487B71 PUSH1 0xE0 SHL PUSH1 0x0 MSTORE PUSH1 0x22 PUSH1 0x4 MSTORE PUSH1 0x24 PUSH1 0x0 REVERT JUMPDEST POP SWAP2 SWAP1 POP JUMP JUMPDEST PUSH1 0x1F DUP3 GT ISZERO PUSH3 0x756 JUMPI PUSH1 0x0 DUP2 DUP2 MSTORE PUSH1 0x20 DUP2 KECCAK256 PUSH1 0x1F DUP6 ADD PUSH1 0x5 SHR DUP2 ADD PUSH1 0x20 DUP7 LT ISZERO PUSH3 0x731 JUMPI POP DUP1 JUMPDEST PUSH1 0x1F DUP6 ADD PUSH1 0x5 SHR DUP3 ADD SWAP2 POP JUMPDEST DUP2 DUP2 LT ISZERO PUSH3 0x752 JUMPI DUP3 DUP2 SSTORE PUSH1 0x1 ADD PUSH3 0x73D JUMP JUMPDEST POP POP POP JUMPDEST POP POP POP JUMP JUMPDEST DUP2 MLOAD PUSH1 0x1 PUSH1 0x1 PUSH1 0x40 SHL SUB DUP2 GT ISZERO PUSH3 0x777 JUMPI PUSH3 0x777 PUSH3 0x6B6 JUMP JUMPDEST PUSH3 0x78F DUP2 PUSH3 0x788 DUP5 SLOAD PUSH3 0x6CC JUMP JUMPDEST DUP5 PUSH3 0x708 JUMP JUMPDEST PUSH1 0x20 DUP1 PUSH1 0x1F DUP4 GT PUSH1 0x1 DUP2 EQ PUSH3 0x7C7 JUMPI PUSH1 0x0 DUP5 ISZERO PUSH3 0x7AE JUMPI POP DUP6 DUP4 ADD MLOAD JUMPDEST PUSH1 0x0 NOT PUSH1 0x3 DUP7 SWAP1 SHL SHR NOT AND PUSH1 0x1 DUP6 SWAP1 SHL OR DUP6 SSTORE PUSH3 0x752 JUMP JUMPDEST PUSH1 0x0 DUP6 DUP2 MSTORE PUSH1 0x20 DUP2 KECCAK256 PUSH1 0x1F NOT DUP7 AND SWAP2 JUMPDEST DUP3 DUP2 LT ISZERO PUSH3 0x7F8 JUMPI DUP9 DUP7 ADD MLOAD DUP3 SSTORE SWAP5 DUP5 ADD SWAP5 PUSH1 0x1 SWAP1 SWAP2 ADD SWAP1 DUP5 ADD PUSH3 0x7D7 JUMP JUMPDEST POP DUP6 DUP3 LT ISZERO PUSH3 0x817 JUMPI DUP8 DUP6 ADD MLOAD PUSH1 0x0 NOT PUSH1 0x3 DUP9 SWAP1 SHL PUSH1 0xF8 AND SHR NOT AND DUP2 SSTORE JUMPDEST POP POP POP POP POP PUSH1 0x1 SWAP1 DUP2 SHL ADD SWAP1 SSTORE POP JUMP JUMPDEST PUSH2 0x2990 DUP1 PUSH3 0x837 PUSH1 0x0 CODECOPY PUSH1 0x0 RETURN INVALID PUSH1 0x80 PUSH1 0x40 MSTORE CALLVALUE DUP1 ISZERO PUSH2 0x10 JUMPI PUSH1 0x0 DUP1 REVERT JUMPDEST POP PUSH1 0x4 CALLDATASIZE LT PUSH2 0x1EF JUMPI PUSH1 0x0 CALLDATALOAD PUSH1 0xE0 SHR DUP1 PUSH4 0x715018A6 GT PUSH2 0x10F JUMPI DUP1 PUSH4 0xC1B2C1AE GT PUSH2 0xA2 JUMPI DUP1 PUSH4 0xF17F767A GT PUSH2 0x71 JUMPI DUP1 PUSH4 0xF17F767A EQ PUSH2 0x361 JUMPI DUP1 PUSH4 0xF242432A EQ PUSH2 0x436 JUMPI DUP1 PUSH4 0xF2FDE38B EQ PUSH2 0x449 JUMPI DUP1 PUSH4 0xFB1224E5 EQ PUSH2 0x45C JUMPI PUSH1 0x0 DUP1 REVERT JUMPDEST DUP1 PUSH4 0xC1B2C1AE EQ PUSH2 0x3C8 JUMPI DUP1 PUSH4 0xDE23CFCA EQ PUSH2 0x3ED JUMPI DUP1 PUSH4 0xE47248DC EQ PUSH2 0x410 JUMPI DUP1 PUSH4 0xE985E9C5 EQ PUSH2 0x423 JUMPI PUSH1 0x0 DUP1 REVERT JUMPDEST DUP1 PUSH4 0x8DA5CB5B GT PUSH2 0xDE JUMPI DUP1 PUSH4 0x8DA5CB5B EQ PUSH2 0x394 JUMPI DUP1 PUSH4 0xA22CB465 EQ PUSH2 0x3A5 JUMPI DUP1 PUSH4 0xB8708C42 EQ PUSH2 0x3B8 JUMPI DUP1 PUSH4 0xBE6C5B7E EQ PUSH2 0x3C0 JUMPI PUSH1 0x0 DUP1 REVERT JUMPDEST DUP1 PUSH4 0x715018A6 EQ PUSH2 0x346 JUMPI DUP1 PUSH4 0x7506BF69 EQ PUSH2 0x34E JUMPI DUP1 PUSH4 0x76A939E7 EQ PUSH2 0x361 JUMPI DUP1 PUSH4 0x80952547 EQ PUSH2 0x369 JUMPI PUSH1 0x0 DUP1 REVERT JUMPDEST DUP1 PUSH4 0x2EB2C2D6 GT PUSH2 0x187 JUMPI DUP1 PUSH4 0x55F804B3 GT PUSH2 0x156 JUMPI DUP1 PUSH4 0x55F804B3 EQ PUSH2 0x305 JUMPI DUP1 PUSH4 0x5EADE546 EQ PUSH2 0x318 JUMPI DUP1 PUSH4 0x62EBE57E EQ PUSH2 0x32B JUMPI DUP1 PUSH4 0x6AF783EA EQ PUSH2 0x33E JUMPI PUSH1 0x0 DUP1 REVERT JUMPDEST DUP1 PUSH4 0x2EB2C2D6 EQ PUSH2 0x2AA JUMPI DUP1 PUSH4 0x3F758568 EQ PUSH2 0x2BD JUMPI DUP1 PUSH4 0x4E1273F4 EQ PUSH2 0x2C5 JUMPI DUP1 PUSH4 0x4F13B164 EQ PUSH2 0x2E5 JUMPI PUSH1 0x0 DUP1 REVERT JUMPDEST DUP1 PUSH4 0xFCCC072 GT PUSH2 0x1C3 JUMPI DUP1 PUSH4 0xFCCC072 EQ PUSH2 0x265 JUMPI DUP1 PUSH4 0x154AA2A8 EQ PUSH2 0x26D JUMPI DUP1 PUSH4 0x2273C74E EQ PUSH2 0x282 JUMPI DUP1 PUSH4 0x2C17A522 EQ PUSH2 0x2A2 JUMPI PUSH1 0x0 DUP1 REVERT JUMPDEST DUP1 PUSH3 0xFDD58E EQ PUSH2 0x1F4 JUMPI DUP1 PUSH4 0x1FFC9A7 EQ PUSH2 0x21A JUMPI DUP1 PUSH4 0xE89341C EQ PUSH2 0x23D JUMPI DUP1 PUSH4 0xF8EA1C2 EQ PUSH2 0x25D JUMPI JUMPDEST PUSH1 0x0 DUP1 REVERT JUMPDEST PUSH2 0x207 PUSH2 0x202 CALLDATASIZE PUSH1 0x4 PUSH2 0x1EFF JUMP JUMPDEST PUSH2 0x47F JUMP JUMPDEST PUSH1 0x40 MLOAD SWAP1 DUP2 MSTORE PUSH1 0x20 ADD JUMPDEST PUSH1 0x40 MLOAD DUP1 SWAP2 SUB SWAP1 RETURN JUMPDEST PUSH2 0x22D PUSH2 0x228 CALLDATASIZE PUSH1 0x4 PUSH2 0x1F3F JUMP JUMPDEST PUSH2 0x4A7 JUMP JUMPDEST PUSH1 0x40 MLOAD SWAP1 ISZERO ISZERO DUP2 MSTORE PUSH1 0x20 ADD PUSH2 0x211 JUMP JUMPDEST PUSH2 0x250 PUSH2 0x24B CALLDATASIZE PUSH1 0x4 PUSH2 0x1F63 JUMP JUMPDEST PUSH2 0x4F7 JUMP JUMPDEST PUSH1 0x40 MLOAD PUSH2 0x211 SWAP2 SWAP1 PUSH2 0x1FCC JUMP JUMPDEST PUSH2 0x207 PUSH1 0x96 DUP2 JUMP JUMPDEST PUSH2 0x207 PUSH1 0x3C DUP2 JUMP JUMPDEST PUSH2 0x280 PUSH2 0x27B CALLDATASIZE PUSH1 0x4 PUSH2 0x1FDF JUMP JUMPDEST PUSH2 0x52B JUMP JUMPDEST STOP JUMPDEST PUSH2 0x295 PUSH2 0x290 CALLDATASIZE PUSH1 0x4 PUSH2 0x1F63 JUMP JUMPDEST PUSH2 0x854 JUMP JUMPDEST PUSH1 0x40 MLOAD PUSH2 0x211 SWAP2 SWAP1 PUSH2 0x2001 JUMP JUMPDEST PUSH2 0x207 PUSH1 0x4 DUP2 JUMP JUMPDEST PUSH2 0x280 PUSH2 0x2B8 CALLDATASIZE PUSH1 0x4 PUSH2 0x21BF JUMP JUMPDEST PUSH2 0x9FF JUMP JUMPDEST PUSH2 0x207 PUSH1 0xA DUP2 JUMP JUMPDEST PUSH2 0x2D8 PUSH2 0x2D3 CALLDATASIZE PUSH1 0x4 PUSH2 0x2269 JUMP JUMPDEST PUSH2 0xA66 JUMP JUMPDEST PUSH1 0x40 MLOAD PUSH2 0x211 SWAP2 SWAP1 PUSH2 0x2364 JUMP JUMPDEST PUSH2 0x2F8 PUSH2 0x2F3 CALLDATASIZE PUSH1 0x4 PUSH2 0x1F63 JUMP JUMPDEST PUSH2 0xB3B JUMP JUMPDEST PUSH1 0x40 MLOAD PUSH2 0x211 SWAP2 SWAP1 PUSH2 0x2377 JUMP JUMPDEST PUSH2 0x280 PUSH2 0x313 CALLDATASIZE PUSH1 0x4 PUSH2 0x23D1 JUMP JUMPDEST PUSH2 0xCBD JUMP JUMPDEST PUSH2 0x207 PUSH2 0x326 CALLDATASIZE PUSH1 0x4 PUSH2 0x1FDF JUMP JUMPDEST PUSH2 0xCD5 JUMP JUMPDEST PUSH2 0x280 PUSH2 0x339 CALLDATASIZE PUSH1 0x4 PUSH2 0x2422 JUMP JUMPDEST PUSH2 0xEFC JUMP JUMPDEST PUSH2 0x207 PUSH1 0x3 DUP2 JUMP JUMPDEST PUSH2 0x280 PUSH2 0xF26 JUMP JUMPDEST PUSH2 0x280 PUSH2 0x35C CALLDATASIZE PUSH1 0x4 PUSH2 0x1FDF JUMP JUMPDEST PUSH2 0xF3A JUMP JUMPDEST PUSH2 0x207 PUSH1 0x1 DUP2 JUMP JUMPDEST PUSH1 0x8 SLOAD PUSH2 0x37C SWAP1 PUSH1 0x1 PUSH1 0x1 PUSH1 0xA0 SHL SUB AND DUP2 JUMP JUMPDEST PUSH1 0x40 MLOAD PUSH1 0x1 PUSH1 0x1 PUSH1 0xA0 SHL SUB SWAP1 SWAP2 AND DUP2 MSTORE PUSH1 0x20 ADD PUSH2 0x211 JUMP JUMPDEST PUSH1 0x3 SLOAD PUSH1 0x1 PUSH1 0x1 PUSH1 0xA0 SHL SUB AND PUSH2 0x37C JUMP JUMPDEST PUSH2 0x280 PUSH2 0x3B3 CALLDATASIZE PUSH1 0x4 PUSH2 0x244B JUMP JUMPDEST PUSH2 0x11E8 JUMP JUMPDEST PUSH2 0x207 PUSH1 0x2 DUP2 JUMP JUMPDEST PUSH2 0x207 PUSH1 0x5 DUP2 JUMP JUMPDEST PUSH2 0x3DB PUSH2 0x3D6 CALLDATASIZE PUSH1 0x4 PUSH2 0x1F63 JUMP JUMPDEST PUSH2 0x11F3 JUMP JUMPDEST PUSH1 0x40 MLOAD PUSH2 0x211 SWAP7 SWAP6 SWAP5 SWAP4 SWAP3 SWAP2 SWAP1 PUSH2 0x2482 JUMP JUMPDEST PUSH2 0x22D PUSH2 0x3FB CALLDATASIZE PUSH1 0x4 PUSH2 0x2422 JUMP JUMPDEST PUSH1 0x5 PUSH1 0x20 MSTORE PUSH1 0x0 SWAP1 DUP2 MSTORE PUSH1 0x40 SWAP1 KECCAK256 SLOAD PUSH1 0xFF AND DUP2 JUMP JUMPDEST PUSH2 0x280 PUSH2 0x41E CALLDATASIZE PUSH1 0x4 PUSH2 0x1F63 JUMP JUMPDEST PUSH2 0x133B JUMP JUMPDEST PUSH2 0x22D PUSH2 0x431 CALLDATASIZE PUSH1 0x4 PUSH2 0x24CF JUMP JUMPDEST PUSH2 0x1498 JUMP JUMPDEST PUSH2 0x280 PUSH2 0x444 CALLDATASIZE PUSH1 0x4 PUSH2 0x2502 JUMP JUMPDEST PUSH2 0x14C6 JUMP JUMPDEST PUSH2 0x280 PUSH2 0x457 CALLDATASIZE PUSH1 0x4 PUSH2 0x2422 JUMP JUMPDEST PUSH2 0x1525 JUMP JUMPDEST PUSH2 0x46F PUSH2 0x46A CALLDATASIZE PUSH1 0x4 PUSH2 0x1F63 JUMP JUMPDEST PUSH2 0x1563 JUMP JUMPDEST PUSH1 0x40 MLOAD PUSH2 0x211 SWAP5 SWAP4 SWAP3 SWAP2 SWAP1 PUSH2 0x2567 JUMP JUMPDEST PUSH1 0x0 DUP2 DUP2 MSTORE PUSH1 0x20 DUP2 DUP2 MSTORE PUSH1 0x40 DUP1 DUP4 KECCAK256 PUSH1 0x1 PUSH1 0x1 PUSH1 0xA0 SHL SUB DUP7 AND DUP5 MSTORE SWAP1 SWAP2 MSTORE SWAP1 KECCAK256 SLOAD JUMPDEST SWAP3 SWAP2 POP POP JUMP JUMPDEST PUSH1 0x0 PUSH1 0x1 PUSH1 0x1 PUSH1 0xE0 SHL SUB NOT DUP3 AND PUSH4 0x6CDB3D13 PUSH1 0xE1 SHL EQ DUP1 PUSH2 0x4D8 JUMPI POP PUSH1 0x1 PUSH1 0x1 PUSH1 0xE0 SHL SUB NOT DUP3 AND PUSH4 0x3A24D07 PUSH1 0xE2 SHL EQ JUMPDEST DUP1 PUSH2 0x4A1 JUMPI POP PUSH4 0x1FFC9A7 PUSH1 0xE0 SHL PUSH1 0x1 PUSH1 0x1 PUSH1 0xE0 SHL SUB NOT DUP4 AND EQ PUSH2 0x4A1 JUMP JUMPDEST PUSH1 0x60 PUSH1 0x7 PUSH2 0x504 DUP4 PUSH2 0x169B JUMP JUMPDEST PUSH1 0x40 MLOAD PUSH1 0x20 ADD PUSH2 0x515 SWAP3 SWAP2 SWAP1 PUSH2 0x2651 JUMP JUMPDEST PUSH1 0x40 MLOAD PUSH1 0x20 DUP2 DUP4 SUB SUB DUP2 MSTORE SWAP1 PUSH1 0x40 MSTORE SWAP1 POP SWAP2 SWAP1 POP JUMP JUMPDEST PUSH1 0x0 PUSH2 0x537 CALLER DUP5 PUSH2 0x47F JUMP JUMPDEST GT PUSH2 0x57C JUMPI PUSH1 0x40 MLOAD PUSH3 0x461BCD PUSH1 0xE5 SHL DUP2 MSTORE PUSH1 0x20 PUSH1 0x4 DUP3 ADD MSTORE PUSH1 0x10 PUSH1 0x24 DUP3 ADD MSTORE PUSH16 0x2737BA103CB7BAB9102837B5B2B6B7B7 PUSH1 0x81 SHL PUSH1 0x44 DUP3 ADD MSTORE PUSH1 0x64 ADD JUMPDEST PUSH1 0x40 MLOAD DUP1 SWAP2 SUB SWAP1 REVERT JUMPDEST PUSH1 0x0 DUP3 DUP2 MSTORE PUSH1 0x4 PUSH1 0x20 MSTORE PUSH1 0x40 SWAP1 KECCAK256 PUSH1 0x5 ADD SLOAD PUSH1 0xFF AND ISZERO PUSH2 0x5D1 JUMPI PUSH1 0x40 MLOAD PUSH3 0x461BCD PUSH1 0xE5 SHL DUP2 MSTORE PUSH1 0x20 PUSH1 0x4 DUP3 ADD MSTORE PUSH1 0x10 PUSH1 0x24 DUP3 ADD MSTORE PUSH16 0x416C726561647920747261696E696E67 PUSH1 0x80 SHL PUSH1 0x44 DUP3 ADD MSTORE PUSH1 0x64 ADD PUSH2 0x573 JUMP JUMPDEST PUSH1 0x0 DUP2 DUP2 MSTORE PUSH1 0x6 PUSH1 0x20 SWAP1 DUP2 MSTORE PUSH1 0x40 DUP1 DUP4 KECCAK256 PUSH1 0x3 ADD SLOAD DUP6 DUP5 MSTORE PUSH1 0x4 SWAP1 SWAP3 MSTORE SWAP1 SWAP2 KECCAK256 PUSH1 0x2 ADD SLOAD LT ISZERO PUSH2 0x633 JUMPI PUSH1 0x40 MLOAD PUSH3 0x461BCD PUSH1 0xE5 SHL DUP2 MSTORE PUSH1 0x20 PUSH1 0x4 DUP3 ADD MSTORE PUSH1 0xD PUSH1 0x24 DUP3 ADD MSTORE PUSH13 0x4C6576656C20746F6F206C6F77 PUSH1 0x98 SHL PUSH1 0x44 DUP3 ADD MSTORE PUSH1 0x64 ADD PUSH2 0x573 JUMP JUMPDEST PUSH1 0x0 PUSH1 0x1 DUP3 EQ PUSH2 0x644 JUMPI PUSH1 0xA PUSH2 0x647 JUMP JUMPDEST PUSH1 0x5 JUMPDEST PUSH1 0x8 SLOAD PUSH1 0x40 MLOAD PUSH4 0x70A08231 PUSH1 0xE0 SHL DUP2 MSTORE CALLER PUSH1 0x4 DUP3 ADD MSTORE SWAP2 SWAP3 POP DUP3 SWAP2 PUSH1 0x1 PUSH1 0x1 PUSH1 0xA0 SHL SUB SWAP1 SWAP2 AND SWAP1 PUSH4 0x70A08231 SWAP1 PUSH1 0x24 ADD PUSH1 0x20 PUSH1 0x40 MLOAD DUP1 DUP4 SUB DUP2 DUP7 GAS STATICCALL ISZERO DUP1 ISZERO PUSH2 0x694 JUMPI RETURNDATASIZE PUSH1 0x0 DUP1 RETURNDATACOPY RETURNDATASIZE PUSH1 0x0 REVERT JUMPDEST POP POP POP POP PUSH1 0x40 MLOAD RETURNDATASIZE PUSH1 0x1F NOT PUSH1 0x1F DUP3 ADD AND DUP3 ADD DUP1 PUSH1 0x40 MSTORE POP DUP2 ADD SWAP1 PUSH2 0x6B8 SWAP2 SWAP1 PUSH2 0x2686 JUMP JUMPDEST LT ISZERO PUSH2 0x6FF JUMPI PUSH1 0x40 MLOAD PUSH3 0x461BCD PUSH1 0xE5 SHL DUP2 MSTORE PUSH1 0x20 PUSH1 0x4 DUP3 ADD MSTORE PUSH1 0x16 PUSH1 0x24 DUP3 ADD MSTORE PUSH22 0x496E73756666696369656E7420506F6B65436F696E73 PUSH1 0x50 SHL PUSH1 0x44 DUP3 ADD MSTORE PUSH1 0x64 ADD PUSH2 0x573 JUMP JUMPDEST PUSH1 0x8 SLOAD PUSH1 0x1 PUSH1 0x1 PUSH1 0xA0 SHL SUB AND PUSH4 0x23B872DD CALLER ADDRESS PUSH2 0x724 DUP6 PUSH8 0xDE0B6B3A7640000 PUSH2 0x26B5 JUMP JUMPDEST PUSH1 0x40 MLOAD PUSH1 0x1 PUSH1 0x1 PUSH1 0xE0 SHL SUB NOT PUSH1 0xE0 DUP7 SWAP1 SHL AND DUP2 MSTORE PUSH1 0x1 PUSH1 0x1 PUSH1 0xA0 SHL SUB SWAP4 DUP5 AND PUSH1 0x4 DUP3 ADD MSTORE SWAP3 SWAP1 SWAP2 AND PUSH1 0x24 DUP4 ADD MSTORE PUSH1 0x44 DUP3 ADD MSTORE PUSH1 0x64 ADD PUSH1 0x20 PUSH1 0x40 MLOAD DUP1 DUP4 SUB DUP2 PUSH1 0x0 DUP8 GAS CALL ISZERO DUP1 ISZERO PUSH2 0x778 JUMPI RETURNDATASIZE PUSH1 0x0 DUP1 RETURNDATACOPY RETURNDATASIZE PUSH1 0x0 REVERT JUMPDEST POP POP POP POP PUSH1 0x40 MLOAD RETURNDATASIZE PUSH1 0x1F NOT PUSH1 0x1F DUP3 ADD AND DUP3 ADD DUP1 PUSH1 0x40 MSTORE POP DUP2 ADD SWAP1 PUSH2 0x79C SWAP2 SWAP1 PUSH2 0x26CC JUMP JUMPDEST PUSH2 0x7E8 JUMPI PUSH1 0x40 MLOAD PUSH3 0x461BCD PUSH1 0xE5 SHL DUP2 MSTORE PUSH1 0x20 PUSH1 0x4 DUP3 ADD MSTORE PUSH1 0x18 PUSH1 0x24 DUP3 ADD MSTORE PUSH32 0x506F6B65436F696E207472616E73666572206661696C65640000000000000000 PUSH1 0x44 DUP3 ADD MSTORE PUSH1 0x64 ADD PUSH2 0x573 JUMP JUMPDEST PUSH1 0x0 DUP4 DUP2 MSTORE PUSH1 0x4 PUSH1 0x20 DUP2 SWAP1 MSTORE PUSH1 0x40 SWAP2 DUP3 SWAP1 KECCAK256 PUSH1 0x5 DUP2 ADD DUP1 SLOAD PUSH1 0xFF NOT AND PUSH1 0x1 OR SWAP1 SSTORE TIMESTAMP SWAP2 ADD DUP2 SWAP1 SSTORE SWAP1 MLOAD DUP5 SWAP2 PUSH32 0x1EC33602AFEF38DD401D03630F0A99444FAE8D2CCA4F187B3368262DC152DF80 SWAP2 PUSH2 0x847 SWAP2 DUP7 DUP3 MSTORE PUSH1 0x20 DUP3 ADD MSTORE PUSH1 0x40 ADD SWAP1 JUMP JUMPDEST PUSH1 0x40 MLOAD DUP1 SWAP2 SUB SWAP1 LOG2 POP POP POP JUMP JUMPDEST PUSH2 0x88F PUSH1 0x40 MLOAD DUP1 PUSH1 0xC0 ADD PUSH1 0x40 MSTORE DUP1 PUSH1 0x60 DUP2 MSTORE PUSH1 0x20 ADD PUSH1 0x60 DUP2 MSTORE PUSH1 0x20 ADD PUSH1 0x0 DUP2 MSTORE PUSH1 0x20 ADD PUSH1 0x0 DUP2 MSTORE PUSH1 0x20 ADD PUSH1 0x0 DUP2 MSTORE PUSH1 0x20 ADD PUSH1 0x0 ISZERO ISZERO DUP2 MSTORE POP SWAP1 JUMP JUMPDEST PUSH1 0x0 DUP3 DUP2 MSTORE PUSH1 0x4 PUSH1 0x20 MSTORE PUSH1 0x40 SWAP1 DUP2 SWAP1 KECCAK256 DUP2 MLOAD PUSH1 0xC0 DUP2 ADD SWAP1 SWAP3 MSTORE DUP1 SLOAD DUP3 SWAP1 DUP3 SWAP1 PUSH2 0x8B7 SWAP1 PUSH2 0x25A4 JUMP JUMPDEST DUP1 PUSH1 0x1F ADD PUSH1 0x20 DUP1 SWAP2 DIV MUL PUSH1 0x20 ADD PUSH1 0x40 MLOAD SWAP1 DUP2 ADD PUSH1 0x40 MSTORE DUP1 SWAP3 SWAP2 SWAP1 DUP2 DUP2 MSTORE PUSH1 0x20 ADD DUP3 DUP1 SLOAD PUSH2 0x8E3 SWAP1 PUSH2 0x25A4 JUMP JUMPDEST DUP1 ISZERO PUSH2 0x930 JUMPI DUP1 PUSH1 0x1F LT PUSH2 0x905 JUMPI PUSH2 0x100 DUP1 DUP4 SLOAD DIV MUL DUP4 MSTORE SWAP2 PUSH1 0x20 ADD SWAP2 PUSH2 0x930 JUMP JUMPDEST DUP3 ADD SWAP2 SWAP1 PUSH1 0x0 MSTORE PUSH1 0x20 PUSH1 0x0 KECCAK256 SWAP1 JUMPDEST DUP2 SLOAD DUP2 MSTORE SWAP1 PUSH1 0x1 ADD SWAP1 PUSH1 0x20 ADD DUP1 DUP4 GT PUSH2 0x913 JUMPI DUP3 SWAP1 SUB PUSH1 0x1F AND DUP3 ADD SWAP2 JUMPDEST POP POP POP POP POP DUP2 MSTORE PUSH1 0x20 ADD PUSH1 0x1 DUP3 ADD DUP1 SLOAD PUSH2 0x949 SWAP1 PUSH2 0x25A4 JUMP JUMPDEST DUP1 PUSH1 0x1F ADD PUSH1 0x20 DUP1 SWAP2 DIV MUL PUSH1 0x20 ADD PUSH1 0x40 MLOAD SWAP1 DUP2 ADD PUSH1 0x40 MSTORE DUP1 SWAP3 SWAP2 SWAP1 DUP2 DUP2 MSTORE PUSH1 0x20 ADD DUP3 DUP1 SLOAD PUSH2 0x975 SWAP1 PUSH2 0x25A4 JUMP JUMPDEST DUP1 ISZERO PUSH2 0x9C2 JUMPI DUP1 PUSH1 0x1F LT PUSH2 0x997 JUMPI PUSH2 0x100 DUP1 DUP4 SLOAD DIV MUL DUP4 MSTORE SWAP2 PUSH1 0x20 ADD SWAP2 PUSH2 0x9C2 JUMP JUMPDEST DUP3 ADD SWAP2 SWAP1 PUSH1 0x0 MSTORE PUSH1 0x20 PUSH1 0x0 KECCAK256 SWAP1 JUMPDEST DUP2 SLOAD DUP2 MSTORE SWAP1 PUSH1 0x1 ADD SWAP1 PUSH1 0x20 ADD DUP1 DUP4 GT PUSH2 0x9A5 JUMPI DUP3 SWAP1 SUB PUSH1 0x1F AND DUP3 ADD SWAP2 JUMPDEST POP POP POP SWAP2 DUP4 MSTORE POP POP PUSH1 0x2 DUP3 ADD SLOAD PUSH1 0x20 DUP3 ADD MSTORE PUSH1 0x3 DUP3 ADD SLOAD PUSH1 0x40 DUP3 ADD MSTORE PUSH1 0x4 DUP3 ADD SLOAD PUSH1 0x60 DUP3 ADD MSTORE PUSH1 0x5 SWAP1 SWAP2 ADD SLOAD PUSH1 0xFF AND ISZERO ISZERO PUSH1 0x80 SWAP1 SWAP2 ADD MSTORE SWAP3 SWAP2 POP POP JUMP JUMPDEST CALLER PUSH1 0x1 PUSH1 0x1 PUSH1 0xA0 SHL SUB DUP7 AND DUP2 EQ DUP1 ISZERO SWAP1 PUSH2 0xA20 JUMPI POP PUSH2 0xA1E DUP7 DUP3 PUSH2 0x1498 JUMP JUMPDEST ISZERO JUMPDEST ISZERO PUSH2 0xA51 JUMPI PUSH1 0x40 MLOAD PUSH4 0x711BEC91 PUSH1 0xE1 SHL DUP2 MSTORE PUSH1 0x1 PUSH1 0x1 PUSH1 0xA0 SHL SUB DUP1 DUP4 AND PUSH1 0x4 DUP4 ADD MSTORE DUP8 AND PUSH1 0x24 DUP3 ADD MSTORE PUSH1 0x44 ADD PUSH2 0x573 JUMP JUMPDEST PUSH2 0xA5E DUP7 DUP7 DUP7 DUP7 DUP7 PUSH2 0x172E JUMP JUMPDEST POP POP POP POP POP POP JUMP JUMPDEST PUSH1 0x60 DUP2 MLOAD DUP4 MLOAD EQ PUSH2 0xA97 JUMPI DUP2 MLOAD DUP4 MLOAD PUSH1 0x40 MLOAD PUSH4 0x5B059991 PUSH1 0xE0 SHL DUP2 MSTORE PUSH1 0x4 DUP2 ADD SWAP3 SWAP1 SWAP3 MSTORE PUSH1 0x24 DUP3 ADD MSTORE PUSH1 0x44 ADD PUSH2 0x573 JUMP JUMPDEST PUSH1 0x0 DUP4 MLOAD PUSH8 0xFFFFFFFFFFFFFFFF DUP2 GT ISZERO PUSH2 0xAB3 JUMPI PUSH2 0xAB3 PUSH2 0x2071 JUMP JUMPDEST PUSH1 0x40 MLOAD SWAP1 DUP1 DUP3 MSTORE DUP1 PUSH1 0x20 MUL PUSH1 0x20 ADD DUP3 ADD PUSH1 0x40 MSTORE DUP1 ISZERO PUSH2 0xADC JUMPI DUP2 PUSH1 0x20 ADD PUSH1 0x20 DUP3 MUL DUP1 CALLDATASIZE DUP4 CALLDATACOPY ADD SWAP1 POP JUMPDEST POP SWAP1 POP PUSH1 0x0 JUMPDEST DUP5 MLOAD DUP2 LT ISZERO PUSH2 0xB33 JUMPI PUSH1 0x20 DUP1 DUP3 MUL DUP7 ADD ADD MLOAD PUSH2 0xB06 SWAP1 PUSH1 0x20 DUP1 DUP5 MUL DUP8 ADD ADD MLOAD PUSH2 0x47F JUMP JUMPDEST DUP3 DUP3 DUP2 MLOAD DUP2 LT PUSH2 0xB18 JUMPI PUSH2 0xB18 PUSH2 0x26E9 JUMP JUMPDEST PUSH1 0x20 SWAP1 DUP2 MUL SWAP2 SWAP1 SWAP2 ADD ADD MSTORE PUSH2 0xB2C DUP2 PUSH2 0x26FF JUMP JUMPDEST SWAP1 POP PUSH2 0xAE2 JUMP JUMPDEST POP SWAP4 SWAP3 POP POP POP JUMP JUMPDEST PUSH2 0xB66 PUSH1 0x40 MLOAD DUP1 PUSH1 0x80 ADD PUSH1 0x40 MSTORE DUP1 PUSH1 0x60 DUP2 MSTORE PUSH1 0x20 ADD PUSH1 0x0 DUP2 MSTORE PUSH1 0x20 ADD PUSH1 0x60 DUP2 MSTORE PUSH1 0x20 ADD PUSH1 0x0 DUP2 MSTORE POP SWAP1 JUMP JUMPDEST PUSH1 0x0 DUP3 DUP2 MSTORE PUSH1 0x6 PUSH1 0x20 MSTORE PUSH1 0x40 SWAP1 DUP2 SWAP1 KECCAK256 DUP2 MLOAD PUSH1 0x80 DUP2 ADD SWAP1 SWAP3 MSTORE DUP1 SLOAD DUP3 SWAP1 DUP3 SWAP1 PUSH2 0xB8E SWAP1 PUSH2 0x25A4 JUMP JUMPDEST DUP1 PUSH1 0x1F ADD PUSH1 0x20 DUP1 SWAP2 DIV MUL PUSH1 0x20 ADD PUSH1 0x40 MLOAD SWAP1 DUP2 ADD PUSH1 0x40 MSTORE DUP1 SWAP3 SWAP2 SWAP1 DUP2 DUP2 MSTORE PUSH1 0x20 ADD DUP3 DUP1 SLOAD PUSH2 0xBBA SWAP1 PUSH2 0x25A4 JUMP JUMPDEST DUP1 ISZERO PUSH2 0xC07 JUMPI DUP1 PUSH1 0x1F LT PUSH2 0xBDC JUMPI PUSH2 0x100 DUP1 DUP4 SLOAD DIV MUL DUP4 MSTORE SWAP2 PUSH1 0x20 ADD SWAP2 PUSH2 0xC07 JUMP JUMPDEST DUP3 ADD SWAP2 SWAP1 PUSH1 0x0 MSTORE PUSH1 0x20 PUSH1 0x0 KECCAK256 SWAP1 JUMPDEST DUP2 SLOAD DUP2 MSTORE SWAP1 PUSH1 0x1 ADD SWAP1 PUSH1 0x20 ADD DUP1 DUP4 GT PUSH2 0xBEA JUMPI DUP3 SWAP1 SUB PUSH1 0x1F AND DUP3 ADD SWAP2 JUMPDEST POP POP POP POP POP DUP2 MSTORE PUSH1 0x20 ADD PUSH1 0x1 DUP3 ADD SLOAD DUP2 MSTORE PUSH1 0x20 ADD PUSH1 0x2 DUP3 ADD DUP1 SLOAD PUSH2 0xC2A SWAP1 PUSH2 0x25A4 JUMP JUMPDEST DUP1 PUSH1 0x1F ADD PUSH1 0x20 DUP1 SWAP2 DIV MUL PUSH1 0x20 ADD PUSH1 0x40 MLOAD SWAP1 DUP2 ADD PUSH1 0x40 MSTORE DUP1 SWAP3 SWAP2 SWAP1 DUP2 DUP2 MSTORE PUSH1 0x20 ADD DUP3 DUP1 SLOAD PUSH2 0xC56 SWAP1 PUSH2 0x25A4 JUMP JUMPDEST DUP1 ISZERO PUSH2 0xCA3 JUMPI DUP1 PUSH1 0x1F LT PUSH2 0xC78 JUMPI PUSH2 0x100 DUP1 DUP4 SLOAD DIV MUL DUP4 MSTORE SWAP2 PUSH1 0x20 ADD SWAP2 PUSH2 0xCA3 JUMP JUMPDEST DUP3 ADD SWAP2 SWAP1 PUSH1 0x0 MSTORE PUSH1 0x20 PUSH1 0x0 KECCAK256 SWAP1 JUMPDEST DUP2 SLOAD DUP2 MSTORE SWAP1 PUSH1 0x1 ADD SWAP1 PUSH1 0x20 ADD DUP1 DUP4 GT PUSH2 0xC86 JUMPI DUP3 SWAP1 SUB PUSH1 0x1F AND DUP3 ADD SWAP2 JUMPDEST POP POP POP POP POP DUP2 MSTORE PUSH1 0x20 ADD PUSH1 0x3 DUP3 ADD SLOAD DUP2 MSTORE POP POP SWAP1 POP SWAP2 SWAP1 POP JUMP JUMPDEST PUSH2 0xCC5 PUSH2 0x178E JUMP JUMPDEST PUSH1 0x7 PUSH2 0xCD1 DUP3 DUP3 PUSH2 0x2763 JUMP JUMPDEST POP POP JUMP JUMPDEST PUSH1 0x0 DUP3 DUP2 MSTORE PUSH1 0x4 PUSH1 0x20 MSTORE PUSH1 0x40 DUP1 DUP3 KECCAK256 DUP2 MLOAD PUSH1 0xC0 DUP2 ADD SWAP1 SWAP3 MSTORE DUP1 SLOAD DUP4 SWAP3 SWAP2 SWAP1 DUP3 SWAP1 DUP3 SWAP1 PUSH2 0xD00 SWAP1 PUSH2 0x25A4 JUMP JUMPDEST DUP1 PUSH1 0x1F ADD PUSH1 0x20 DUP1 SWAP2 DIV MUL PUSH1 0x20 ADD PUSH1 0x40 MLOAD SWAP1 DUP2 ADD PUSH1 0x40 MSTORE DUP1 SWAP3 SWAP2 SWAP1 DUP2 DUP2 MSTORE PUSH1 0x20 ADD DUP3 DUP1 SLOAD PUSH2 0xD2C SWAP1 PUSH2 0x25A4 JUMP JUMPDEST DUP1 ISZERO PUSH2 0xD79 JUMPI DUP1 PUSH1 0x1F LT PUSH2 0xD4E JUMPI PUSH2 0x100 DUP1 DUP4 SLOAD DIV MUL DUP4 MSTORE SWAP2 PUSH1 0x20 ADD SWAP2 PUSH2 0xD79 JUMP JUMPDEST DUP3 ADD SWAP2 SWAP1 PUSH1 0x0 MSTORE PUSH1 0x20 PUSH1 0x0 KECCAK256 SWAP1 JUMPDEST DUP2 SLOAD DUP2 MSTORE SWAP1 PUSH1 0x1 ADD SWAP1 PUSH1 0x20 ADD DUP1 DUP4 GT PUSH2 0xD5C JUMPI DUP3 SWAP1 SUB PUSH1 0x1F AND DUP3 ADD SWAP2 JUMPDEST POP POP POP POP POP DUP2 MSTORE PUSH1 0x20 ADD PUSH1 0x1 DUP3 ADD DUP1 SLOAD PUSH2 0xD92 SWAP1 PUSH2 0x25A4 JUMP JUMPDEST DUP1 PUSH1 0x1F ADD PUSH1 0x20 DUP1 SWAP2 DIV MUL PUSH1 0x20 ADD PUSH1 0x40 MLOAD SWAP1 DUP2 ADD PUSH1 0x40 MSTORE DUP1 SWAP3 SWAP2 SWAP1 DUP2 DUP2 MSTORE PUSH1 0x20 ADD DUP3 DUP1 SLOAD PUSH2 0xDBE SWAP1 PUSH2 0x25A4 JUMP JUMPDEST DUP1 ISZERO PUSH2 0xE0B JUMPI DUP1 PUSH1 0x1F LT PUSH2 0xDE0 JUMPI PUSH2 0x100 DUP1 DUP4 SLOAD DIV MUL DUP4 MSTORE SWAP2 PUSH1 0x20 ADD SWAP2 PUSH2 0xE0B JUMP JUMPDEST DUP3 ADD SWAP2 SWAP1 PUSH1 0x0 MSTORE PUSH1 0x20 PUSH1 0x0 KECCAK256 SWAP1 JUMPDEST DUP2 SLOAD DUP2 MSTORE SWAP1 PUSH1 0x1 ADD SWAP1 PUSH1 0x20 ADD DUP1 DUP4 GT PUSH2 0xDEE JUMPI DUP3 SWAP1 SUB PUSH1 0x1F AND DUP3 ADD SWAP2 JUMPDEST POP POP POP SWAP2 DUP4 MSTORE POP POP PUSH1 0x2 DUP3 ADD SLOAD PUSH1 0x20 DUP3 ADD MSTORE PUSH1 0x3 DUP3 ADD SLOAD PUSH1 0x40 DUP3 ADD MSTORE PUSH1 0x4 DUP3 ADD SLOAD PUSH1 0x60 DUP3 ADD MSTORE PUSH1 0x5 SWAP1 SWAP2 ADD SLOAD PUSH1 0xFF AND ISZERO ISZERO PUSH1 0x80 SWAP1 SWAP2 ADD MSTORE PUSH1 0xA0 DUP2 ADD MLOAD SWAP1 SWAP2 POP PUSH2 0xE59 JUMPI PUSH1 0x60 ADD MLOAD SWAP1 POP PUSH2 0x4A1 JUMP JUMPDEST PUSH1 0x0 DUP2 PUSH1 0x80 ADD MLOAD TIMESTAMP PUSH2 0xE6B SWAP2 SWAP1 PUSH2 0x2823 JUMP JUMPDEST SWAP1 POP PUSH1 0x0 PUSH2 0xE7A PUSH1 0x3C DUP4 PUSH2 0x2836 JUMP JUMPDEST SWAP1 POP PUSH1 0x0 PUSH2 0xE89 PUSH1 0x1 DUP4 PUSH2 0x26B5 JUMP JUMPDEST SWAP1 POP PUSH1 0x6 PUSH1 0x0 DUP8 DUP2 MSTORE PUSH1 0x20 ADD SWAP1 DUP2 MSTORE PUSH1 0x20 ADD PUSH1 0x0 KECCAK256 PUSH1 0x2 ADD PUSH1 0x40 MLOAD PUSH2 0xEAE SWAP2 SWAP1 PUSH2 0x2858 JUMP JUMPDEST PUSH1 0x40 MLOAD DUP1 SWAP2 SUB SWAP1 KECCAK256 DUP5 PUSH1 0x20 ADD MLOAD DUP1 MLOAD SWAP1 PUSH1 0x20 ADD KECCAK256 SUB PUSH2 0xEE1 JUMPI PUSH1 0x64 PUSH2 0xED4 PUSH1 0x96 DUP4 PUSH2 0x26B5 JUMP JUMPDEST PUSH2 0xEDE SWAP2 SWAP1 PUSH2 0x2836 JUMP JUMPDEST SWAP1 POP JUMPDEST DUP1 DUP5 PUSH1 0x60 ADD MLOAD PUSH2 0xEF1 SWAP2 SWAP1 PUSH2 0x2864 JUMP JUMPDEST SWAP8 SWAP7 POP POP POP POP POP POP POP JUMP JUMPDEST PUSH2 0xF04 PUSH2 0x178E JUMP JUMPDEST PUSH1 0x8 DUP1 SLOAD PUSH1 0x1 PUSH1 0x1 PUSH1 0xA0 SHL SUB NOT AND PUSH1 0x1 PUSH1 0x1 PUSH1 0xA0 SHL SUB SWAP3 SWAP1 SWAP3 AND SWAP2 SWAP1 SWAP2 OR SWAP1 SSTORE JUMP JUMPDEST PUSH2 0xF2E PUSH2 0x178E JUMP JUMPDEST PUSH2 0xF38 PUSH1 0x0 PUSH2 0x17BB JUMP JUMPDEST JUMP JUMPDEST PUSH1 0x0 PUSH2 0xF46 CALLER DUP5 PUSH2 0x47F JUMP JUMPDEST GT PUSH2 0xF86 JUMPI PUSH1 0x40 MLOAD PUSH3 0x461BCD PUSH1 0xE5 SHL DUP2 MSTORE PUSH1 0x20 PUSH1 0x4 DUP3 ADD MSTORE PUSH1 0x10 PUSH1 0x24 DUP3 ADD MSTORE PUSH16 0x2737BA103CB7BAB9102837B5B2B6B7B7 PUSH1 0x81 SHL PUSH1 0x44 DUP3 ADD MSTORE PUSH1 0x64 ADD PUSH2 0x573 JUMP JUMPDEST PUSH1 0x0 DUP3 DUP2 MSTORE PUSH1 0x4 PUSH1 0x20 MSTORE PUSH1 0x40 SWAP1 KECCAK256 PUSH1 0x5 ADD SLOAD PUSH1 0xFF AND PUSH2 0xFD6 JUMPI PUSH1 0x40 MLOAD PUSH3 0x461BCD PUSH1 0xE5 SHL DUP2 MSTORE PUSH1 0x20 PUSH1 0x4 DUP3 ADD MSTORE PUSH1 0xC PUSH1 0x24 DUP3 ADD MSTORE PUSH12 0x4E6F7420747261696E696E67 PUSH1 0xA0 SHL PUSH1 0x44 DUP3 ADD MSTORE PUSH1 0x64 ADD PUSH2 0x573 JUMP JUMPDEST PUSH1 0x0 DUP3 DUP2 MSTORE PUSH1 0x4 PUSH1 0x20 DUP2 SWAP1 MSTORE PUSH1 0x40 SWAP1 SWAP2 KECCAK256 ADD SLOAD PUSH2 0xFF5 SWAP1 PUSH1 0x3C SWAP1 PUSH2 0x2864 JUMP JUMPDEST TIMESTAMP LT ISZERO PUSH2 0x1044 JUMPI PUSH1 0x40 MLOAD PUSH3 0x461BCD PUSH1 0xE5 SHL DUP2 MSTORE PUSH1 0x20 PUSH1 0x4 DUP3 ADD MSTORE PUSH1 0x19 PUSH1 0x24 DUP3 ADD MSTORE PUSH32 0x4D696E20747261696E696E672074696D65206E6F74206D657400000000000000 PUSH1 0x44 DUP3 ADD MSTORE PUSH1 0x64 ADD PUSH2 0x573 JUMP JUMPDEST PUSH1 0x0 DUP3 DUP2 MSTORE PUSH1 0x4 PUSH1 0x20 DUP2 SWAP1 MSTORE PUSH1 0x40 DUP3 KECCAK256 ADD SLOAD PUSH2 0x1060 SWAP1 TIMESTAMP PUSH2 0x2823 JUMP JUMPDEST SWAP1 POP PUSH1 0x0 PUSH2 0x106F PUSH1 0x3C DUP4 PUSH2 0x2836 JUMP JUMPDEST SWAP1 POP PUSH1 0x0 PUSH2 0x107E PUSH1 0x1 DUP4 PUSH2 0x26B5 JUMP JUMPDEST SWAP1 POP PUSH1 0x6 PUSH1 0x0 DUP6 DUP2 MSTORE PUSH1 0x20 ADD SWAP1 DUP2 MSTORE PUSH1 0x20 ADD PUSH1 0x0 KECCAK256 PUSH1 0x2 ADD PUSH1 0x40 MLOAD PUSH2 0x10A3 SWAP2 SWAP1 PUSH2 0x2858 JUMP JUMPDEST PUSH1 0x40 DUP1 MLOAD SWAP2 DUP3 SWAP1 SUB DUP3 KECCAK256 PUSH1 0x0 DUP9 DUP2 MSTORE PUSH1 0x4 PUSH1 0x20 MSTORE SWAP2 SWAP1 SWAP2 KECCAK256 SWAP1 SWAP2 PUSH2 0x10CA SWAP2 PUSH1 0x1 ADD SWAP1 PUSH2 0x2858 JUMP JUMPDEST PUSH1 0x40 MLOAD DUP1 SWAP2 SUB SWAP1 KECCAK256 SUB PUSH2 0x10F1 JUMPI PUSH1 0x64 PUSH2 0x10E4 PUSH1 0x96 DUP4 PUSH2 0x26B5 JUMP JUMPDEST PUSH2 0x10EE SWAP2 SWAP1 PUSH2 0x2836 JUMP JUMPDEST SWAP1 POP JUMPDEST PUSH1 0x0 DUP6 DUP2 MSTORE PUSH1 0x4 PUSH1 0x20 MSTORE PUSH1 0x40 DUP2 KECCAK256 PUSH1 0x3 ADD DUP1 SLOAD DUP4 SWAP3 SWAP1 PUSH2 0x1112 SWAP1 DUP5 SWAP1 PUSH2 0x2864 JUMP JUMPDEST SWAP1 SWAP2 SSTORE POP POP JUMPDEST PUSH1 0x0 DUP6 DUP2 MSTORE PUSH1 0x4 PUSH1 0x20 MSTORE PUSH1 0x40 SWAP1 KECCAK256 PUSH1 0x3 ADD SLOAD PUSH1 0x64 GT PUSH2 0x1185 JUMPI PUSH1 0x0 DUP6 DUP2 MSTORE PUSH1 0x4 PUSH1 0x20 MSTORE PUSH1 0x40 DUP2 KECCAK256 PUSH1 0x2 ADD DUP1 SLOAD PUSH1 0x1 SWAP3 SWAP1 PUSH2 0x1153 SWAP1 DUP5 SWAP1 PUSH2 0x2864 JUMP JUMPDEST SWAP1 SWAP2 SSTORE POP POP PUSH1 0x0 DUP6 DUP2 MSTORE PUSH1 0x4 PUSH1 0x20 MSTORE PUSH1 0x40 DUP2 KECCAK256 PUSH1 0x3 ADD DUP1 SLOAD PUSH1 0x64 SWAP3 SWAP1 PUSH2 0x117A SWAP1 DUP5 SWAP1 PUSH2 0x2823 JUMP JUMPDEST SWAP1 SWAP2 SSTORE POP PUSH2 0x1118 SWAP1 POP JUMP JUMPDEST PUSH1 0x0 DUP6 DUP2 MSTORE PUSH1 0x4 PUSH1 0x20 DUP2 DUP2 MSTORE PUSH1 0x40 DUP1 DUP5 KECCAK256 PUSH1 0x5 DUP2 ADD DUP1 SLOAD PUSH1 0xFF NOT AND SWAP1 SSTORE SWAP1 SWAP3 ADD SWAP3 SWAP1 SWAP3 SSTORE DUP1 MLOAD DUP7 DUP2 MSTORE SWAP2 DUP3 ADD DUP4 SWAP1 MSTORE DUP7 SWAP2 PUSH32 0xCCC42750D9DCE02F33355C35D96F5B942523DF7ACAC68E43B23572A50C9F25F SWAP2 ADD PUSH1 0x40 MLOAD DUP1 SWAP2 SUB SWAP1 LOG2 POP POP POP POP POP JUMP JUMPDEST PUSH2 0xCD1 CALLER DUP4 DUP4 PUSH2 0x180D JUMP JUMPDEST PUSH1 0x4 PUSH1 0x20 MSTORE PUSH1 0x0 SWAP1 DUP2 MSTORE PUSH1 0x40 SWAP1 KECCAK256 DUP1 SLOAD DUP2 SWAP1 PUSH2 0x120E SWAP1 PUSH2 0x25A4 JUMP JUMPDEST DUP1 PUSH1 0x1F ADD PUSH1 0x20 DUP1 SWAP2 DIV MUL PUSH1 0x20 ADD PUSH1 0x40 MLOAD SWAP1 DUP2 ADD PUSH1 0x40 MSTORE DUP1 SWAP3 SWAP2 SWAP1 DUP2 DUP2 MSTORE PUSH1 0x20 ADD DUP3 DUP1 SLOAD PUSH2 0x123A SWAP1 PUSH2 0x25A4 JUMP JUMPDEST DUP1 ISZERO PUSH2 0x1287 JUMPI DUP1 PUSH1 0x1F LT PUSH2 0x125C JUMPI PUSH2 0x100 DUP1 DUP4 SLOAD DIV MUL DUP4 MSTORE SWAP2 PUSH1 0x20 ADD SWAP2 PUSH2 0x1287 JUMP JUMPDEST DUP3 ADD SWAP2 SWAP1 PUSH1 0x0 MSTORE PUSH1 0x20 PUSH1 0x0 KECCAK256 SWAP1 JUMPDEST DUP2 SLOAD DUP2 MSTORE SWAP1 PUSH1 0x1 ADD SWAP1 PUSH1 0x20 ADD DUP1 DUP4 GT PUSH2 0x126A JUMPI DUP3 SWAP1 SUB PUSH1 0x1F AND DUP3 ADD SWAP2 JUMPDEST POP POP POP POP POP SWAP1 DUP1 PUSH1 0x1 ADD DUP1 SLOAD PUSH2 0x129C SWAP1 PUSH2 0x25A4 JUMP JUMPDEST DUP1 PUSH1 0x1F ADD PUSH1 0x20 DUP1 SWAP2 DIV MUL PUSH1 0x20 ADD PUSH1 0x40 MLOAD SWAP1 DUP2 ADD PUSH1 0x40 MSTORE DUP1 SWAP3 SWAP2 SWAP1 DUP2 DUP2 MSTORE PUSH1 0x20 ADD DUP3 DUP1 SLOAD PUSH2 0x12C8 SWAP1 PUSH2 0x25A4 JUMP JUMPDEST DUP1 ISZERO PUSH2 0x1315 JUMPI DUP1 PUSH1 0x1F LT PUSH2 0x12EA JUMPI PUSH2 0x100 DUP1 DUP4 SLOAD DIV MUL DUP4 MSTORE SWAP2 PUSH1 0x20 ADD SWAP2 PUSH2 0x1315 JUMP JUMPDEST DUP3 ADD SWAP2 SWAP1 PUSH1 0x0 MSTORE PUSH1 0x20 PUSH1 0x0 KECCAK256 SWAP1 JUMPDEST DUP2 SLOAD DUP2 MSTORE SWAP1 PUSH1 0x1 ADD SWAP1 PUSH1 0x20 ADD DUP1 DUP4 GT PUSH2 0x12F8 JUMPI DUP3 SWAP1 SUB PUSH1 0x1F AND DUP3 ADD SWAP2 JUMPDEST POP POP POP POP PUSH1 0x2 DUP4 ADD SLOAD PUSH1 0x3 DUP5 ADD SLOAD PUSH1 0x4 DUP6 ADD SLOAD PUSH1 0x5 SWAP1 SWAP6 ADD SLOAD SWAP4 SWAP5 SWAP2 SWAP4 SWAP1 SWAP3 POP PUSH1 0xFF AND DUP7 JUMP JUMPDEST DUP1 PUSH1 0x1 EQ DUP1 PUSH2 0x134A JUMPI POP DUP1 PUSH1 0x4 EQ JUMPDEST DUP1 PUSH2 0x1355 JUMPI POP DUP1 PUSH1 0x7 EQ JUMPDEST PUSH2 0x13A1 JUMPI PUSH1 0x40 MLOAD PUSH3 0x461BCD PUSH1 0xE5 SHL DUP2 MSTORE PUSH1 0x20 PUSH1 0x4 DUP3 ADD MSTORE PUSH1 0x17 PUSH1 0x24 DUP3 ADD MSTORE PUSH32 0x496E76616C6964207374617274657220506F6B656D6F6E000000000000000000 PUSH1 0x44 DUP3 ADD MSTORE PUSH1 0x64 ADD PUSH2 0x573 JUMP JUMPDEST CALLER PUSH1 0x0 SWAP1 DUP2 MSTORE PUSH1 0x5 PUSH1 0x20 MSTORE PUSH1 0x40 SWAP1 KECCAK256 SLOAD PUSH1 0xFF AND ISZERO PUSH2 0x1401 JUMPI PUSH1 0x40 MLOAD PUSH3 0x461BCD PUSH1 0xE5 SHL DUP2 MSTORE PUSH1 0x20 PUSH1 0x4 DUP3 ADD MSTORE PUSH1 0x1B PUSH1 0x24 DUP3 ADD MSTORE PUSH32 0x416C726561647920686173207374617274657220506F6B656D6F6E0000000000 PUSH1 0x44 DUP3 ADD MSTORE PUSH1 0x64 ADD PUSH2 0x573 JUMP JUMPDEST PUSH2 0x141D CALLER DUP3 PUSH1 0x1 PUSH1 0x40 MLOAD DUP1 PUSH1 0x20 ADD PUSH1 0x40 MSTORE DUP1 PUSH1 0x0 DUP2 MSTORE POP PUSH2 0x18A3 JUMP JUMPDEST CALLER PUSH1 0x0 DUP2 DUP2 MSTORE PUSH1 0x5 PUSH1 0x20 MSTORE PUSH1 0x40 SWAP1 DUP2 SWAP1 KECCAK256 DUP1 SLOAD PUSH1 0xFF NOT AND PUSH1 0x1 OR SWAP1 SSTORE PUSH1 0x8 SLOAD SWAP1 MLOAD PUSH4 0x178E1D3 PUSH1 0xE3 SHL DUP2 MSTORE PUSH1 0x4 DUP2 ADD SWAP3 SWAP1 SWAP3 MSTORE PUSH1 0x1 PUSH1 0x1 PUSH1 0xA0 SHL SUB AND SWAP1 PUSH4 0xBC70E98 SWAP1 PUSH1 0x24 ADD PUSH1 0x0 PUSH1 0x40 MLOAD DUP1 DUP4 SUB DUP2 PUSH1 0x0 DUP8 DUP1 EXTCODESIZE ISZERO DUP1 ISZERO PUSH2 0x147D JUMPI PUSH1 0x0 DUP1 REVERT JUMPDEST POP GAS CALL ISZERO DUP1 ISZERO PUSH2 0x1491 JUMPI RETURNDATASIZE PUSH1 0x0 DUP1 RETURNDATACOPY RETURNDATASIZE PUSH1 0x0 REVERT JUMPDEST POP POP POP POP POP JUMP JUMPDEST PUSH1 0x1 PUSH1 0x1 PUSH1 0xA0 SHL SUB SWAP2 DUP3 AND PUSH1 0x0 SWAP1 DUP2 MSTORE PUSH1 0x1 PUSH1 0x20 SWAP1 DUP2 MSTORE PUSH1 0x40 DUP1 DUP4 KECCAK256 SWAP4 SWAP1 SWAP5 AND DUP3 MSTORE SWAP2 SWAP1 SWAP2 MSTORE KECCAK256 SLOAD PUSH1 0xFF AND SWAP1 JUMP JUMPDEST CALLER PUSH1 0x1 PUSH1 0x1 PUSH1 0xA0 SHL SUB DUP7 AND DUP2 EQ DUP1 ISZERO SWAP1 PUSH2 0x14E7 JUMPI POP PUSH2 0x14E5 DUP7 DUP3 PUSH2 0x1498 JUMP JUMPDEST ISZERO JUMPDEST ISZERO PUSH2 0x1518 JUMPI PUSH1 0x40 MLOAD PUSH4 0x711BEC91 PUSH1 0xE1 SHL DUP2 MSTORE PUSH1 0x1 PUSH1 0x1 PUSH1 0xA0 SHL SUB DUP1 DUP4 AND PUSH1 0x4 DUP4 ADD MSTORE DUP8 AND PUSH1 0x24 DUP3 ADD MSTORE PUSH1 0x44 ADD PUSH2 0x573 JUMP JUMPDEST PUSH2 0xA5E DUP7 DUP7 DUP7 DUP7 DUP7 PUSH2 0x1900 JUMP JUMPDEST PUSH2 0x152D PUSH2 0x178E JUMP JUMPDEST PUSH1 0x1 PUSH1 0x1 PUSH1 0xA0 SHL SUB DUP2 AND PUSH2 0x1557 JUMPI PUSH1 0x40 MLOAD PUSH4 0x1E4FBDF7 PUSH1 0xE0 SHL DUP2 MSTORE PUSH1 0x0 PUSH1 0x4 DUP3 ADD MSTORE PUSH1 0x24 ADD PUSH2 0x573 JUMP JUMPDEST PUSH2 0x1560 DUP2 PUSH2 0x17BB JUMP JUMPDEST POP JUMP JUMPDEST PUSH1 0x6 PUSH1 0x20 MSTORE PUSH1 0x0 SWAP1 DUP2 MSTORE PUSH1 0x40 SWAP1 KECCAK256 DUP1 SLOAD DUP2 SWAP1 PUSH2 0x157E SWAP1 PUSH2 0x25A4 JUMP JUMPDEST DUP1 PUSH1 0x1F ADD PUSH1 0x20 DUP1 SWAP2 DIV MUL PUSH1 0x20 ADD PUSH1 0x40 MLOAD SWAP1 DUP2 ADD PUSH1 0x40 MSTORE DUP1 SWAP3 SWAP2 SWAP1 DUP2 DUP2 MSTORE PUSH1 0x20 ADD DUP3 DUP1 SLOAD PUSH2 0x15AA SWAP1 PUSH2 0x25A4 JUMP JUMPDEST DUP1 ISZERO PUSH2 0x15F7 JUMPI DUP1 PUSH1 0x1F LT PUSH2 0x15CC JUMPI PUSH2 0x100 DUP1 DUP4 SLOAD DIV MUL DUP4 MSTORE SWAP2 PUSH1 0x20 ADD SWAP2 PUSH2 0x15F7 JUMP JUMPDEST DUP3 ADD SWAP2 SWAP1 PUSH1 0x0 MSTORE PUSH1 0x20 PUSH1 0x0 KECCAK256 SWAP1 JUMPDEST DUP2 SLOAD DUP2 MSTORE SWAP1 PUSH1 0x1 ADD SWAP1 PUSH1 0x20 ADD DUP1 DUP4 GT PUSH2 0x15DA JUMPI DUP3 SWAP1 SUB PUSH1 0x1F AND DUP3 ADD SWAP2 JUMPDEST POP POP POP POP POP SWAP1 DUP1 PUSH1 0x1 ADD SLOAD SWAP1 DUP1 PUSH1 0x2 ADD DUP1 SLOAD PUSH2 0x1612 SWAP1 PUSH2 0x25A4 JUMP JUMPDEST DUP1 PUSH1 0x1F ADD PUSH1 0x20 DUP1 SWAP2 DIV MUL PUSH1 0x20 ADD PUSH1 0x40 MLOAD SWAP1 DUP2 ADD PUSH1 0x40 MSTORE DUP1 SWAP3 SWAP2 SWAP1 DUP2 DUP2 MSTORE PUSH1 0x20 ADD DUP3 DUP1 SLOAD PUSH2 0x163E SWAP1 PUSH2 0x25A4 JUMP JUMPDEST DUP1 ISZERO PUSH2 0x168B JUMPI DUP1 PUSH1 0x1F LT PUSH2 0x1660 JUMPI PUSH2 0x100 DUP1 DUP4 SLOAD DIV MUL DUP4 MSTORE SWAP2 PUSH1 0x20 ADD SWAP2 PUSH2 0x168B JUMP JUMPDEST DUP3 ADD SWAP2 SWAP1 PUSH1 0x0 MSTORE PUSH1 0x20 PUSH1 0x0 KECCAK256 SWAP1 JUMPDEST DUP2 SLOAD DUP2 MSTORE SWAP1 PUSH1 0x1 ADD SWAP1 PUSH1 0x20 ADD DUP1 DUP4 GT PUSH2 0x166E JUMPI DUP3 SWAP1 SUB PUSH1 0x1F AND DUP3 ADD SWAP2 JUMPDEST POP POP POP POP POP SWAP1 DUP1 PUSH1 0x3 ADD SLOAD SWAP1 POP DUP5 JUMP JUMPDEST PUSH1 0x60 PUSH1 0x0 PUSH2 0x16A8 DUP4 PUSH2 0x198E JUMP JUMPDEST PUSH1 0x1 ADD SWAP1 POP PUSH1 0x0 DUP2 PUSH8 0xFFFFFFFFFFFFFFFF DUP2 GT ISZERO PUSH2 0x16C8 JUMPI PUSH2 0x16C8 PUSH2 0x2071 JUMP JUMPDEST PUSH1 0x40 MLOAD SWAP1 DUP1 DUP3 MSTORE DUP1 PUSH1 0x1F ADD PUSH1 0x1F NOT AND PUSH1 0x20 ADD DUP3 ADD PUSH1 0x40 MSTORE DUP1 ISZERO PUSH2 0x16F2 JUMPI PUSH1 0x20 DUP3 ADD DUP2 DUP1 CALLDATASIZE DUP4 CALLDATACOPY ADD SWAP1 POP JUMPDEST POP SWAP1 POP DUP2 DUP2 ADD PUSH1 0x20 ADD JUMPDEST PUSH1 0x0 NOT ADD PUSH16 0x181899199A1A9B1B9C1CB0B131B232B3 PUSH1 0x81 SHL PUSH1 0xA DUP7 MOD BYTE DUP2 MSTORE8 PUSH1 0xA DUP6 DIV SWAP5 POP DUP5 PUSH2 0x16FC JUMPI POP SWAP4 SWAP3 POP POP POP JUMP JUMPDEST PUSH1 0x1 PUSH1 0x1 PUSH1 0xA0 SHL SUB DUP5 AND PUSH2 0x1758 JUMPI PUSH1 0x40 MLOAD PUSH4 0x2BFA23E7 PUSH1 0xE1 SHL DUP2 MSTORE PUSH1 0x0 PUSH1 0x4 DUP3 ADD MSTORE PUSH1 0x24 ADD PUSH2 0x573 JUMP JUMPDEST PUSH1 0x1 PUSH1 0x1 PUSH1 0xA0 SHL SUB DUP6 AND PUSH2 0x1781 JUMPI PUSH1 0x40 MLOAD PUSH3 0x6A0D45 PUSH1 0xE2 SHL DUP2 MSTORE PUSH1 0x0 PUSH1 0x4 DUP3 ADD MSTORE PUSH1 0x24 ADD PUSH2 0x573 JUMP JUMPDEST PUSH2 0x1491 DUP6 DUP6 DUP6 DUP6 DUP6 PUSH2 0x1A66 JUMP JUMPDEST PUSH1 0x3 SLOAD PUSH1 0x1 PUSH1 0x1 PUSH1 0xA0 SHL SUB AND CALLER EQ PUSH2 0xF38 JUMPI PUSH1 0x40 MLOAD PUSH4 0x118CDAA7 PUSH1 0xE0 SHL DUP2 MSTORE CALLER PUSH1 0x4 DUP3 ADD MSTORE PUSH1 0x24 ADD PUSH2 0x573 JUMP JUMPDEST PUSH1 0x3 DUP1 SLOAD PUSH1 0x1 PUSH1 0x1 PUSH1 0xA0 SHL SUB DUP4 DUP2 AND PUSH1 0x1 PUSH1 0x1 PUSH1 0xA0 SHL SUB NOT DUP4 AND DUP2 OR SWAP1 SWAP4 SSTORE PUSH1 0x40 MLOAD SWAP2 AND SWAP2 SWAP1 DUP3 SWAP1 PUSH32 0x8BE0079C531659141344CD1FD0A4F28419497F9722A3DAAFE3B4186F6B6457E0 SWAP1 PUSH1 0x0 SWAP1 LOG3 POP POP JUMP JUMPDEST PUSH1 0x1 PUSH1 0x1 PUSH1 0xA0 SHL SUB DUP3 AND PUSH2 0x1836 JUMPI PUSH1 0x40 MLOAD PUSH3 0xCED3E1 PUSH1 0xE8 SHL DUP2 MSTORE PUSH1 0x0 PUSH1 0x4 DUP3 ADD MSTORE PUSH1 0x24 ADD PUSH2 0x573 JUMP JUMPDEST PUSH1 0x1 PUSH1 0x1 PUSH1 0xA0 SHL SUB DUP4 DUP2 AND PUSH1 0x0 DUP2 DUP2 MSTORE PUSH1 0x1 PUSH1 0x20 SWAP1 DUP2 MSTORE PUSH1 0x40 DUP1 DUP4 KECCAK256 SWAP5 DUP8 AND DUP1 DUP5 MSTORE SWAP5 DUP3 MSTORE SWAP2 DUP3 SWAP1 KECCAK256 DUP1 SLOAD PUSH1 0xFF NOT AND DUP7 ISZERO ISZERO SWAP1 DUP2 OR SWAP1 SWAP2 SSTORE SWAP2 MLOAD SWAP2 DUP3 MSTORE PUSH32 0x17307EAB39AB6107E8899845AD3D59BD9653F200F220920489CA2B5937696C31 SWAP2 ADD PUSH1 0x40 MLOAD DUP1 SWAP2 SUB SWAP1 LOG3 POP POP POP JUMP JUMPDEST PUSH1 0x1 PUSH1 0x1 PUSH1 0xA0 SHL SUB DUP5 AND PUSH2 0x18CD JUMPI PUSH1 0x40 MLOAD PUSH4 0x2BFA23E7 PUSH1 0xE1 SHL DUP2 MSTORE PUSH1 0x0 PUSH1 0x4 DUP3 ADD MSTORE PUSH1 0x24 ADD PUSH2 0x573 JUMP JUMPDEST PUSH1 0x40 DUP1 MLOAD PUSH1 0x1 DUP1 DUP3 MSTORE PUSH1 0x20 DUP3 ADD DUP7 SWAP1 MSTORE DUP2 DUP4 ADD SWAP1 DUP2 MSTORE PUSH1 0x60 DUP3 ADD DUP6 SWAP1 MSTORE PUSH1 0x80 DUP3 ADD SWAP1 SWAP3 MSTORE SWAP1 PUSH2 0xA5E PUSH1 0x0 DUP8 DUP5 DUP5 DUP8 PUSH2 0x1A66 JUMP JUMPDEST PUSH1 0x1 PUSH1 0x1 PUSH1 0xA0 SHL SUB DUP5 AND PUSH2 0x192A JUMPI PUSH1 0x40 MLOAD PUSH4 0x2BFA23E7 PUSH1 0xE1 SHL DUP2 MSTORE PUSH1 0x0 PUSH1 0x4 DUP3 ADD MSTORE PUSH1 0x24 ADD PUSH2 0x573 JUMP JUMPDEST PUSH1 0x1 PUSH1 0x1 PUSH1 0xA0 SHL SUB DUP6 AND PUSH2 0x1953 JUMPI PUSH1 0x40 MLOAD PUSH3 0x6A0D45 PUSH1 0xE2 SHL DUP2 MSTORE PUSH1 0x0 PUSH1 0x4 DUP3 ADD MSTORE PUSH1 0x24 ADD PUSH2 0x573 JUMP JUMPDEST PUSH1 0x40 DUP1 MLOAD PUSH1 0x1 DUP1 DUP3 MSTORE PUSH1 0x20 DUP3 ADD DUP7 SWAP1 MSTORE DUP2 DUP4 ADD SWAP1 DUP2 MSTORE PUSH1 0x60 DUP3 ADD DUP6 SWAP1 MSTORE PUSH1 0x80 DUP3 ADD SWAP1 SWAP3 MSTORE SWAP1 PUSH2 0x1985 DUP8 DUP8 DUP5 DUP5 DUP8 PUSH2 0x1A66 JUMP JUMPDEST POP POP POP POP POP POP POP JUMP JUMPDEST PUSH1 0x0 DUP1 PUSH19 0x184F03E93FF9F4DAA797ED6E38ED64BF6A1F01 PUSH1 0x40 SHL DUP4 LT PUSH2 0x19CD JUMPI PUSH19 0x184F03E93FF9F4DAA797ED6E38ED64BF6A1F01 PUSH1 0x40 SHL DUP4 DIV SWAP3 POP PUSH1 0x40 ADD JUMPDEST PUSH14 0x4EE2D6D415B85ACEF8100000000 DUP4 LT PUSH2 0x19F9 JUMPI PUSH14 0x4EE2D6D415B85ACEF8100000000 DUP4 DIV SWAP3 POP PUSH1 0x20 ADD JUMPDEST PUSH7 0x2386F26FC10000 DUP4 LT PUSH2 0x1A17 JUMPI PUSH7 0x2386F26FC10000 DUP4 DIV SWAP3 POP PUSH1 0x10 ADD JUMPDEST PUSH4 0x5F5E100 DUP4 LT PUSH2 0x1A2F JUMPI PUSH4 0x5F5E100 DUP4 DIV SWAP3 POP PUSH1 0x8 ADD JUMPDEST PUSH2 0x2710 DUP4 LT PUSH2 0x1A43 JUMPI PUSH2 0x2710 DUP4 DIV SWAP3 POP PUSH1 0x4 ADD JUMPDEST PUSH1 0x64 DUP4 LT PUSH2 0x1A55 JUMPI PUSH1 0x64 DUP4 DIV SWAP3 POP PUSH1 0x2 ADD JUMPDEST PUSH1 0xA DUP4 LT PUSH2 0x4A1 JUMPI PUSH1 0x1 ADD SWAP3 SWAP2 POP POP JUMP JUMPDEST PUSH2 0x1A72 DUP6 DUP6 DUP6 DUP6 PUSH2 0x1AB9 JUMP JUMPDEST PUSH1 0x1 PUSH1 0x1 PUSH1 0xA0 SHL SUB DUP5 AND ISZERO PUSH2 0x1491 JUMPI DUP3 MLOAD CALLER SWAP1 PUSH1 0x1 SUB PUSH2 0x1AAB JUMPI PUSH1 0x20 DUP5 DUP2 ADD MLOAD SWAP1 DUP5 ADD MLOAD PUSH2 0x1AA4 DUP4 DUP10 DUP10 DUP6 DUP6 DUP10 PUSH2 0x1CD6 JUMP JUMPDEST POP POP PUSH2 0xA5E JUMP JUMPDEST PUSH2 0xA5E DUP2 DUP8 DUP8 DUP8 DUP8 DUP8 PUSH2 0x1DFA JUMP JUMPDEST DUP1 MLOAD DUP3 MLOAD EQ PUSH2 0x1AE8 JUMPI DUP2 MLOAD DUP2 MLOAD PUSH1 0x40 MLOAD PUSH4 0x5B059991 PUSH1 0xE0 SHL DUP2 MSTORE PUSH1 0x4 DUP2 ADD SWAP3 SWAP1 SWAP3 MSTORE PUSH1 0x24 DUP3 ADD MSTORE PUSH1 0x44 ADD PUSH2 0x573 JUMP JUMPDEST CALLER PUSH1 0x0 JUMPDEST DUP4 MLOAD DUP2 LT ISZERO PUSH2 0x1BF7 JUMPI PUSH1 0x20 DUP2 DUP2 MUL DUP6 DUP2 ADD DUP3 ADD MLOAD SWAP1 DUP6 ADD SWAP1 SWAP2 ADD MLOAD PUSH1 0x1 PUSH1 0x1 PUSH1 0xA0 SHL SUB DUP9 AND ISZERO PUSH2 0x1B9F JUMPI PUSH1 0x0 DUP3 DUP2 MSTORE PUSH1 0x20 DUP2 DUP2 MSTORE PUSH1 0x40 DUP1 DUP4 KECCAK256 PUSH1 0x1 PUSH1 0x1 PUSH1 0xA0 SHL SUB DUP13 AND DUP5 MSTORE SWAP1 SWAP2 MSTORE SWAP1 KECCAK256 SLOAD DUP2 DUP2 LT ISZERO PUSH2 0x1B78 JUMPI PUSH1 0x40 MLOAD PUSH4 0x3DEE4C5 PUSH1 0xE0 SHL DUP2 MSTORE PUSH1 0x1 PUSH1 0x1 PUSH1 0xA0 SHL SUB DUP11 AND PUSH1 0x4 DUP3 ADD MSTORE PUSH1 0x24 DUP2 ADD DUP3 SWAP1 MSTORE PUSH1 0x44 DUP2 ADD DUP4 SWAP1 MSTORE PUSH1 0x64 DUP2 ADD DUP5 SWAP1 MSTORE PUSH1 0x84 ADD PUSH2 0x573 JUMP JUMPDEST PUSH1 0x0 DUP4 DUP2 MSTORE PUSH1 0x20 DUP2 DUP2 MSTORE PUSH1 0x40 DUP1 DUP4 KECCAK256 PUSH1 0x1 PUSH1 0x1 PUSH1 0xA0 SHL SUB DUP14 AND DUP5 MSTORE SWAP1 SWAP2 MSTORE SWAP1 KECCAK256 SWAP1 DUP3 SWAP1 SUB SWAP1 SSTORE JUMPDEST PUSH1 0x1 PUSH1 0x1 PUSH1 0xA0 SHL SUB DUP8 AND ISZERO PUSH2 0x1BE4 JUMPI PUSH1 0x0 DUP3 DUP2 MSTORE PUSH1 0x20 DUP2 DUP2 MSTORE PUSH1 0x40 DUP1 DUP4 KECCAK256 PUSH1 0x1 PUSH1 0x1 PUSH1 0xA0 SHL SUB DUP12 AND DUP5 MSTORE SWAP1 SWAP2 MSTORE DUP2 KECCAK256 DUP1 SLOAD DUP4 SWAP3 SWAP1 PUSH2 0x1BDE SWAP1 DUP5 SWAP1 PUSH2 0x2864 JUMP JUMPDEST SWAP1 SWAP2 SSTORE POP POP JUMPDEST POP POP DUP1 PUSH2 0x1BF0 SWAP1 PUSH2 0x26FF JUMP JUMPDEST SWAP1 POP PUSH2 0x1AEC JUMP JUMPDEST POP DUP3 MLOAD PUSH1 0x1 SUB PUSH2 0x1C78 JUMPI PUSH1 0x20 DUP4 ADD MLOAD PUSH1 0x0 SWAP1 PUSH1 0x20 DUP5 ADD MLOAD SWAP1 SWAP2 POP DUP6 PUSH1 0x1 PUSH1 0x1 PUSH1 0xA0 SHL SUB AND DUP8 PUSH1 0x1 PUSH1 0x1 PUSH1 0xA0 SHL SUB AND DUP5 PUSH1 0x1 PUSH1 0x1 PUSH1 0xA0 SHL SUB AND PUSH32 0xC3D58168C5AE7397731D063D5BBF3D657854427343F4C083240F7AACAA2D0F62 DUP6 DUP6 PUSH1 0x40 MLOAD PUSH2 0x1C69 SWAP3 SWAP2 SWAP1 SWAP2 DUP3 MSTORE PUSH1 0x20 DUP3 ADD MSTORE PUSH1 0x40 ADD SWAP1 JUMP JUMPDEST PUSH1 0x40 MLOAD DUP1 SWAP2 SUB SWAP1 LOG4 POP POP PUSH2 0x1491 JUMP JUMPDEST DUP4 PUSH1 0x1 PUSH1 0x1 PUSH1 0xA0 SHL SUB AND DUP6 PUSH1 0x1 PUSH1 0x1 PUSH1 0xA0 SHL SUB AND DUP3 PUSH1 0x1 PUSH1 0x1 PUSH1 0xA0 SHL SUB AND PUSH32 0x4A39DC06D4C0DBC64B70AF90FD698A233A518AA5D07E595D983B8C0526C8F7FB DUP7 DUP7 PUSH1 0x40 MLOAD PUSH2 0x1CC7 SWAP3 SWAP2 SWAP1 PUSH2 0x2877 JUMP JUMPDEST PUSH1 0x40 MLOAD DUP1 SWAP2 SUB SWAP1 LOG4 POP POP POP POP POP JUMP JUMPDEST PUSH1 0x1 PUSH1 0x1 PUSH1 0xA0 SHL SUB DUP5 AND EXTCODESIZE ISZERO PUSH2 0xA5E JUMPI PUSH1 0x40 MLOAD PUSH4 0xF23A6E61 PUSH1 0xE0 SHL DUP2 MSTORE PUSH1 0x1 PUSH1 0x1 PUSH1 0xA0 SHL SUB DUP6 AND SWAP1 PUSH4 0xF23A6E61 SWAP1 PUSH2 0x1D1A SWAP1 DUP10 SWAP1 DUP10 SWAP1 DUP9 SWAP1 DUP9 SWAP1 DUP9 SWAP1 PUSH1 0x4 ADD PUSH2 0x28A5 JUMP JUMPDEST PUSH1 0x20 PUSH1 0x40 MLOAD DUP1 DUP4 SUB DUP2 PUSH1 0x0 DUP8 GAS CALL SWAP3 POP POP POP DUP1 ISZERO PUSH2 0x1D55 JUMPI POP PUSH1 0x40 DUP1 MLOAD PUSH1 0x1F RETURNDATASIZE SWAP1 DUP2 ADD PUSH1 0x1F NOT AND DUP3 ADD SWAP1 SWAP3 MSTORE PUSH2 0x1D52 SWAP2 DUP2 ADD SWAP1 PUSH2 0x28DF JUMP JUMPDEST PUSH1 0x1 JUMPDEST PUSH2 0x1DBE JUMPI RETURNDATASIZE DUP1 DUP1 ISZERO PUSH2 0x1D83 JUMPI PUSH1 0x40 MLOAD SWAP2 POP PUSH1 0x1F NOT PUSH1 0x3F RETURNDATASIZE ADD AND DUP3 ADD PUSH1 0x40 MSTORE RETURNDATASIZE DUP3 MSTORE RETURNDATASIZE PUSH1 0x0 PUSH1 0x20 DUP5 ADD RETURNDATACOPY PUSH2 0x1D88 JUMP JUMPDEST PUSH1 0x60 SWAP2 POP JUMPDEST POP DUP1 MLOAD PUSH1 0x0 SUB PUSH2 0x1DB6 JUMPI PUSH1 0x40 MLOAD PUSH4 0x2BFA23E7 PUSH1 0xE1 SHL DUP2 MSTORE PUSH1 0x1 PUSH1 0x1 PUSH1 0xA0 SHL SUB DUP7 AND PUSH1 0x4 DUP3 ADD MSTORE PUSH1 0x24 ADD PUSH2 0x573 JUMP JUMPDEST DUP1 MLOAD DUP2 PUSH1 0x20 ADD REVERT JUMPDEST PUSH1 0x1 PUSH1 0x1 PUSH1 0xE0 SHL SUB NOT DUP2 AND PUSH4 0xF23A6E61 PUSH1 0xE0 SHL EQ PUSH2 0x1985 JUMPI PUSH1 0x40 MLOAD PUSH4 0x2BFA23E7 PUSH1 0xE1 SHL DUP2 MSTORE PUSH1 0x1 PUSH1 0x1 PUSH1 0xA0 SHL SUB DUP7 AND PUSH1 0x4 DUP3 ADD MSTORE PUSH1 0x24 ADD PUSH2 0x573 JUMP JUMPDEST PUSH1 0x1 PUSH1 0x1 PUSH1 0xA0 SHL SUB DUP5 AND EXTCODESIZE ISZERO PUSH2 0xA5E JUMPI PUSH1 0x40 MLOAD PUSH4 0xBC197C81 PUSH1 0xE0 SHL DUP2 MSTORE PUSH1 0x1 PUSH1 0x1 PUSH1 0xA0 SHL SUB DUP6 AND SWAP1 PUSH4 0xBC197C81 SWAP1 PUSH2 0x1E3E SWAP1 DUP10 SWAP1 DUP10 SWAP1 DUP9 SWAP1 DUP9 SWAP1 DUP9 SWAP1 PUSH1 0x4 ADD PUSH2 0x28FC JUMP JUMPDEST PUSH1 0x20 PUSH1 0x40 MLOAD DUP1 DUP4 SUB DUP2 PUSH1 0x0 DUP8 GAS CALL SWAP3 POP POP POP DUP1 ISZERO PUSH2 0x1E79 JUMPI POP PUSH1 0x40 DUP1 MLOAD PUSH1 0x1F RETURNDATASIZE SWAP1 DUP2 ADD PUSH1 0x1F NOT AND DUP3 ADD SWAP1 SWAP3 MSTORE PUSH2 0x1E76 SWAP2 DUP2 ADD SWAP1 PUSH2 0x28DF JUMP JUMPDEST PUSH1 0x1 JUMPDEST PUSH2 0x1EA7 JUMPI RETURNDATASIZE DUP1 DUP1 ISZERO PUSH2 0x1D83 JUMPI PUSH1 0x40 MLOAD SWAP2 POP PUSH1 0x1F NOT PUSH1 0x3F RETURNDATASIZE ADD AND DUP3 ADD PUSH1 0x40 MSTORE RETURNDATASIZE DUP3 MSTORE RETURNDATASIZE PUSH1 0x0 PUSH1 0x20 DUP5 ADD RETURNDATACOPY PUSH2 0x1D88 JUMP JUMPDEST PUSH1 0x1 PUSH1 0x1 PUSH1 0xE0 SHL SUB NOT DUP2 AND PUSH4 0xBC197C81 PUSH1 0xE0 SHL EQ PUSH2 0x1985 JUMPI PUSH1 0x40 MLOAD PUSH4 0x2BFA23E7 PUSH1 0xE1 SHL DUP2 MSTORE PUSH1 0x1 PUSH1 0x1 PUSH1 0xA0 SHL SUB DUP7 AND PUSH1 0x4 DUP3 ADD MSTORE PUSH1 0x24 ADD PUSH2 0x573 JUMP JUMPDEST DUP1 CALLDATALOAD PUSH1 0x1 PUSH1 0x1 PUSH1 0xA0 SHL SUB DUP2 AND DUP2 EQ PUSH2 0x1EFA JUMPI PUSH1 0x0 DUP1 REVERT JUMPDEST SWAP2 SWAP1 POP JUMP JUMPDEST PUSH1 0x0 DUP1 PUSH1 0x40 DUP4 DUP6 SUB SLT ISZERO PUSH2 0x1F12 JUMPI PUSH1 0x0 DUP1 REVERT JUMPDEST PUSH2 0x1F1B DUP4 PUSH2 0x1EE3 JUMP JUMPDEST SWAP5 PUSH1 0x20 SWAP4 SWAP1 SWAP4 ADD CALLDATALOAD SWAP4 POP POP POP JUMP JUMPDEST PUSH1 0x1 PUSH1 0x1 PUSH1 0xE0 SHL SUB NOT DUP2 AND DUP2 EQ PUSH2 0x1560 JUMPI PUSH1 0x0 DUP1 REVERT JUMPDEST PUSH1 0x0 PUSH1 0x20 DUP3 DUP5 SUB SLT ISZERO PUSH2 0x1F51 JUMPI PUSH1 0x0 DUP1 REVERT JUMPDEST DUP2 CALLDATALOAD PUSH2 0x1F5C DUP2 PUSH2 0x1F29 JUMP JUMPDEST SWAP4 SWAP3 POP POP POP JUMP JUMPDEST PUSH1 0x0 PUSH1 0x20 DUP3 DUP5 SUB SLT ISZERO PUSH2 0x1F75 JUMPI PUSH1 0x0 DUP1 REVERT JUMPDEST POP CALLDATALOAD SWAP2 SWAP1 POP JUMP JUMPDEST PUSH1 0x0 JUMPDEST DUP4 DUP2 LT ISZERO PUSH2 0x1F97 JUMPI DUP2 DUP2 ADD MLOAD DUP4 DUP3 ADD MSTORE PUSH1 0x20 ADD PUSH2 0x1F7F JUMP JUMPDEST POP POP PUSH1 0x0 SWAP2 ADD MSTORE JUMP JUMPDEST PUSH1 0x0 DUP2 MLOAD DUP1 DUP5 MSTORE PUSH2 0x1FB8 DUP2 PUSH1 0x20 DUP7 ADD PUSH1 0x20 DUP7 ADD PUSH2 0x1F7C JUMP JUMPDEST PUSH1 0x1F ADD PUSH1 0x1F NOT AND SWAP3 SWAP1 SWAP3 ADD PUSH1 0x20 ADD SWAP3 SWAP2 POP POP JUMP JUMPDEST PUSH1 0x20 DUP2 MSTORE PUSH1 0x0 PUSH2 0x1F5C PUSH1 0x20 DUP4 ADD DUP5 PUSH2 0x1FA0 JUMP JUMPDEST PUSH1 0x0 DUP1 PUSH1 0x40 DUP4 DUP6 SUB SLT ISZERO PUSH2 0x1FF2 JUMPI PUSH1 0x0 DUP1 REVERT JUMPDEST POP POP DUP1 CALLDATALOAD SWAP3 PUSH1 0x20 SWAP1 SWAP2 ADD CALLDATALOAD SWAP2 POP JUMP JUMPDEST PUSH1 0x20 DUP2 MSTORE PUSH1 0x0 DUP3 MLOAD PUSH1 0xC0 PUSH1 0x20 DUP5 ADD MSTORE PUSH2 0x201D PUSH1 0xE0 DUP5 ADD DUP3 PUSH2 0x1FA0 JUMP JUMPDEST SWAP1 POP PUSH1 0x20 DUP5 ADD MLOAD PUSH1 0x1F NOT DUP5 DUP4 SUB ADD PUSH1 0x40 DUP6 ADD MSTORE PUSH2 0x203A DUP3 DUP3 PUSH2 0x1FA0 JUMP JUMPDEST SWAP2 POP POP PUSH1 0x40 DUP5 ADD MLOAD PUSH1 0x60 DUP5 ADD MSTORE PUSH1 0x60 DUP5 ADD MLOAD PUSH1 0x80 DUP5 ADD MSTORE PUSH1 0x80 DUP5 ADD MLOAD PUSH1 0xA0 DUP5 ADD MSTORE PUSH1 0xA0 DUP5 ADD MLOAD ISZERO ISZERO PUSH1 0xC0 DUP5 ADD MSTORE DUP1 SWAP2 POP POP SWAP3 SWAP2 POP POP JUMP JUMPDEST PUSH4 0x4E487B71 PUSH1 0xE0 SHL PUSH1 0x0 MSTORE PUSH1 0x41 PUSH1 0x4 MSTORE PUSH1 0x24 PUSH1 0x0 REVERT JUMPDEST PUSH1 0x40 MLOAD PUSH1 0x1F DUP3 ADD PUSH1 0x1F NOT AND DUP2 ADD PUSH8 0xFFFFFFFFFFFFFFFF DUP2 GT DUP3 DUP3 LT OR ISZERO PUSH2 0x20B0 JUMPI PUSH2 0x20B0 PUSH2 0x2071 JUMP JUMPDEST PUSH1 0x40 MSTORE SWAP2 SWAP1 POP JUMP JUMPDEST PUSH1 0x0 PUSH8 0xFFFFFFFFFFFFFFFF DUP3 GT ISZERO PUSH2 0x20D2 JUMPI PUSH2 0x20D2 PUSH2 0x2071 JUMP JUMPDEST POP PUSH1 0x5 SHL PUSH1 0x20 ADD SWAP1 JUMP JUMPDEST PUSH1 0x0 DUP3 PUSH1 0x1F DUP4 ADD SLT PUSH2 0x20ED JUMPI PUSH1 0x0 DUP1 REVERT JUMPDEST DUP2 CALLDATALOAD PUSH1 0x20 PUSH2 0x2102 PUSH2 0x20FD DUP4 PUSH2 0x20B8 JUMP JUMPDEST PUSH2 0x2087 JUMP JUMPDEST DUP3 DUP2 MSTORE PUSH1 0x5 SWAP3 SWAP1 SWAP3 SHL DUP5 ADD DUP2 ADD SWAP2 DUP2 DUP2 ADD SWAP1 DUP7 DUP5 GT ISZERO PUSH2 0x2121 JUMPI PUSH1 0x0 DUP1 REVERT JUMPDEST DUP3 DUP7 ADD JUMPDEST DUP5 DUP2 LT ISZERO PUSH2 0x213C JUMPI DUP1 CALLDATALOAD DUP4 MSTORE SWAP2 DUP4 ADD SWAP2 DUP4 ADD PUSH2 0x2125 JUMP JUMPDEST POP SWAP7 SWAP6 POP POP POP POP POP POP JUMP JUMPDEST PUSH1 0x0 PUSH8 0xFFFFFFFFFFFFFFFF DUP4 GT ISZERO PUSH2 0x2161 JUMPI PUSH2 0x2161 PUSH2 0x2071 JUMP JUMPDEST PUSH2 0x2174 PUSH1 0x1F DUP5 ADD PUSH1 0x1F NOT AND PUSH1 0x20 ADD PUSH2 0x2087 JUMP JUMPDEST SWAP1 POP DUP3 DUP2 MSTORE DUP4 DUP4 DUP4 ADD GT ISZERO PUSH2 0x2188 JUMPI PUSH1 0x0 DUP1 REVERT JUMPDEST DUP3 DUP3 PUSH1 0x20 DUP4 ADD CALLDATACOPY PUSH1 0x0 PUSH1 0x20 DUP5 DUP4 ADD ADD MSTORE SWAP4 SWAP3 POP POP POP JUMP JUMPDEST PUSH1 0x0 DUP3 PUSH1 0x1F DUP4 ADD SLT PUSH2 0x21B0 JUMPI PUSH1 0x0 DUP1 REVERT JUMPDEST PUSH2 0x1F5C DUP4 DUP4 CALLDATALOAD PUSH1 0x20 DUP6 ADD PUSH2 0x2147 JUMP JUMPDEST PUSH1 0x0 DUP1 PUSH1 0x0 DUP1 PUSH1 0x0 PUSH1 0xA0 DUP7 DUP9 SUB SLT ISZERO PUSH2 0x21D7 JUMPI PUSH1 0x0 DUP1 REVERT JUMPDEST PUSH2 0x21E0 DUP7 PUSH2 0x1EE3 JUMP JUMPDEST SWAP5 POP PUSH2 0x21EE PUSH1 0x20 DUP8 ADD PUSH2 0x1EE3 JUMP JUMPDEST SWAP4 POP PUSH1 0x40 DUP7 ADD CALLDATALOAD PUSH8 0xFFFFFFFFFFFFFFFF DUP1 DUP3 GT ISZERO PUSH2 0x220B JUMPI PUSH1 0x0 DUP1 REVERT JUMPDEST PUSH2 0x2217 DUP10 DUP4 DUP11 ADD PUSH2 0x20DC JUMP JUMPDEST SWAP5 POP PUSH1 0x60 DUP9 ADD CALLDATALOAD SWAP2 POP DUP1 DUP3 GT ISZERO PUSH2 0x222D JUMPI PUSH1 0x0 DUP1 REVERT JUMPDEST PUSH2 0x2239 DUP10 DUP4 DUP11 ADD PUSH2 0x20DC JUMP JUMPDEST SWAP4 POP PUSH1 0x80 DUP9 ADD CALLDATALOAD SWAP2 POP DUP1 DUP3 GT ISZERO PUSH2 0x224F JUMPI PUSH1 0x0 DUP1 REVERT JUMPDEST POP PUSH2 0x225C DUP9 DUP3 DUP10 ADD PUSH2 0x219F JUMP JUMPDEST SWAP2 POP POP SWAP3 SWAP6 POP SWAP3 SWAP6 SWAP1 SWAP4 POP JUMP JUMPDEST PUSH1 0x0 DUP1 PUSH1 0x40 DUP4 DUP6 SUB SLT ISZERO PUSH2 0x227C JUMPI PUSH1 0x0 DUP1 REVERT JUMPDEST DUP3 CALLDATALOAD PUSH8 0xFFFFFFFFFFFFFFFF DUP1 DUP3 GT ISZERO PUSH2 0x2294 JUMPI PUSH1 0x0 DUP1 REVERT JUMPDEST DUP2 DUP6 ADD SWAP2 POP DUP6 PUSH1 0x1F DUP4 ADD SLT PUSH2 0x22A8 JUMPI PUSH1 0x0 DUP1 REVERT JUMPDEST DUP2 CALLDATALOAD PUSH1 0x20 PUSH2 0x22B8 PUSH2 0x20FD DUP4 PUSH2 0x20B8 JUMP JUMPDEST DUP3 DUP2 MSTORE PUSH1 0x5 SWAP3 SWAP1 SWAP3 SHL DUP5 ADD DUP2 ADD SWAP2 DUP2 DUP2 ADD SWAP1 DUP10 DUP5 GT ISZERO PUSH2 0x22D7 JUMPI PUSH1 0x0 DUP1 REVERT JUMPDEST SWAP5 DUP3 ADD SWAP5 JUMPDEST DUP4 DUP7 LT ISZERO PUSH2 0x22FC JUMPI PUSH2 0x22ED DUP7 PUSH2 0x1EE3 JUMP JUMPDEST DUP3 MSTORE SWAP5 DUP3 ADD SWAP5 SWAP1 DUP3 ADD SWAP1 PUSH2 0x22DC JUMP JUMPDEST SWAP7 POP POP DUP7 ADD CALLDATALOAD SWAP3 POP POP DUP1 DUP3 GT ISZERO PUSH2 0x2312 JUMPI PUSH1 0x0 DUP1 REVERT JUMPDEST POP PUSH2 0x231F DUP6 DUP3 DUP7 ADD PUSH2 0x20DC JUMP JUMPDEST SWAP2 POP POP SWAP3 POP SWAP3 SWAP1 POP JUMP JUMPDEST PUSH1 0x0 DUP2 MLOAD DUP1 DUP5 MSTORE PUSH1 0x20 DUP1 DUP6 ADD SWAP5 POP DUP1 DUP5 ADD PUSH1 0x0 JUMPDEST DUP4 DUP2 LT ISZERO PUSH2 0x2359 JUMPI DUP2 MLOAD DUP8 MSTORE SWAP6 DUP3 ADD SWAP6 SWAP1 DUP3 ADD SWAP1 PUSH1 0x1 ADD PUSH2 0x233D JUMP JUMPDEST POP SWAP5 SWAP6 SWAP5 POP POP POP POP POP JUMP JUMPDEST PUSH1 0x20 DUP2 MSTORE PUSH1 0x0 PUSH2 0x1F5C PUSH1 0x20 DUP4 ADD DUP5 PUSH2 0x2329 JUMP JUMPDEST PUSH1 0x20 DUP2 MSTORE PUSH1 0x0 DUP3 MLOAD PUSH1 0x80 PUSH1 0x20 DUP5 ADD MSTORE PUSH2 0x2393 PUSH1 0xA0 DUP5 ADD DUP3 PUSH2 0x1FA0 JUMP JUMPDEST SWAP1 POP PUSH1 0x20 DUP5 ADD MLOAD PUSH1 0x40 DUP5 ADD MSTORE PUSH1 0x40 DUP5 ADD MLOAD PUSH1 0x1F NOT DUP5 DUP4 SUB ADD PUSH1 0x60 DUP6 ADD MSTORE PUSH2 0x23BA DUP3 DUP3 PUSH2 0x1FA0 JUMP JUMPDEST SWAP2 POP POP PUSH1 0x60 DUP5 ADD MLOAD PUSH1 0x80 DUP5 ADD MSTORE DUP1 SWAP2 POP POP SWAP3 SWAP2 POP POP JUMP JUMPDEST PUSH1 0x0 PUSH1 0x20 DUP3 DUP5 SUB SLT ISZERO PUSH2 0x23E3 JUMPI PUSH1 0x0 DUP1 REVERT JUMPDEST DUP2 CALLDATALOAD PUSH8 0xFFFFFFFFFFFFFFFF DUP2 GT ISZERO PUSH2 0x23FA JUMPI PUSH1 0x0 DUP1 REVERT JUMPDEST DUP3 ADD PUSH1 0x1F DUP2 ADD DUP5 SGT PUSH2 0x240B JUMPI PUSH1 0x0 DUP1 REVERT JUMPDEST PUSH2 0x241A DUP5 DUP3 CALLDATALOAD PUSH1 0x20 DUP5 ADD PUSH2 0x2147 JUMP JUMPDEST SWAP5 SWAP4 POP POP POP POP JUMP JUMPDEST PUSH1 0x0 PUSH1 0x20 DUP3 DUP5 SUB SLT ISZERO PUSH2 0x2434 JUMPI PUSH1 0x0 DUP1 REVERT JUMPDEST PUSH2 0x1F5C DUP3 PUSH2 0x1EE3 JUMP JUMPDEST DUP1 ISZERO ISZERO DUP2 EQ PUSH2 0x1560 JUMPI PUSH1 0x0 DUP1 REVERT JUMPDEST PUSH1 0x0 DUP1 PUSH1 0x40 DUP4 DUP6 SUB SLT ISZERO PUSH2 0x245E JUMPI PUSH1 0x0 DUP1 REVERT JUMPDEST PUSH2 0x2467 DUP4 PUSH2 0x1EE3 JUMP JUMPDEST SWAP2 POP PUSH1 0x20 DUP4 ADD CALLDATALOAD PUSH2 0x2477 DUP2 PUSH2 0x243D JUMP JUMPDEST DUP1 SWAP2 POP POP SWAP3 POP SWAP3 SWAP1 POP JUMP JUMPDEST PUSH1 0xC0 DUP2 MSTORE PUSH1 0x0 PUSH2 0x2495 PUSH1 0xC0 DUP4 ADD DUP10 PUSH2 0x1FA0 JUMP JUMPDEST DUP3 DUP2 SUB PUSH1 0x20 DUP5 ADD MSTORE PUSH2 0x24A7 DUP2 DUP10 PUSH2 0x1FA0 JUMP JUMPDEST SWAP2 POP POP DUP6 PUSH1 0x40 DUP4 ADD MSTORE DUP5 PUSH1 0x60 DUP4 ADD MSTORE DUP4 PUSH1 0x80 DUP4 ADD MSTORE DUP3 ISZERO ISZERO PUSH1 0xA0 DUP4 ADD MSTORE SWAP8 SWAP7 POP POP POP POP POP POP POP JUMP JUMPDEST PUSH1 0x0 DUP1 PUSH1 0x40 DUP4 DUP6 SUB SLT ISZERO PUSH2 0x24E2 JUMPI PUSH1 0x0 DUP1 REVERT JUMPDEST PUSH2 0x24EB DUP4 PUSH2 0x1EE3 JUMP JUMPDEST SWAP2 POP PUSH2 0x24F9 PUSH1 0x20 DUP5 ADD PUSH2 0x1EE3 JUMP JUMPDEST SWAP1 POP SWAP3 POP SWAP3 SWAP1 POP JUMP JUMPDEST PUSH1 0x0 DUP1 PUSH1 0x0 DUP1 PUSH1 0x0 PUSH1 0xA0 DUP7 DUP9 SUB SLT ISZERO PUSH2 0x251A JUMPI PUSH1 0x0 DUP1 REVERT JUMPDEST PUSH2 0x2523 DUP7 PUSH2 0x1EE3 JUMP JUMPDEST SWAP5 POP PUSH2 0x2531 PUSH1 0x20 DUP8 ADD PUSH2 0x1EE3 JUMP JUMPDEST SWAP4 POP PUSH1 0x40 DUP7 ADD CALLDATALOAD SWAP3 POP PUSH1 0x60 DUP7 ADD CALLDATALOAD SWAP2 POP PUSH1 0x80 DUP7 ADD CALLDATALOAD PUSH8 0xFFFFFFFFFFFFFFFF DUP2 GT ISZERO PUSH2 0x255B JUMPI PUSH1 0x0 DUP1 REVERT JUMPDEST PUSH2 0x225C DUP9 DUP3 DUP10 ADD PUSH2 0x219F JUMP JUMPDEST PUSH1 0x80 DUP2 MSTORE PUSH1 0x0 PUSH2 0x257A PUSH1 0x80 DUP4 ADD DUP8 PUSH2 0x1FA0 JUMP JUMPDEST DUP6 PUSH1 0x20 DUP5 ADD MSTORE DUP3 DUP2 SUB PUSH1 0x40 DUP5 ADD MSTORE PUSH2 0x2592 DUP2 DUP7 PUSH2 0x1FA0 JUMP JUMPDEST SWAP2 POP POP DUP3 PUSH1 0x60 DUP4 ADD MSTORE SWAP6 SWAP5 POP POP POP POP POP JUMP JUMPDEST PUSH1 0x1 DUP2 DUP2 SHR SWAP1 DUP3 AND DUP1 PUSH2 0x25B8 JUMPI PUSH1 0x7F DUP3 AND SWAP2 POP JUMPDEST PUSH1 0x20 DUP3 LT DUP2 SUB PUSH2 0x25D8 JUMPI PUSH4 0x4E487B71 PUSH1 0xE0 SHL PUSH1 0x0 MSTORE PUSH1 0x22 PUSH1 0x4 MSTORE PUSH1 0x24 PUSH1 0x0 REVERT JUMPDEST POP SWAP2 SWAP1 POP JUMP JUMPDEST PUSH1 0x0 DUP2 SLOAD PUSH2 0x25EB DUP2 PUSH2 0x25A4 JUMP JUMPDEST PUSH1 0x1 DUP3 DUP2 AND DUP1 ISZERO PUSH2 0x2603 JUMPI PUSH1 0x1 DUP2 EQ PUSH2 0x2618 JUMPI PUSH2 0x2647 JUMP JUMPDEST PUSH1 0xFF NOT DUP5 AND DUP8 MSTORE DUP3 ISZERO ISZERO DUP4 MUL DUP8 ADD SWAP5 POP PUSH2 0x2647 JUMP JUMPDEST DUP6 PUSH1 0x0 MSTORE PUSH1 0x20 DUP1 PUSH1 0x0 KECCAK256 PUSH1 0x0 JUMPDEST DUP6 DUP2 LT ISZERO PUSH2 0x263E JUMPI DUP2 SLOAD DUP11 DUP3 ADD MSTORE SWAP1 DUP5 ADD SWAP1 DUP3 ADD PUSH2 0x2625 JUMP JUMPDEST POP POP POP DUP3 DUP8 ADD SWAP5 POP JUMPDEST POP POP POP POP SWAP3 SWAP2 POP POP JUMP JUMPDEST PUSH1 0x0 PUSH2 0x265D DUP3 DUP6 PUSH2 0x25DE JUMP JUMPDEST DUP4 MLOAD PUSH2 0x266D DUP2 DUP4 PUSH1 0x20 DUP9 ADD PUSH2 0x1F7C JUMP JUMPDEST PUSH5 0x173539B7B7 PUSH1 0xD9 SHL SWAP2 ADD SWAP1 DUP2 MSTORE PUSH1 0x5 ADD SWAP5 SWAP4 POP POP POP POP JUMP JUMPDEST PUSH1 0x0 PUSH1 0x20 DUP3 DUP5 SUB SLT ISZERO PUSH2 0x2698 JUMPI PUSH1 0x0 DUP1 REVERT JUMPDEST POP MLOAD SWAP2 SWAP1 POP JUMP JUMPDEST PUSH4 0x4E487B71 PUSH1 0xE0 SHL PUSH1 0x0 MSTORE PUSH1 0x11 PUSH1 0x4 MSTORE PUSH1 0x24 PUSH1 0x0 REVERT JUMPDEST DUP1 DUP3 MUL DUP2 ISZERO DUP3 DUP3 DIV DUP5 EQ OR PUSH2 0x4A1 JUMPI PUSH2 0x4A1 PUSH2 0x269F JUMP JUMPDEST PUSH1 0x0 PUSH1 0x20 DUP3 DUP5 SUB SLT ISZERO PUSH2 0x26DE JUMPI PUSH1 0x0 DUP1 REVERT JUMPDEST DUP2 MLOAD PUSH2 0x1F5C DUP2 PUSH2 0x243D JUMP JUMPDEST PUSH4 0x4E487B71 PUSH1 0xE0 SHL PUSH1 0x0 MSTORE PUSH1 0x32 PUSH1 0x4 MSTORE PUSH1 0x24 PUSH1 0x0 REVERT JUMPDEST PUSH1 0x0 PUSH1 0x1 DUP3 ADD PUSH2 0x2711 JUMPI PUSH2 0x2711 PUSH2 0x269F JUMP JUMPDEST POP PUSH1 0x1 ADD SWAP1 JUMP JUMPDEST PUSH1 0x1F DUP3 GT ISZERO PUSH2 0x275E JUMPI PUSH1 0x0 DUP2 DUP2 MSTORE PUSH1 0x20 DUP2 KECCAK256 PUSH1 0x1F DUP6 ADD PUSH1 0x5 SHR DUP2 ADD PUSH1 0x20 DUP7 LT ISZERO PUSH2 0x273F JUMPI POP DUP1 JUMPDEST PUSH1 0x1F DUP6 ADD PUSH1 0x5 SHR DUP3 ADD SWAP2 POP JUMPDEST DUP2 DUP2 LT ISZERO PUSH2 0xA5E JUMPI DUP3 DUP2 SSTORE PUSH1 0x1 ADD PUSH2 0x274B JUMP JUMPDEST POP POP POP JUMP JUMPDEST DUP2 MLOAD PUSH8 0xFFFFFFFFFFFFFFFF DUP2 GT ISZERO PUSH2 0x277D JUMPI PUSH2 0x277D PUSH2 0x2071 JUMP JUMPDEST PUSH2 0x2791 DUP2 PUSH2 0x278B DUP5 SLOAD PUSH2 0x25A4 JUMP JUMPDEST DUP5 PUSH2 0x2718 JUMP JUMPDEST PUSH1 0x20 DUP1 PUSH1 0x1F DUP4 GT PUSH1 0x1 DUP2 EQ PUSH2 0x27C6 JUMPI PUSH1 0x0 DUP5 ISZERO PUSH2 0x27AE JUMPI POP DUP6 DUP4 ADD MLOAD JUMPDEST PUSH1 0x0 NOT PUSH1 0x3 DUP7 SWAP1 SHL SHR NOT AND PUSH1 0x1 DUP6 SWAP1 SHL OR DUP6 SSTORE PUSH2 0xA5E JUMP JUMPDEST PUSH1 0x0 DUP6 DUP2 MSTORE PUSH1 0x20 DUP2 KECCAK256 PUSH1 0x1F NOT DUP7 AND SWAP2 JUMPDEST DUP3 DUP2 LT ISZERO PUSH2 0x27F5 JUMPI DUP9 DUP7 ADD MLOAD DUP3 SSTORE SWAP5 DUP5 ADD SWAP5 PUSH1 0x1 SWAP1 SWAP2 ADD SWAP1 DUP5 ADD PUSH2 0x27D6 JUMP JUMPDEST POP DUP6 DUP3 LT ISZERO PUSH2 0x2813 JUMPI DUP8 DUP6 ADD MLOAD PUSH1 0x0 NOT PUSH1 0x3 DUP9 SWAP1 SHL PUSH1 0xF8 AND SHR NOT AND DUP2 SSTORE JUMPDEST POP POP POP POP POP PUSH1 0x1 SWAP1 DUP2 SHL ADD SWAP1 SSTORE POP JUMP JUMPDEST DUP2 DUP2 SUB DUP2 DUP2 GT ISZERO PUSH2 0x4A1 JUMPI PUSH2 0x4A1 PUSH2 0x269F JUMP JUMPDEST PUSH1 0x0 DUP3 PUSH2 0x2853 JUMPI PUSH4 0x4E487B71 PUSH1 0xE0 SHL PUSH1 0x0 MSTORE PUSH1 0x12 PUSH1 0x4 MSTORE PUSH1 0x24 PUSH1 0x0 REVERT JUMPDEST POP DIV SWAP1 JUMP JUMPDEST PUSH1 0x0 PUSH2 0x1F5C DUP3 DUP5 PUSH2 0x25DE JUMP JUMPDEST DUP1 DUP3 ADD DUP1 DUP3 GT ISZERO PUSH2 0x4A1 JUMPI PUSH2 0x4A1 PUSH2 0x269F JUMP JUMPDEST PUSH1 0x40 DUP2 MSTORE PUSH1 0x0 PUSH2 0x288A PUSH1 0x40 DUP4 ADD DUP6 PUSH2 0x2329 JUMP JUMPDEST DUP3 DUP2 SUB PUSH1 0x20 DUP5 ADD MSTORE PUSH2 0x289C DUP2 DUP6 PUSH2 0x2329 JUMP JUMPDEST SWAP6 SWAP5 POP POP POP POP POP JUMP JUMPDEST PUSH1 0x1 PUSH1 0x1 PUSH1 0xA0 SHL SUB DUP7 DUP2 AND DUP3 MSTORE DUP6 AND PUSH1 0x20 DUP3 ADD MSTORE PUSH1 0x40 DUP2 ADD DUP5 SWAP1 MSTORE PUSH1 0x60 DUP2 ADD DUP4 SWAP1 MSTORE PUSH1 0xA0 PUSH1 0x80 DUP3 ADD DUP2 SWAP1 MSTORE PUSH1 0x0 SWAP1 PUSH2 0xEF1 SWAP1 DUP4 ADD DUP5 PUSH2 0x1FA0 JUMP JUMPDEST PUSH1 0x0 PUSH1 0x20 DUP3 DUP5 SUB SLT ISZERO PUSH2 0x28F1 JUMPI PUSH1 0x0 DUP1 REVERT JUMPDEST DUP2 MLOAD PUSH2 0x1F5C DUP2 PUSH2 0x1F29 JUMP JUMPDEST PUSH1 0x1 PUSH1 0x1 PUSH1 0xA0 SHL SUB DUP7 DUP2 AND DUP3 MSTORE DUP6 AND PUSH1 0x20 DUP3 ADD MSTORE PUSH1 0xA0 PUSH1 0x40 DUP3 ADD DUP2 SWAP1 MSTORE PUSH1 0x0 SWAP1 PUSH2 0x2928 SWAP1 DUP4 ADD DUP7 PUSH2 0x2329 JUMP JUMPDEST DUP3 DUP2 SUB PUSH1 0x60 DUP5 ADD MSTORE PUSH2 0x293A DUP2 DUP7 PUSH2 0x2329 JUMP JUMPDEST SWAP1 POP DUP3 DUP2 SUB PUSH1 0x80 DUP5 ADD MSTORE PUSH2 0x294E DUP2 DUP6 PUSH2 0x1FA0 JUMP JUMPDEST SWAP9 SWAP8 POP POP POP POP POP POP POP POP JUMP INVALID LOG2 PUSH5 0x6970667358 0x22 SLT KECCAK256 0x24 NUMBER SWAP8 LOG1 0xB5 CREATE2 0xCB SHR DUP13 DUP3 0xE5 PUSH14 0xE8BAC563CB0CB64A50A0FE2D06D0 SHL PUSH6 0x938144886473 PUSH16 0x6C634300081400330000000000000000 "},"methodIdentifiers":{"BASIC_TRAINING()":"f17f767a","BASIC_TRAINING_COST()":"be6c5b7e","FIRE_DOJO()":"b8708c42","GRASS_GARDEN()":"2c17a522","MIN_TRAINING_TIME()":"0fccc072","SPECIALIZED_TRAINING_COST()":"3f758568","TYPE_BONUS_MULTIPLIER()":"0f8ea1c2","WATER_TEMPLE()":"6af783ea","XP_PER_MINUTE()":"76a939e7","balanceOf(address,uint256)":"00fdd58e","balanceOfBatch(address[],uint256[])":"4e1273f4","calculateCurrentXP(uint256,uint256)":"5eade546","endTraining(uint256,uint256)":"7506bf69","getPokemonData(uint256)":"2273c74e","getTrainingGround(uint256)":"4f13b164","hasStarterPokemon(address)":"de23cfca","isApprovedForAll(address,address)":"e985e9c5","mintStarterPokemon(uint256)":"e47248dc","owner()":"8da5cb5b","pokeCoin()":"80952547","pokemonData(uint256)":"c1b2c1ae","renounceOwnership()":"715018a6","safeBatchTransferFrom(address,address,uint256[],uint256[],bytes)":"2eb2c2d6","safeTransferFrom(address,address,uint256,uint256,bytes)":"f242432a","setApprovalForAll(address,bool)":"a22cb465","setBaseURI(string)":"55f804b3","setPokeCoinContract(address)":"62ebe57e","startTraining(uint256,uint256)":"154aa2a8","supportsInterface(bytes4)":"01ffc9a7","trainingGrounds(uint256)":"fb1224e5","transferOwnership(address)":"f2fde38b","uri(uint256)":"0e89341c"}}}}}