{
  "_format": "hh-sol-artifact-1",
  "contractName": "PokemonItems",
  "sourceName": "contracts/PokemonItems.sol",
  "abi": [
    {
      "inputs": [],
      "stateMutability": "nonpayable",
      "type": "constructor"
    },
    {
      "inputs": [
        {
          "internalType": "address",
          "name": "sender",
          "type": "address"
        },
        {
          "internalType": "uint256",
          "name": "balance",
          "type": "uint256"
        },
        {
          "internalType": "uint256",
          "name": "needed",
          "type": "uint256"
        },
        {
          "internalType": "uint256",
          "name": "tokenId",
          "type": "uint256"
        }
      ],
      "name": "ERC1155InsufficientBalance",
      "type": "error"
    },
    {
      "inputs": [
        {
          "internalType": "address",
          "name": "approver",
          "type": "address"
        }
      ],
      "name": "ERC1155InvalidApprover",
      "type": "error"
    },
    {
      "inputs": [
        {
          "internalType": "uint256",
          "name": "idsLength",
          "type": "uint256"
        },
        {
          "internalType": "uint256",
          "name": "valuesLength",
          "type": "uint256"
        }
      ],
      "name": "ERC1155InvalidArrayLength",
      "type": "error"
    },
    {
      "inputs": [
        {
          "internalType": "address",
          "name": "operator",
          "type": "address"
        }
      ],
      "name": "ERC1155InvalidOperator",
      "type": "error"
    },
    {
      "inputs": [
        {
          "internalType": "address",
          "name": "receiver",
          "type": "address"
        }
      ],
      "name": "ERC1155InvalidReceiver",
      "type": "error"
    },
    {
      "inputs": [
        {
          "internalType": "address",
          "name": "sender",
          "type": "address"
        }
      ],
      "name": "ERC1155InvalidSender",
      "type": "error"
    },
    {
      "inputs": [
        {
          "internalType": "address",
          "name": "operator",
          "type": "address"
        },
        {
          "internalType": "address",
          "name": "owner",
          "type": "address"
        }
      ],
      "name": "ERC1155MissingApprovalForAll",
      "type": "error"
    },
    {
      "inputs": [
        {
          "internalType": "address",
          "name": "owner",
          "type": "address"
        }
      ],
      "name": "OwnableInvalidOwner",
      "type": "error"
    },
    {
      "inputs": [
        {
          "internalType": "address",
          "name": "account",
          "type": "address"
        }
      ],
      "name": "OwnableUnauthorizedAccount",
      "type": "error"
    },
    {
      "anonymous": false,
      "inputs": [
        {
          "indexed": true,
          "internalType": "address",
          "name": "account",
          "type": "address"
        },
        {
          "indexed": true,
          "internalType": "address",
          "name": "operator",
          "type": "address"
        },
        {
          "indexed": false,
          "internalType": "bool",
          "name": "approved",
          "type": "bool"
        }
      ],
      "name": "ApprovalForAll",
      "type": "event"
    },
    {
      "anonymous": false,
      "inputs": [
        {
          "indexed": true,
          "internalType": "address",
          "name": "previousOwner",
          "type": "address"
        },
        {
          "indexed": true,
          "internalType": "address",
          "name": "newOwner",
          "type": "address"
        }
      ],
      "name": "OwnershipTransferred",
      "type": "event"
    },
    {
      "anonymous": false,
      "inputs": [
        {
          "indexed": true,
          "internalType": "address",
          "name": "operator",
          "type": "address"
        },
        {
          "indexed": true,
          "internalType": "address",
          "name": "from",
          "type": "address"
        },
        {
          "indexed": true,
          "internalType": "address",
          "name": "to",
          "type": "address"
        },
        {
          "indexed": false,
          "internalType": "uint256[]",
          "name": "ids",
          "type": "uint256[]"
        },
        {
          "indexed": false,
          "internalType": "uint256[]",
          "name": "values",
          "type": "uint256[]"
        }
      ],
      "name": "TransferBatch",
      "type": "event"
    },
    {
      "anonymous": false,
      "inputs": [
        {
          "indexed": true,
          "internalType": "address",
          "name": "operator",
          "type": "address"
        },
        {
          "indexed": true,
          "internalType": "address",
          "name": "from",
          "type": "address"
        },
        {
          "indexed": true,
          "internalType": "address",
          "name": "to",
          "type": "address"
        },
        {
          "indexed": false,
          "internalType": "uint256",
          "name": "id",
          "type": "uint256"
        },
        {
          "indexed": false,
          "internalType": "uint256",
          "name": "value",
          "type": "uint256"
        }
      ],
      "name": "TransferSingle",
      "type": "event"
    },
    {
      "anonymous": false,
      "inputs": [
        {
          "indexed": false,
          "internalType": "string",
          "name": "value",
          "type": "string"
        },
        {
          "indexed": true,
          "internalType": "uint256",
          "name": "id",
          "type": "uint256"
        }
      ],
      "name": "URI",
      "type": "event"
    },
    {
      "inputs": [],
      "name": "GREAT_BALL",
      "outputs": [
        {
          "internalType": "uint256",
          "name": "",
          "type": "uint256"
        }
      ],
      "stateMutability": "view",
      "type": "function"
    },
    {
      "inputs": [],
      "name": "MASTER_BALL",
      "outputs": [
        {
          "internalType": "uint256",
          "name": "",
          "type": "uint256"
        }
      ],
      "stateMutability": "view",
      "type": "function"
    },
    {
      "inputs": [],
      "name": "POKEBALL",
      "outputs": [
        {
          "internalType": "uint256",
          "name": "",
          "type": "uint256"
        }
      ],
      "stateMutability": "view",
      "type": "function"
    },
    {
      "inputs": [],
      "name": "ULTRA_BALL",
      "outputs": [
        {
          "internalType": "uint256",
          "name": "",
          "type": "uint256"
        }
      ],
      "stateMutability": "view",
      "type": "function"
    },
    {
      "inputs": [
        {
          "internalType": "address",
          "name": "account",
          "type": "address"
        },
        {
          "internalType": "uint256",
          "name": "id",
          "type": "uint256"
        }
      ],
      "name": "balanceOf",
      "outputs": [
        {
          "internalType": "uint256",
          "name": "",
          "type": "uint256"
        }
      ],
      "stateMutability": "view",
      "type": "function"
    },
    {
      "inputs": [
        {
          "internalType": "address[]",
          "name": "accounts",
          "type": "address[]"
        },
        {
          "internalType": "uint256[]",
          "name": "ids",
          "type": "uint256[]"
        }
      ],
      "name": "balanceOfBatch",
      "outputs": [
        {
          "internalType": "uint256[]",
          "name": "",
          "type": "uint256[]"
        }
      ],
      "stateMutability": "view",
      "type": "function"
    },
    {
      "inputs": [
        {
          "internalType": "address",
          "name": "account",
          "type": "address"
        },
        {
          "internalType": "address",
          "name": "operator",
          "type": "address"
        }
      ],
      "name": "isApprovedForAll",
      "outputs": [
        {
          "internalType": "bool",
          "name": "",
          "type": "bool"
        }
      ],
      "stateMutability": "view",
      "type": "function"
    },
    {
      "inputs": [
        {
          "internalType": "uint256",
          "name": "",
          "type": "uint256"
        }
      ],
      "name": "items",
      "outputs": [
        {
          "internalType": "string",
          "name": "name",
          "type": "string"
        },
        {
          "internalType": "string",
          "name": "itemType",
          "type": "string"
        },
        {
          "internalType": "uint256",
          "name": "price",
          "type": "uint256"
        },
        {
          "internalType": "bool",
          "name": "isAvailable",
          "type": "bool"
        }
      ],
      "stateMutability": "view",
      "type": "function"
    },
    {
      "inputs": [
        {
          "internalType": "uint256",
          "name": "itemId",
          "type": "uint256"
        },
        {
          "internalType": "uint256",
          "name": "amount",
          "type": "uint256"
        }
      ],
      "name": "mintItem",
      "outputs": [],
      "stateMutability": "payable",
      "type": "function"
    },
    {
      "inputs": [],
      "name": "owner",
      "outputs": [
        {
          "internalType": "address",
          "name": "",
          "type": "address"
        }
      ],
      "stateMutability": "view",
      "type": "function"
    },
    {
      "inputs": [],
      "name": "renounceOwnership",
      "outputs": [],
      "stateMutability": "nonpayable",
      "type": "function"
    },
    {
      "inputs": [
        {
          "internalType": "address",
          "name": "from",
          "type": "address"
        },
        {
          "internalType": "address",
          "name": "to",
          "type": "address"
        },
        {
          "internalType": "uint256[]",
          "name": "ids",
          "type": "uint256[]"
        },
        {
          "internalType": "uint256[]",
          "name": "values",
          "type": "uint256[]"
        },
        {
          "internalType": "bytes",
          "name": "data",
          "type": "bytes"
        }
      ],
      "name": "safeBatchTransferFrom",
      "outputs": [],
      "stateMutability": "nonpayable",
      "type": "function"
    },
    {
      "inputs": [
        {
          "internalType": "address",
          "name": "from",
          "type": "address"
        },
        {
          "internalType": "address",
          "name": "to",
          "type": "address"
        },
        {
          "internalType": "uint256",
          "name": "id",
          "type": "uint256"
        },
        {
          "internalType": "uint256",
          "name": "value",
          "type": "uint256"
        },
        {
          "internalType": "bytes",
          "name": "data",
          "type": "bytes"
        }
      ],
      "name": "safeTransferFrom",
      "outputs": [],
      "stateMutability": "nonpayable",
      "type": "function"
    },
    {
      "inputs": [
        {
          "internalType": "address",
          "name": "operator",
          "type": "address"
        },
        {
          "internalType": "bool",
          "name": "approved",
          "type": "bool"
        }
      ],
      "name": "setApprovalForAll",
      "outputs": [],
      "stateMutability": "nonpayable",
      "type": "function"
    },
    {
      "inputs": [
        {
          "internalType": "uint256",
          "name": "itemId",
          "type": "uint256"
        },
        {
          "internalType": "bool",
          "name": "isAvailable",
          "type": "bool"
        }
      ],
      "name": "setItemAvailability",
      "outputs": [],
      "stateMutability": "nonpayable",
      "type": "function"
    },
    {
      "inputs": [
        {
          "internalType": "uint256",
          "name": "itemId",
          "type": "uint256"
        },
        {
          "internalType": "uint256",
          "name": "newPrice",
          "type": "uint256"
        }
      ],
      "name": "setItemPrice",
      "outputs": [],
      "stateMutability": "nonpayable",
      "type": "function"
    },
    {
      "inputs": [
        {
          "internalType": "bytes4",
          "name": "interfaceId",
          "type": "bytes4"
        }
      ],
      "name": "supportsInterface",
      "outputs": [
        {
          "internalType": "bool",
          "name": "",
          "type": "bool"
        }
      ],
      "stateMutability": "view",
      "type": "function"
    },
    {
      "inputs": [
        {
          "internalType": "address",
          "name": "newOwner",
          "type": "address"
        }
      ],
      "name": "transferOwnership",
      "outputs": [],
      "stateMutability": "nonpayable",
      "type": "function"
    },
    {
      "inputs": [
        {
          "internalType": "uint256",
          "name": "",
          "type": "uint256"
        }
      ],
      "name": "uri",
      "outputs": [
        {
          "internalType": "string",
          "name": "",
          "type": "string"
        }
      ],
      "stateMutability": "view",
      "type": "function"
    },
    {
      "inputs": [],
      "name": "withdrawFunds",
      "outputs": [],
      "stateMutability": "nonpayable",
      "type": "function"
    }
  ],
  "bytecode": "0x60806040523480156200001157600080fd5b5060408051602081019091526000815233906200002e81620003da565b506001600160a01b0381166200005e57604051631e4fbdf760e01b81526000600482015260240160405180910390fd5b6200006981620003ec565b506040805160c08101825260086080820190815267141bdad958985b1b60c21b60a083015281528151808301835260048082526310985b1b60e21b6020838101919091528084019290925266038d7ea4c68000938301939093526001606083018190526000529190915280517fabd6e7cb50984ff9c2f3e18a2660c3353dadf4e3291deeb275dae2cd1e44fe05908190620001059082620004e3565b50602082015160018201906200011c9082620004e3565b506040828101516002838101919091556060938401516003909301805460ff191693151593909317909255805160c081018252600a608082019081526911dc99585d0810985b1b60b21b60a083015281528151808301835260048082526310985b1b60e21b6020838101919091528084019290925266071afd498d00009383019390935260019482019490945260009290925290915280517f91da3fd0782e51c6b3986e9e672fd566868e71f3dbc2d6c2cd6fbb3e361af2a7908190620001e49082620004e3565b5060208201516001820190620001fb9082620004e3565b5060408281015160028301556060928301516003928301805460ff1916911515919091179055805160c081018252600a6080820190815269155b1d1c984810985b1b60b21b60a083015281528151808301835260048082526310985b1b60e21b60208381019190915280840192909252660aa87bee5380009383019390935260019482019490945260009290925290915280517f2e174c10e159ea99b867ce3205125c24a42d128804e4070ed6fcc8cc98166aa0908190620002be9082620004e3565b5060208201516001820190620002d59082620004e3565b5060408281015160028301556060928301516003909201805460ff191692151592909217909155805160c081018252600b608082019081526a13585cdd195c8810985b1b60aa1b60a083015281528151808301835260048082526310985b1b60e21b60208381019190915280840192909252662386f26fc10000938301939093526001938201939093526000829052915280517f1a1e6821cde7d0159c0d293177871e09677b4e42307c7db3ba94f8648a5a050f908190620003989082620004e3565b5060208201516001820190620003af9082620004e3565b50604082015160028201556060909101516003909101805460ff1916911515919091179055620005af565b6002620003e88282620004e3565b5050565b600380546001600160a01b038381166001600160a01b0319831681179093556040519116919082907f8be0079c531659141344cd1fd0a4f28419497f9722a3daafe3b4186f6b6457e090600090a35050565b634e487b7160e01b600052604160045260246000fd5b600181811c908216806200046957607f821691505b6020821081036200048a57634e487b7160e01b600052602260045260246000fd5b50919050565b601f821115620004de57600081815260208120601f850160051c81016020861015620004b95750805b601f850160051c820191505b81811015620004da57828155600101620004c5565b5050505b505050565b81516001600160401b03811115620004ff57620004ff6200043e565b620005178162000510845462000454565b8462000490565b602080601f8311600181146200054f5760008415620005365750858301515b600019600386901b1c1916600185901b178555620004da565b600085815260208120601f198616915b8281101562000580578886015182559484019460019091019084016200055f565b50858210156200059f5787850151600019600388901b60f8161c191681555b5050505050600190811b01905550565b61179080620005bf6000396000f3fe60806040526004361061011e5760003560e01c80638da5cb5b116100a0578063e67fd78811610064578063e67fd78814610316578063e97d3af61461032b578063e985e9c51461034b578063f242432a1461036b578063f2fde38b1461038b57600080fd5b80638da5cb5b14610274578063a22cb4651461029c578063bfb231d2146102bc578063c4d86723146102ec578063ce24d7bc1461030157600080fd5b80632eb2c2d6116100e75780632eb2c2d6146101df5780634229c35e146101ff578063449de7791461021f5780634e1273f414610232578063715018a61461025f57600080fd5b8062fdd58e1461012357806301ffc9a7146101565780630e89341c14610186578063131cdd42146101b357806324600fc3146101c8575b600080fd5b34801561012f57600080fd5b5061014361013e36600461107f565b6103ab565b6040519081526020015b60405180910390f35b34801561016257600080fd5b506101766101713660046110bf565b6103d3565b604051901515815260200161014d565b34801561019257600080fd5b506101a66101a13660046110e3565b610423565b60405161014d9190611142565b3480156101bf57600080fd5b50610143600381565b3480156101d457600080fd5b506101dd6104b7565b005b3480156101eb57600080fd5b506101dd6101fa36600461129b565b6104fb565b34801561020b57600080fd5b506101dd61021a366004611345565b610567565b6101dd61022d366004611345565b610584565b34801561023e57600080fd5b5061025261024d366004611367565b61065c565b60405161014d9190611462565b34801561026b57600080fd5b506101dd610731565b34801561028057600080fd5b506003546040516001600160a01b03909116815260200161014d565b3480156102a857600080fd5b506101dd6102b7366004611485565b610745565b3480156102c857600080fd5b506102dc6102d73660046110e3565b610750565b60405161014d94939291906114b8565b3480156102f857600080fd5b50610143600281565b34801561030d57600080fd5b50610143600481565b34801561032257600080fd5b50610143600181565b34801561033757600080fd5b506101dd6103463660046114f6565b61088c565b34801561035757600080fd5b50610176610366366004611519565b6108b7565b34801561037757600080fd5b506101dd610386366004611543565b6108e5565b34801561039757600080fd5b506101dd6103a63660046115a8565b610944565b6000818152602081815260408083206001600160a01b03861684529091529020545b92915050565b60006001600160e01b03198216636cdb3d1360e11b148061040457506001600160e01b031982166303a24d0760e21b145b806103cd57506301ffc9a760e01b6001600160e01b03198316146103cd565b606060028054610432906115c3565b80601f016020809104026020016040519081016040528092919081815260200182805461045e906115c3565b80156104ab5780601f10610480576101008083540402835291602001916104ab565b820191906000526020600020905b81548152906001019060200180831161048e57829003601f168201915b50505050509050919050565b6104bf61097f565b6003546040516001600160a01b03909116904780156108fc02916000818181858888f193505050501580156104f8573d6000803e3d6000fd5b50565b336001600160a01b038616811480159061051c575061051a86826108b7565b155b156105525760405163711bec9160e11b81526001600160a01b038083166004830152871660248201526044015b60405180910390fd5b61055f86868686866109ac565b505050505050565b61056f61097f565b60009182526004602052604090912060020155565b60008281526004602052604090206003015460ff166105da5760405162461bcd60e51b81526020600482015260126024820152714974656d206e6f7420617661696c61626c6560701b6044820152606401610549565b6000828152600460205260409020600201546105f7908290611613565b34101561063d5760405162461bcd60e51b8152602060048201526014602482015273125b9cdd59999a58da595b9d081c185e5b595b9d60621b6044820152606401610549565b61065833838360405180602001604052806000815250610a13565b5050565b6060815183511461068d5781518351604051635b05999160e01b815260048101929092526024820152604401610549565b6000835167ffffffffffffffff8111156106a9576106a9611155565b6040519080825280602002602001820160405280156106d2578160200160208202803683370190505b50905060005b8451811015610729576020808202860101516106fc906020808402870101516103ab565b82828151811061070e5761070e61162a565b602090810291909101015261072281611640565b90506106d8565b509392505050565b61073961097f565b6107436000610a70565b565b610658338383610ac2565b60046020526000908152604090208054819061076b906115c3565b80601f0160208091040260200160405190810160405280929190818152602001828054610797906115c3565b80156107e45780601f106107b9576101008083540402835291602001916107e4565b820191906000526020600020905b8154815290600101906020018083116107c757829003601f168201915b5050505050908060010180546107f9906115c3565b80601f0160208091040260200160405190810160405280929190818152602001828054610825906115c3565b80156108725780601f1061084757610100808354040283529160200191610872565b820191906000526020600020905b81548152906001019060200180831161085557829003601f168201915b50505050600283015460039093015491929160ff16905084565b61089461097f565b600091825260046020526040909120600301805460ff1916911515919091179055565b6001600160a01b03918216600090815260016020908152604080832093909416825291909152205460ff1690565b336001600160a01b0386168114801590610906575061090486826108b7565b155b156109375760405163711bec9160e11b81526001600160a01b03808316600483015287166024820152604401610549565b61055f8686868686610b58565b61094c61097f565b6001600160a01b03811661097657604051631e4fbdf760e01b815260006004820152602401610549565b6104f881610a70565b6003546001600160a01b031633146107435760405163118cdaa760e01b8152336004820152602401610549565b6001600160a01b0384166109d657604051632bfa23e760e11b815260006004820152602401610549565b6001600160a01b0385166109ff57604051626a0d4560e21b815260006004820152602401610549565b610a0c8585858585610be6565b5050505050565b6001600160a01b038416610a3d57604051632bfa23e760e11b815260006004820152602401610549565b6040805160018082526020820186905281830190815260608201859052608082019092529061055f600087848487610be6565b600380546001600160a01b038381166001600160a01b0319831681179093556040519116919082907f8be0079c531659141344cd1fd0a4f28419497f9722a3daafe3b4186f6b6457e090600090a35050565b6001600160a01b038216610aeb5760405162ced3e160e81b815260006004820152602401610549565b6001600160a01b03838116600081815260016020908152604080832094871680845294825291829020805460ff191686151590811790915591519182527f17307eab39ab6107e8899845ad3d59bd9653f200f220920489ca2b5937696c31910160405180910390a3505050565b6001600160a01b038416610b8257604051632bfa23e760e11b815260006004820152602401610549565b6001600160a01b038516610bab57604051626a0d4560e21b815260006004820152602401610549565b60408051600180825260208201869052818301908152606082018590526080820190925290610bdd8787848487610be6565b50505050505050565b610bf285858585610c39565b6001600160a01b03841615610a0c5782513390600103610c2b5760208481015190840151610c24838989858589610e56565b505061055f565b61055f818787878787610f7a565b8051825114610c685781518151604051635b05999160e01b815260048101929092526024820152604401610549565b3360005b8351811015610d77576020818102858101820151908501909101516001600160a01b03881615610d1f576000828152602081815260408083206001600160a01b038c16845290915290205481811015610cf8576040516303dee4c560e01b81526001600160a01b038a166004820152602481018290526044810183905260648101849052608401610549565b6000838152602081815260408083206001600160a01b038d16845290915290209082900390555b6001600160a01b03871615610d64576000828152602081815260408083206001600160a01b038b16845290915281208054839290610d5e908490611659565b90915550505b505080610d7090611640565b9050610c6c565b508251600103610df85760208301516000906020840151909150856001600160a01b0316876001600160a01b0316846001600160a01b03167fc3d58168c5ae7397731d063d5bbf3d657854427343f4c083240f7aacaa2d0f628585604051610de9929190918252602082015260400190565b60405180910390a45050610a0c565b836001600160a01b0316856001600160a01b0316826001600160a01b03167f4a39dc06d4c0dbc64b70af90fd698a233a518aa5d07e595d983b8c0526c8f7fb8686604051610e4792919061166c565b60405180910390a45050505050565b6001600160a01b0384163b1561055f5760405163f23a6e6160e01b81526001600160a01b0385169063f23a6e6190610e9a908990899088908890889060040161169a565b6020604051808303816000875af1925050508015610ed5575060408051601f3d908101601f19168201909252610ed2918101906116df565b60015b610f3e573d808015610f03576040519150601f19603f3d011682016040523d82523d6000602084013e610f08565b606091505b508051600003610f3657604051632bfa23e760e11b81526001600160a01b0386166004820152602401610549565b805181602001fd5b6001600160e01b0319811663f23a6e6160e01b14610bdd57604051632bfa23e760e11b81526001600160a01b0386166004820152602401610549565b6001600160a01b0384163b1561055f5760405163bc197c8160e01b81526001600160a01b0385169063bc197c8190610fbe90899089908890889088906004016116fc565b6020604051808303816000875af1925050508015610ff9575060408051601f3d908101601f19168201909252610ff6918101906116df565b60015b611027573d808015610f03576040519150601f19603f3d011682016040523d82523d6000602084013e610f08565b6001600160e01b0319811663bc197c8160e01b14610bdd57604051632bfa23e760e11b81526001600160a01b0386166004820152602401610549565b80356001600160a01b038116811461107a57600080fd5b919050565b6000806040838503121561109257600080fd5b61109b83611063565b946020939093013593505050565b6001600160e01b0319811681146104f857600080fd5b6000602082840312156110d157600080fd5b81356110dc816110a9565b9392505050565b6000602082840312156110f557600080fd5b5035919050565b6000815180845260005b8181101561112257602081850181015186830182015201611106565b506000602082860101526020601f19601f83011685010191505092915050565b6020815260006110dc60208301846110fc565b634e487b7160e01b600052604160045260246000fd5b604051601f8201601f1916810167ffffffffffffffff8111828210171561119457611194611155565b604052919050565b600067ffffffffffffffff8211156111b6576111b6611155565b5060051b60200190565b600082601f8301126111d157600080fd5b813560206111e66111e18361119c565b61116b565b82815260059290921b8401810191818101908684111561120557600080fd5b8286015b848110156112205780358352918301918301611209565b509695505050505050565b600082601f83011261123c57600080fd5b813567ffffffffffffffff81111561125657611256611155565b611269601f8201601f191660200161116b565b81815284602083860101111561127e57600080fd5b816020850160208301376000918101602001919091529392505050565b600080600080600060a086880312156112b357600080fd5b6112bc86611063565b94506112ca60208701611063565b9350604086013567ffffffffffffffff808211156112e757600080fd5b6112f389838a016111c0565b9450606088013591508082111561130957600080fd5b61131589838a016111c0565b9350608088013591508082111561132b57600080fd5b506113388882890161122b565b9150509295509295909350565b6000806040838503121561135857600080fd5b50508035926020909101359150565b6000806040838503121561137a57600080fd5b823567ffffffffffffffff8082111561139257600080fd5b818501915085601f8301126113a657600080fd5b813560206113b66111e18361119c565b82815260059290921b840181019181810190898411156113d557600080fd5b948201945b838610156113fa576113eb86611063565b825294820194908201906113da565b9650508601359250508082111561141057600080fd5b5061141d858286016111c0565b9150509250929050565b600081518084526020808501945080840160005b838110156114575781518752958201959082019060010161143b565b509495945050505050565b6020815260006110dc6020830184611427565b8035801515811461107a57600080fd5b6000806040838503121561149857600080fd5b6114a183611063565b91506114af60208401611475565b90509250929050565b6080815260006114cb60808301876110fc565b82810360208401526114dd81876110fc565b6040840195909552505090151560609091015292915050565b6000806040838503121561150957600080fd5b823591506114af60208401611475565b6000806040838503121561152c57600080fd5b61153583611063565b91506114af60208401611063565b600080600080600060a0868803121561155b57600080fd5b61156486611063565b945061157260208701611063565b93506040860135925060608601359150608086013567ffffffffffffffff81111561159c57600080fd5b6113388882890161122b565b6000602082840312156115ba57600080fd5b6110dc82611063565b600181811c908216806115d757607f821691505b6020821081036115f757634e487b7160e01b600052602260045260246000fd5b50919050565b634e487b7160e01b600052601160045260246000fd5b80820281158282048414176103cd576103cd6115fd565b634e487b7160e01b600052603260045260246000fd5b600060018201611652576116526115fd565b5060010190565b808201808211156103cd576103cd6115fd565b60408152600061167f6040830185611427565b82810360208401526116918185611427565b95945050505050565b6001600160a01b03868116825285166020820152604081018490526060810183905260a0608082018190526000906116d4908301846110fc565b979650505050505050565b6000602082840312156116f157600080fd5b81516110dc816110a9565b6001600160a01b0386811682528516602082015260a06040820181905260009061172890830186611427565b828103606084015261173a8186611427565b9050828103608084015261174e81856110fc565b9897505050505050505056fea26469706673582212200f9554ea0208af4aff1176bf0f5fef475c8cb572c805eb98dd796510024c868d64736f6c63430008140033",
  "linkReferences": {},
  "deployedLinkReferences": {}
}