{
  "_format": "hh-sol-artifact-1",
  "contractName": "PokemonNFT",
  "sourceName": "contracts/PokeContract.sol",
  "abi": [
    {
      "inputs": [],
      "stateMutability": "nonpayable",
      "type": "constructor"
    },
    {
      "inputs": [
        {
          "internalType": "address",
          "name": "sender",
          "type": "address"
        },
        {
          "internalType": "uint256",
          "name": "balance",
          "type": "uint256"
        },
        {
          "internalType": "uint256",
          "name": "needed",
          "type": "uint256"
        },
        {
          "internalType": "uint256",
          "name": "tokenId",
          "type": "uint256"
        }
      ],
      "name": "ERC1155InsufficientBalance",
      "type": "error"
    },
    {
      "inputs": [
        {
          "internalType": "address",
          "name": "approver",
          "type": "address"
        }
      ],
      "name": "ERC1155InvalidApprover",
      "type": "error"
    },
    {
      "inputs": [
        {
          "internalType": "uint256",
          "name": "idsLength",
          "type": "uint256"
        },
        {
          "internalType": "uint256",
          "name": "valuesLength",
          "type": "uint256"
        }
      ],
      "name": "ERC1155InvalidArrayLength",
      "type": "error"
    },
    {
      "inputs": [
        {
          "internalType": "address",
          "name": "operator",
          "type": "address"
        }
      ],
      "name": "ERC1155InvalidOperator",
      "type": "error"
    },
    {
      "inputs": [
        {
          "internalType": "address",
          "name": "receiver",
          "type": "address"
        }
      ],
      "name": "ERC1155InvalidReceiver",
      "type": "error"
    },
    {
      "inputs": [
        {
          "internalType": "address",
          "name": "sender",
          "type": "address"
        }
      ],
      "name": "ERC1155InvalidSender",
      "type": "error"
    },
    {
      "inputs": [
        {
          "internalType": "address",
          "name": "operator",
          "type": "address"
        },
        {
          "internalType": "address",
          "name": "owner",
          "type": "address"
        }
      ],
      "name": "ERC1155MissingApprovalForAll",
      "type": "error"
    },
    {
      "inputs": [
        {
          "internalType": "address",
          "name": "owner",
          "type": "address"
        }
      ],
      "name": "OwnableInvalidOwner",
      "type": "error"
    },
    {
      "inputs": [
        {
          "internalType": "address",
          "name": "account",
          "type": "address"
        }
      ],
      "name": "OwnableUnauthorizedAccount",
      "type": "error"
    },
    {
      "anonymous": false,
      "inputs": [
        {
          "indexed": true,
          "internalType": "address",
          "name": "account",
          "type": "address"
        },
        {
          "indexed": true,
          "internalType": "address",
          "name": "operator",
          "type": "address"
        },
        {
          "indexed": false,
          "internalType": "bool",
          "name": "approved",
          "type": "bool"
        }
      ],
      "name": "ApprovalForAll",
      "type": "event"
    },
    {
      "anonymous": false,
      "inputs": [
        {
          "indexed": true,
          "internalType": "address",
          "name": "previousOwner",
          "type": "address"
        },
        {
          "indexed": true,
          "internalType": "address",
          "name": "newOwner",
          "type": "address"
        }
      ],
      "name": "OwnershipTransferred",
      "type": "event"
    },
    {
      "anonymous": false,
      "inputs": [
        {
          "indexed": true,
          "internalType": "uint256",
          "name": "pokemonId",
          "type": "uint256"
        },
        {
          "indexed": false,
          "internalType": "uint256",
          "name": "groundId",
          "type": "uint256"
        },
        {
          "indexed": false,
          "internalType": "uint256",
          "name": "xpGained",
          "type": "uint256"
        }
      ],
      "name": "TrainingCompleted",
      "type": "event"
    },
    {
      "anonymous": false,
      "inputs": [
        {
          "indexed": true,
          "internalType": "uint256",
          "name": "pokemonId",
          "type": "uint256"
        },
        {
          "indexed": false,
          "internalType": "uint256",
          "name": "groundId",
          "type": "uint256"
        },
        {
          "indexed": false,
          "internalType": "uint256",
          "name": "startTime",
          "type": "uint256"
        }
      ],
      "name": "TrainingStarted",
      "type": "event"
    },
    {
      "anonymous": false,
      "inputs": [
        {
          "indexed": true,
          "internalType": "address",
          "name": "operator",
          "type": "address"
        },
        {
          "indexed": true,
          "internalType": "address",
          "name": "from",
          "type": "address"
        },
        {
          "indexed": true,
          "internalType": "address",
          "name": "to",
          "type": "address"
        },
        {
          "indexed": false,
          "internalType": "uint256[]",
          "name": "ids",
          "type": "uint256[]"
        },
        {
          "indexed": false,
          "internalType": "uint256[]",
          "name": "values",
          "type": "uint256[]"
        }
      ],
      "name": "TransferBatch",
      "type": "event"
    },
    {
      "anonymous": false,
      "inputs": [
        {
          "indexed": true,
          "internalType": "address",
          "name": "operator",
          "type": "address"
        },
        {
          "indexed": true,
          "internalType": "address",
          "name": "from",
          "type": "address"
        },
        {
          "indexed": true,
          "internalType": "address",
          "name": "to",
          "type": "address"
        },
        {
          "indexed": false,
          "internalType": "uint256",
          "name": "id",
          "type": "uint256"
        },
        {
          "indexed": false,
          "internalType": "uint256",
          "name": "value",
          "type": "uint256"
        }
      ],
      "name": "TransferSingle",
      "type": "event"
    },
    {
      "anonymous": false,
      "inputs": [
        {
          "indexed": false,
          "internalType": "string",
          "name": "value",
          "type": "string"
        },
        {
          "indexed": true,
          "internalType": "uint256",
          "name": "id",
          "type": "uint256"
        }
      ],
      "name": "URI",
      "type": "event"
    },
    {
      "inputs": [],
      "name": "BASIC_TRAINING",
      "outputs": [
        {
          "internalType": "uint256",
          "name": "",
          "type": "uint256"
        }
      ],
      "stateMutability": "view",
      "type": "function"
    },
    {
      "inputs": [],
      "name": "FIRE_DOJO",
      "outputs": [
        {
          "internalType": "uint256",
          "name": "",
          "type": "uint256"
        }
      ],
      "stateMutability": "view",
      "type": "function"
    },
    {
      "inputs": [],
      "name": "GRASS_GARDEN",
      "outputs": [
        {
          "internalType": "uint256",
          "name": "",
          "type": "uint256"
        }
      ],
      "stateMutability": "view",
      "type": "function"
    },
    {
      "inputs": [],
      "name": "MIN_TRAINING_TIME",
      "outputs": [
        {
          "internalType": "uint256",
          "name": "",
          "type": "uint256"
        }
      ],
      "stateMutability": "view",
      "type": "function"
    },
    {
      "inputs": [],
      "name": "TYPE_BONUS_MULTIPLIER",
      "outputs": [
        {
          "internalType": "uint256",
          "name": "",
          "type": "uint256"
        }
      ],
      "stateMutability": "view",
      "type": "function"
    },
    {
      "inputs": [],
      "name": "WATER_TEMPLE",
      "outputs": [
        {
          "internalType": "uint256",
          "name": "",
          "type": "uint256"
        }
      ],
      "stateMutability": "view",
      "type": "function"
    },
    {
      "inputs": [
        {
          "internalType": "address",
          "name": "account",
          "type": "address"
        },
        {
          "internalType": "uint256",
          "name": "id",
          "type": "uint256"
        }
      ],
      "name": "balanceOf",
      "outputs": [
        {
          "internalType": "uint256",
          "name": "",
          "type": "uint256"
        }
      ],
      "stateMutability": "view",
      "type": "function"
    },
    {
      "inputs": [
        {
          "internalType": "address[]",
          "name": "accounts",
          "type": "address[]"
        },
        {
          "internalType": "uint256[]",
          "name": "ids",
          "type": "uint256[]"
        }
      ],
      "name": "balanceOfBatch",
      "outputs": [
        {
          "internalType": "uint256[]",
          "name": "",
          "type": "uint256[]"
        }
      ],
      "stateMutability": "view",
      "type": "function"
    },
    {
      "inputs": [
        {
          "internalType": "uint256",
          "name": "pokemonId",
          "type": "uint256"
        },
        {
          "internalType": "uint256",
          "name": "groundId",
          "type": "uint256"
        }
      ],
      "name": "endTraining",
      "outputs": [],
      "stateMutability": "nonpayable",
      "type": "function"
    },
    {
      "inputs": [
        {
          "internalType": "uint256",
          "name": "tokenId",
          "type": "uint256"
        }
      ],
      "name": "getPokemonData",
      "outputs": [
        {
          "components": [
            {
              "internalType": "string",
              "name": "name",
              "type": "string"
            },
            {
              "internalType": "string",
              "name": "pokemonType",
              "type": "string"
            },
            {
              "internalType": "uint256",
              "name": "level",
              "type": "uint256"
            },
            {
              "internalType": "uint256",
              "name": "xp",
              "type": "uint256"
            },
            {
              "internalType": "uint256",
              "name": "trainingStartTime",
              "type": "uint256"
            },
            {
              "internalType": "bool",
              "name": "isTraining",
              "type": "bool"
            }
          ],
          "internalType": "struct PokemonNFT.Pokemon",
          "name": "",
          "type": "tuple"
        }
      ],
      "stateMutability": "view",
      "type": "function"
    },
    {
      "inputs": [
        {
          "internalType": "uint256",
          "name": "groundId",
          "type": "uint256"
        }
      ],
      "name": "getTrainingGround",
      "outputs": [
        {
          "components": [
            {
              "internalType": "string",
              "name": "name",
              "type": "string"
            },
            {
              "internalType": "uint256",
              "name": "xpPerHour",
              "type": "uint256"
            },
            {
              "internalType": "string",
              "name": "requiredType",
              "type": "string"
            },
            {
              "internalType": "uint256",
              "name": "minLevel",
              "type": "uint256"
            }
          ],
          "internalType": "struct PokemonNFT.TrainingGround",
          "name": "",
          "type": "tuple"
        }
      ],
      "stateMutability": "view",
      "type": "function"
    },
    {
      "inputs": [
        {
          "internalType": "address",
          "name": "",
          "type": "address"
        }
      ],
      "name": "hasStarterPokemon",
      "outputs": [
        {
          "internalType": "bool",
          "name": "",
          "type": "bool"
        }
      ],
      "stateMutability": "view",
      "type": "function"
    },
    {
      "inputs": [
        {
          "internalType": "address",
          "name": "account",
          "type": "address"
        },
        {
          "internalType": "address",
          "name": "operator",
          "type": "address"
        }
      ],
      "name": "isApprovedForAll",
      "outputs": [
        {
          "internalType": "bool",
          "name": "",
          "type": "bool"
        }
      ],
      "stateMutability": "view",
      "type": "function"
    },
    {
      "inputs": [
        {
          "internalType": "uint256",
          "name": "pokemonId",
          "type": "uint256"
        }
      ],
      "name": "mintStarterPokemon",
      "outputs": [],
      "stateMutability": "nonpayable",
      "type": "function"
    },
    {
      "inputs": [],
      "name": "owner",
      "outputs": [
        {
          "internalType": "address",
          "name": "",
          "type": "address"
        }
      ],
      "stateMutability": "view",
      "type": "function"
    },
    {
      "inputs": [
        {
          "internalType": "uint256",
          "name": "",
          "type": "uint256"
        }
      ],
      "name": "pokemonData",
      "outputs": [
        {
          "internalType": "string",
          "name": "name",
          "type": "string"
        },
        {
          "internalType": "string",
          "name": "pokemonType",
          "type": "string"
        },
        {
          "internalType": "uint256",
          "name": "level",
          "type": "uint256"
        },
        {
          "internalType": "uint256",
          "name": "xp",
          "type": "uint256"
        },
        {
          "internalType": "uint256",
          "name": "trainingStartTime",
          "type": "uint256"
        },
        {
          "internalType": "bool",
          "name": "isTraining",
          "type": "bool"
        }
      ],
      "stateMutability": "view",
      "type": "function"
    },
    {
      "inputs": [],
      "name": "renounceOwnership",
      "outputs": [],
      "stateMutability": "nonpayable",
      "type": "function"
    },
    {
      "inputs": [
        {
          "internalType": "address",
          "name": "from",
          "type": "address"
        },
        {
          "internalType": "address",
          "name": "to",
          "type": "address"
        },
        {
          "internalType": "uint256[]",
          "name": "ids",
          "type": "uint256[]"
        },
        {
          "internalType": "uint256[]",
          "name": "values",
          "type": "uint256[]"
        },
        {
          "internalType": "bytes",
          "name": "data",
          "type": "bytes"
        }
      ],
      "name": "safeBatchTransferFrom",
      "outputs": [],
      "stateMutability": "nonpayable",
      "type": "function"
    },
    {
      "inputs": [
        {
          "internalType": "address",
          "name": "from",
          "type": "address"
        },
        {
          "internalType": "address",
          "name": "to",
          "type": "address"
        },
        {
          "internalType": "uint256",
          "name": "id",
          "type": "uint256"
        },
        {
          "internalType": "uint256",
          "name": "value",
          "type": "uint256"
        },
        {
          "internalType": "bytes",
          "name": "data",
          "type": "bytes"
        }
      ],
      "name": "safeTransferFrom",
      "outputs": [],
      "stateMutability": "nonpayable",
      "type": "function"
    },
    {
      "inputs": [
        {
          "internalType": "address",
          "name": "operator",
          "type": "address"
        },
        {
          "internalType": "bool",
          "name": "approved",
          "type": "bool"
        }
      ],
      "name": "setApprovalForAll",
      "outputs": [],
      "stateMutability": "nonpayable",
      "type": "function"
    },
    {
      "inputs": [
        {
          "internalType": "string",
          "name": "newBaseURI",
          "type": "string"
        }
      ],
      "name": "setBaseURI",
      "outputs": [],
      "stateMutability": "nonpayable",
      "type": "function"
    },
    {
      "inputs": [
        {
          "internalType": "uint256",
          "name": "pokemonId",
          "type": "uint256"
        },
        {
          "internalType": "uint256",
          "name": "groundId",
          "type": "uint256"
        }
      ],
      "name": "startTraining",
      "outputs": [],
      "stateMutability": "nonpayable",
      "type": "function"
    },
    {
      "inputs": [
        {
          "internalType": "bytes4",
          "name": "interfaceId",
          "type": "bytes4"
        }
      ],
      "name": "supportsInterface",
      "outputs": [
        {
          "internalType": "bool",
          "name": "",
          "type": "bool"
        }
      ],
      "stateMutability": "view",
      "type": "function"
    },
    {
      "inputs": [
        {
          "internalType": "uint256",
          "name": "",
          "type": "uint256"
        }
      ],
      "name": "trainingGrounds",
      "outputs": [
        {
          "internalType": "string",
          "name": "name",
          "type": "string"
        },
        {
          "internalType": "uint256",
          "name": "xpPerHour",
          "type": "uint256"
        },
        {
          "internalType": "string",
          "name": "requiredType",
          "type": "string"
        },
        {
          "internalType": "uint256",
          "name": "minLevel",
          "type": "uint256"
        }
      ],
      "stateMutability": "view",
      "type": "function"
    },
    {
      "inputs": [
        {
          "internalType": "address",
          "name": "newOwner",
          "type": "address"
        }
      ],
      "name": "transferOwnership",
      "outputs": [],
      "stateMutability": "nonpayable",
      "type": "function"
    },
    {
      "inputs": [
        {
          "internalType": "uint256",
          "name": "tokenId",
          "type": "uint256"
        }
      ],
      "name": "uri",
      "outputs": [
        {
          "internalType": "string",
          "name": "",
          "type": "string"
        }
      ],
      "stateMutability": "view",
      "type": "function"
    }
  ],
  "bytecode": "0x60806040523480156200001157600080fd5b5060408051602081019091526000815233906200002e8162000652565b506001600160a01b0381166200005e57604051631e4fbdf760e01b81526000600482015260240160405180910390fd5b620000698162000664565b506040805161010081018252600960c0820190815268213ab63130b9b0bab960b91b60e0830152815281518083018352600580825264477261737360d81b60208381019190915280840192909252928201929092526000606082018190526080820181905260a0820181905260019052600490915280517fabd6e7cb50984ff9c2f3e18a2660c3353dadf4e3291deeb275dae2cd1e44fe059081906200011090826200075b565b50602082015160018201906200012790826200075b565b506040828101516002830155606080840151600384015560808085015160048086019190915560a0958601516005958601805460ff1916911515919091179055835161010081018552600a60c082019081526921b430b936b0b73232b960b11b60e0830152815284518086018652828152634669726560e01b602082810191909152808301919091529481019590955260009285018390529084018290529383018190528390529190915280517f1a1e6821cde7d0159c0d293177871e09677b4e42307c7db3ba94f8648a5a050f9081906200020490826200075b565b50602082015160018201906200021b90826200075b565b506040828101516002830155606080840151600384015560808085015160048086019190915560a0958601516005958601805460ff1916911515919091179055835161010081018552600860c08201908152675371756972746c6560c01b60e0830152815284518086018652868152642bb0ba32b960d91b60208281019190915280830191909152948101959095526000928501839052908401829052938301819052600790529190915280517fbeb3bad75134cb432e5707980e3245c52c5998a1125ee30f2f0dbf3925b1e551908190620002f890826200075b565b50602082015160018201906200030f90826200075b565b5060408281015160028301556060808401516003840155608080850151600485015560a0948501516005909401805460ff191694151594909417909355815160c081018352600e9381019384526d426173696320547261696e696e6760901b94810194909452918352600a6020808501919091528151808201835260008082529285015260019284018390529190526006905280517f3e5fec24aa4dc4e5aee2e025e51e1392c72a2500577559fae9665c6d52bd6a31908190620003d490826200075b565b506020820151600182015560408201516002820190620003f590826200075b565b506060918201516003909101556040805160c081018252600960808201908152684669726520446f6a6f60b81b60a0830152815260146020808301919091528251808401845260048152634669726560e01b818301529282019290925260059281019290925260026000526006905280517f8819ef417987f8ae7a81f42cdfb18815282fe989326fbff903d13cf0e03ace299081906200049690826200075b565b506020820151600182015560408201516002820190620004b790826200075b565b506060918201516003918201556040805160c081018252600c608082019081526b57617465722054656d706c6560a01b60a083015281526014602080830191909152825180840184526005808252642bb0ba32b960d91b828401529383015293810191909152600091909152600690915280517f75f96ab15d697e93042dc45b5c896c4b27e89bb6eaf39475c5c371cb2513f7d29081906200055a90826200075b565b5060208201516001820155604082015160028201906200057b90826200075b565b506060918201516003909101556040805160c081018252600c608082019081526b23b930b9b99023b0b93232b760a11b60a08301528152601460208083019190915282518084018452600580825264477261737360d81b8284015293830152928101919091526004600052600690915280517fc5069e24aaadb2addc3e52e868fcf3f4f8acf5a87e24300992fd4540c2a87eed9081906200061d90826200075b565b5060208201516001820155604082015160028201906200063e90826200075b565b506060820151816003015590505062000827565b60026200066082826200075b565b5050565b600380546001600160a01b038381166001600160a01b0319831681179093556040519116919082907f8be0079c531659141344cd1fd0a4f28419497f9722a3daafe3b4186f6b6457e090600090a35050565b634e487b7160e01b600052604160045260246000fd5b600181811c90821680620006e157607f821691505b6020821081036200070257634e487b7160e01b600052602260045260246000fd5b50919050565b601f8211156200075657600081815260208120601f850160051c81016020861015620007315750805b601f850160051c820191505b8181101562000752578281556001016200073d565b5050505b505050565b81516001600160401b03811115620007775762000777620006b6565b6200078f81620007888454620006cc565b8462000708565b602080601f831160018114620007c75760008415620007ae5750858301515b600019600386901b1c1916600185901b17855562000752565b600085815260208120601f198616915b82811015620007f857888601518255948401946001909101908401620007d7565b5085821015620008175787850151600019600388901b60f8161c191681555b5050505050600190811b01905550565b61245980620008376000396000f3fe608060405234801561001057600080fd5b506004361061018d5760003560e01c8063715018a6116100de578063de23cfca11610097578063f17f767a11610071578063f17f767a14610376578063f242432a1461037e578063f2fde38b14610391578063fb1224e5146103a457600080fd5b8063de23cfca1461032d578063e47248dc14610350578063e985e9c51461036357600080fd5b8063715018a6146102b75780637506bf69146102bf5780638da5cb5b146102d2578063a22cb465146102ed578063b8708c4214610300578063c1b2c1ae1461030857600080fd5b80632273c74e1161014b5780634e1273f4116101255780634e1273f41461025c5780634f13b1641461027c57806355f804b31461029c5780636af783ea146102af57600080fd5b80632273c74e146102215780632c17a522146102415780632eb2c2d61461024957600080fd5b8062fdd58e1461019257806301ffc9a7146101b85780630e89341c146101db5780630f8ea1c2146101fb5780630fccc07214610203578063154aa2a81461020c575b600080fd5b6101a56101a03660046119fc565b6103c7565b6040519081526020015b60405180910390f35b6101cb6101c6366004611a3c565b6103ef565b60405190151581526020016101af565b6101ee6101e9366004611a60565b61043f565b6040516101af9190611ac9565b6101a5609681565b6101a5610e1081565b61021f61021a366004611adc565b610473565b005b61023461022f366004611a60565b6105e6565b6040516101af9190611afe565b6101a5600481565b61021f610257366004611cbc565b610791565b61026f61026a366004611d66565b6107f8565b6040516101af9190611e61565b61028f61028a366004611a60565b6108cd565b6040516101af9190611e74565b61021f6102aa366004611ece565b610a4f565b6101a5600381565b61021f610a67565b61021f6102cd366004611adc565b610a7b565b6003546040516001600160a01b0390911681526020016101af565b61021f6102fb366004611f1f565b610d3c565b6101a5600281565b61031b610316366004611a60565b610d47565b6040516101af96959493929190611f5b565b6101cb61033b366004611fa8565b60056020526000908152604090205460ff1681565b61021f61035e366004611a60565b610e8f565b6101cb610371366004611fc3565b610f8e565b6101a5600181565b61021f61038c366004611ff6565b610fbc565b61021f61039f366004611fa8565b61101b565b6103b76103b2366004611a60565b611059565b6040516101af949392919061205b565b6000818152602081815260408083206001600160a01b03861684529091529020545b92915050565b60006001600160e01b03198216636cdb3d1360e11b148061042057506001600160e01b031982166303a24d0760e21b145b806103e957506301ffc9a760e01b6001600160e01b03198316146103e9565b6060600761044c83611191565b60405160200161045d929190612145565b6040516020818303038152906040529050919050565b600061047f33846103c7565b116104c45760405162461bcd60e51b815260206004820152601060248201526f2737ba103cb7bab9102837b5b2b6b7b760811b60448201526064015b60405180910390fd5b60008281526004602052604090206005015460ff16156105195760405162461bcd60e51b815260206004820152601060248201526f416c726561647920747261696e696e6760801b60448201526064016104bb565b600081815260066020908152604080832060030154858452600490925290912060020154101561057b5760405162461bcd60e51b815260206004820152600d60248201526c4c6576656c20746f6f206c6f7760981b60448201526064016104bb565b60008281526004602081905260409182902060058101805460ff19166001179055429101819055905183917f1ec33602afef38dd401d03630f0a99444fae8d2cca4f187b3368262dc152df80916105da91858252602082015260400190565b60405180910390a25050565b6106216040518060c0016040528060608152602001606081526020016000815260200160008152602001600081526020016000151581525090565b60008281526004602052604090819020815160c0810190925280548290829061064990612098565b80601f016020809104026020016040519081016040528092919081815260200182805461067590612098565b80156106c25780601f10610697576101008083540402835291602001916106c2565b820191906000526020600020905b8154815290600101906020018083116106a557829003601f168201915b505050505081526020016001820180546106db90612098565b80601f016020809104026020016040519081016040528092919081815260200182805461070790612098565b80156107545780601f1061072957610100808354040283529160200191610754565b820191906000526020600020905b81548152906001019060200180831161073757829003601f168201915b505050918352505060028201546020820152600382015460408201526004820154606082015260059091015460ff16151560809091015292915050565b336001600160a01b03861681148015906107b257506107b08682610f8e565b155b156107e35760405163711bec9160e11b81526001600160a01b038083166004830152871660248201526044016104bb565b6107f08686868686611224565b505050505050565b606081518351146108295781518351604051635b05999160e01b8152600481019290925260248201526044016104bb565b6000835167ffffffffffffffff81111561084557610845611b6e565b60405190808252806020026020018201604052801561086e578160200160208202803683370190505b50905060005b84518110156108c557602080820286010151610898906020808402870101516103c7565b8282815181106108aa576108aa61217a565b60209081029190910101526108be816121a6565b9050610874565b509392505050565b6108f86040518060800160405280606081526020016000815260200160608152602001600081525090565b6000828152600660205260409081902081516080810190925280548290829061092090612098565b80601f016020809104026020016040519081016040528092919081815260200182805461094c90612098565b80156109995780601f1061096e57610100808354040283529160200191610999565b820191906000526020600020905b81548152906001019060200180831161097c57829003601f168201915b50505050508152602001600182015481526020016002820180546109bc90612098565b80601f01602080910402602001604051908101604052809291908181526020018280546109e890612098565b8015610a355780601f10610a0a57610100808354040283529160200191610a35565b820191906000526020600020905b815481529060010190602001808311610a1857829003601f168201915b505050505081526020016003820154815250509050919050565b610a5761128b565b6007610a63828261220a565b5050565b610a6f61128b565b610a7960006112b8565b565b6000610a8733846103c7565b11610ac75760405162461bcd60e51b815260206004820152601060248201526f2737ba103cb7bab9102837b5b2b6b7b760811b60448201526064016104bb565b60008281526004602052604090206005015460ff16610b175760405162461bcd60e51b815260206004820152600c60248201526b4e6f7420747261696e696e6760a01b60448201526064016104bb565b60008281526004602081905260409091200154610b3790610e10906122ca565b421015610b865760405162461bcd60e51b815260206004820152601960248201527f4d696e20747261696e696e672074696d65206e6f74206d65740000000000000060448201526064016104bb565b600082815260046020819052604082200154610ba290426122dd565b90506000610bb2610e10836122f0565b60008481526006602052604081206001015491925090610bd29083612312565b905060066000858152602001908152602001600020600201604051610bf79190612329565b6040805191829003822060008881526004602052919091209091610c1e9160010190612329565b604051809103902003610c45576064610c38609683612312565b610c4291906122f0565b90505b60008581526004602052604081206003018054839290610c669084906122ca565b90915550505b600085815260046020526040902060030154606411610cd9576000858152600460205260408120600201805460019290610ca79084906122ca565b90915550506000858152600460205260408120600301805460649290610cce9084906122dd565b90915550610c6c9050565b600085815260046020818152604080842060058101805460ff1916905590920192909255805186815291820183905286917f0ccc42750d9dce02f33355c35d96f5b942523df7acac68e43b23572a50c9f25f910160405180910390a25050505050565b610a6333838361130a565b600460205260009081526040902080548190610d6290612098565b80601f0160208091040260200160405190810160405280929190818152602001828054610d8e90612098565b8015610ddb5780601f10610db057610100808354040283529160200191610ddb565b820191906000526020600020905b815481529060010190602001808311610dbe57829003601f168201915b505050505090806001018054610df090612098565b80601f0160208091040260200160405190810160405280929190818152602001828054610e1c90612098565b8015610e695780601f10610e3e57610100808354040283529160200191610e69565b820191906000526020600020905b815481529060010190602001808311610e4c57829003601f168201915b505050506002830154600384015460048501546005909501549394919390925060ff1686565b8060011480610e9e5750806004145b80610ea95750806007145b610ef55760405162461bcd60e51b815260206004820152601760248201527f496e76616c6964207374617274657220506f6b656d6f6e00000000000000000060448201526064016104bb565b3360009081526005602052604090205460ff1615610f555760405162461bcd60e51b815260206004820152601b60248201527f416c726561647920686173207374617274657220506f6b656d6f6e000000000060448201526064016104bb565b610f7133826001604051806020016040528060008152506113a0565b50336000908152600560205260409020805460ff19166001179055565b6001600160a01b03918216600090815260016020908152604080832093909416825291909152205460ff1690565b336001600160a01b0386168114801590610fdd5750610fdb8682610f8e565b155b1561100e5760405163711bec9160e11b81526001600160a01b038083166004830152871660248201526044016104bb565b6107f086868686866113fd565b61102361128b565b6001600160a01b03811661104d57604051631e4fbdf760e01b8152600060048201526024016104bb565b611056816112b8565b50565b60066020526000908152604090208054819061107490612098565b80601f01602080910402602001604051908101604052809291908181526020018280546110a090612098565b80156110ed5780601f106110c2576101008083540402835291602001916110ed565b820191906000526020600020905b8154815290600101906020018083116110d057829003601f168201915b50505050509080600101549080600201805461110890612098565b80601f016020809104026020016040519081016040528092919081815260200182805461113490612098565b80156111815780601f1061115657610100808354040283529160200191611181565b820191906000526020600020905b81548152906001019060200180831161116457829003601f168201915b5050505050908060030154905084565b6060600061119e8361148b565b600101905060008167ffffffffffffffff8111156111be576111be611b6e565b6040519080825280601f01601f1916602001820160405280156111e8576020820181803683370190505b5090508181016020015b600019016f181899199a1a9b1b9c1cb0b131b232b360811b600a86061a8153600a85049450846111f257509392505050565b6001600160a01b03841661124e57604051632bfa23e760e11b8152600060048201526024016104bb565b6001600160a01b03851661127757604051626a0d4560e21b8152600060048201526024016104bb565b6112848585858585611563565b5050505050565b6003546001600160a01b03163314610a795760405163118cdaa760e01b81523360048201526024016104bb565b600380546001600160a01b038381166001600160a01b0319831681179093556040519116919082907f8be0079c531659141344cd1fd0a4f28419497f9722a3daafe3b4186f6b6457e090600090a35050565b6001600160a01b0382166113335760405162ced3e160e81b8152600060048201526024016104bb565b6001600160a01b03838116600081815260016020908152604080832094871680845294825291829020805460ff191686151590811790915591519182527f17307eab39ab6107e8899845ad3d59bd9653f200f220920489ca2b5937696c31910160405180910390a3505050565b6001600160a01b0384166113ca57604051632bfa23e760e11b8152600060048201526024016104bb565b604080516001808252602082018690528183019081526060820185905260808201909252906107f0600087848487611563565b6001600160a01b03841661142757604051632bfa23e760e11b8152600060048201526024016104bb565b6001600160a01b03851661145057604051626a0d4560e21b8152600060048201526024016104bb565b604080516001808252602082018690528183019081526060820185905260808201909252906114828787848487611563565b50505050505050565b60008072184f03e93ff9f4daa797ed6e38ed64bf6a1f0160401b83106114ca5772184f03e93ff9f4daa797ed6e38ed64bf6a1f0160401b830492506040015b6d04ee2d6d415b85acef810000000083106114f6576d04ee2d6d415b85acef8100000000830492506020015b662386f26fc10000831061151457662386f26fc10000830492506010015b6305f5e100831061152c576305f5e100830492506008015b612710831061154057612710830492506004015b60648310611552576064830492506002015b600a83106103e95760010192915050565b61156f858585856115b6565b6001600160a01b0384161561128457825133906001036115a857602084810151908401516115a18389898585896117d3565b50506107f0565b6107f08187878787876118f7565b80518251146115e55781518151604051635b05999160e01b8152600481019290925260248201526044016104bb565b3360005b83518110156116f4576020818102858101820151908501909101516001600160a01b0388161561169c576000828152602081815260408083206001600160a01b038c16845290915290205481811015611675576040516303dee4c560e01b81526001600160a01b038a1660048201526024810182905260448101839052606481018490526084016104bb565b6000838152602081815260408083206001600160a01b038d16845290915290209082900390555b6001600160a01b038716156116e1576000828152602081815260408083206001600160a01b038b168452909152812080548392906116db9084906122ca565b90915550505b5050806116ed906121a6565b90506115e9565b5082516001036117755760208301516000906020840151909150856001600160a01b0316876001600160a01b0316846001600160a01b03167fc3d58168c5ae7397731d063d5bbf3d657854427343f4c083240f7aacaa2d0f628585604051611766929190918252602082015260400190565b60405180910390a45050611284565b836001600160a01b0316856001600160a01b0316826001600160a01b03167f4a39dc06d4c0dbc64b70af90fd698a233a518aa5d07e595d983b8c0526c8f7fb86866040516117c4929190612335565b60405180910390a45050505050565b6001600160a01b0384163b156107f05760405163f23a6e6160e01b81526001600160a01b0385169063f23a6e61906118179089908990889088908890600401612363565b6020604051808303816000875af1925050508015611852575060408051601f3d908101601f1916820190925261184f918101906123a8565b60015b6118bb573d808015611880576040519150601f19603f3d011682016040523d82523d6000602084013e611885565b606091505b5080516000036118b357604051632bfa23e760e11b81526001600160a01b03861660048201526024016104bb565b805181602001fd5b6001600160e01b0319811663f23a6e6160e01b1461148257604051632bfa23e760e11b81526001600160a01b03861660048201526024016104bb565b6001600160a01b0384163b156107f05760405163bc197c8160e01b81526001600160a01b0385169063bc197c819061193b90899089908890889088906004016123c5565b6020604051808303816000875af1925050508015611976575060408051601f3d908101601f19168201909252611973918101906123a8565b60015b6119a4573d808015611880576040519150601f19603f3d011682016040523d82523d6000602084013e611885565b6001600160e01b0319811663bc197c8160e01b1461148257604051632bfa23e760e11b81526001600160a01b03861660048201526024016104bb565b80356001600160a01b03811681146119f757600080fd5b919050565b60008060408385031215611a0f57600080fd5b611a18836119e0565b946020939093013593505050565b6001600160e01b03198116811461105657600080fd5b600060208284031215611a4e57600080fd5b8135611a5981611a26565b9392505050565b600060208284031215611a7257600080fd5b5035919050565b60005b83811015611a94578181015183820152602001611a7c565b50506000910152565b60008151808452611ab5816020860160208601611a79565b601f01601f19169290920160200192915050565b602081526000611a596020830184611a9d565b60008060408385031215611aef57600080fd5b50508035926020909101359150565b602081526000825160c06020840152611b1a60e0840182611a9d565b90506020840151601f19848303016040850152611b378282611a9d565b9150506040840151606084015260608401516080840152608084015160a084015260a0840151151560c08401528091505092915050565b634e487b7160e01b600052604160045260246000fd5b604051601f8201601f1916810167ffffffffffffffff81118282101715611bad57611bad611b6e565b604052919050565b600067ffffffffffffffff821115611bcf57611bcf611b6e565b5060051b60200190565b600082601f830112611bea57600080fd5b81356020611bff611bfa83611bb5565b611b84565b82815260059290921b84018101918181019086841115611c1e57600080fd5b8286015b84811015611c395780358352918301918301611c22565b509695505050505050565b600067ffffffffffffffff831115611c5e57611c5e611b6e565b611c71601f8401601f1916602001611b84565b9050828152838383011115611c8557600080fd5b828260208301376000602084830101529392505050565b600082601f830112611cad57600080fd5b611a5983833560208501611c44565b600080600080600060a08688031215611cd457600080fd5b611cdd866119e0565b9450611ceb602087016119e0565b9350604086013567ffffffffffffffff80821115611d0857600080fd5b611d1489838a01611bd9565b94506060880135915080821115611d2a57600080fd5b611d3689838a01611bd9565b93506080880135915080821115611d4c57600080fd5b50611d5988828901611c9c565b9150509295509295909350565b60008060408385031215611d7957600080fd5b823567ffffffffffffffff80821115611d9157600080fd5b818501915085601f830112611da557600080fd5b81356020611db5611bfa83611bb5565b82815260059290921b84018101918181019089841115611dd457600080fd5b948201945b83861015611df957611dea866119e0565b82529482019490820190611dd9565b96505086013592505080821115611e0f57600080fd5b50611e1c85828601611bd9565b9150509250929050565b600081518084526020808501945080840160005b83811015611e5657815187529582019590820190600101611e3a565b509495945050505050565b602081526000611a596020830184611e26565b602081526000825160806020840152611e9060a0840182611a9d565b9050602084015160408401526040840151601f19848303016060850152611eb78282611a9d565b915050606084015160808401528091505092915050565b600060208284031215611ee057600080fd5b813567ffffffffffffffff811115611ef757600080fd5b8201601f81018413611f0857600080fd5b611f1784823560208401611c44565b949350505050565b60008060408385031215611f3257600080fd5b611f3b836119e0565b915060208301358015158114611f5057600080fd5b809150509250929050565b60c081526000611f6e60c0830189611a9d565b8281036020840152611f808189611a9d565b91505085604083015284606083015283608083015282151560a0830152979650505050505050565b600060208284031215611fba57600080fd5b611a59826119e0565b60008060408385031215611fd657600080fd5b611fdf836119e0565b9150611fed602084016119e0565b90509250929050565b600080600080600060a0868803121561200e57600080fd5b612017866119e0565b9450612025602087016119e0565b93506040860135925060608601359150608086013567ffffffffffffffff81111561204f57600080fd5b611d5988828901611c9c565b60808152600061206e6080830187611a9d565b85602084015282810360408401526120868186611a9d565b91505082606083015295945050505050565b600181811c908216806120ac57607f821691505b6020821081036120cc57634e487b7160e01b600052602260045260246000fd5b50919050565b600081546120df81612098565b600182811680156120f7576001811461210c5761213b565b60ff198416875282151583028701945061213b565b8560005260208060002060005b858110156121325781548a820152908401908201612119565b50505082870194505b5050505092915050565b600061215182856120d2565b8351612161818360208801611a79565b64173539b7b760d91b9101908152600501949350505050565b634e487b7160e01b600052603260045260246000fd5b634e487b7160e01b600052601160045260246000fd5b6000600182016121b8576121b8612190565b5060010190565b601f82111561220557600081815260208120601f850160051c810160208610156121e65750805b601f850160051c820191505b818110156107f0578281556001016121f2565b505050565b815167ffffffffffffffff81111561222457612224611b6e565b612238816122328454612098565b846121bf565b602080601f83116001811461226d57600084156122555750858301515b600019600386901b1c1916600185901b1785556107f0565b600085815260208120601f198616915b8281101561229c5788860151825594840194600190910190840161227d565b50858210156122ba5787850151600019600388901b60f8161c191681555b5050505050600190811b01905550565b808201808211156103e9576103e9612190565b818103818111156103e9576103e9612190565b60008261230d57634e487b7160e01b600052601260045260246000fd5b500490565b80820281158282048414176103e9576103e9612190565b6000611a5982846120d2565b6040815260006123486040830185611e26565b828103602084015261235a8185611e26565b95945050505050565b6001600160a01b03868116825285166020820152604081018490526060810183905260a06080820181905260009061239d90830184611a9d565b979650505050505050565b6000602082840312156123ba57600080fd5b8151611a5981611a26565b6001600160a01b0386811682528516602082015260a0604082018190526000906123f190830186611e26565b82810360608401526124038186611e26565b905082810360808401526124178185611a9d565b9897505050505050505056fea264697066735822122062ab0d0aec440e44003d2c4e467b07b051dd333c7709691cf31691854075124364736f6c63430008140033",
  "linkReferences": {},
  "deployedLinkReferences": {}
}