{
  "_format": "hh-sol-artifact-1",
  "contractName": "PokemonNFT",
  "sourceName": "contracts/PokeContract.sol",
  "abi": [
    {
      "inputs": [],
      "stateMutability": "nonpayable",
      "type": "constructor"
    },
    {
      "inputs": [
        {
          "internalType": "address",
          "name": "sender",
          "type": "address"
        },
        {
          "internalType": "uint256",
          "name": "balance",
          "type": "uint256"
        },
        {
          "internalType": "uint256",
          "name": "needed",
          "type": "uint256"
        },
        {
          "internalType": "uint256",
          "name": "tokenId",
          "type": "uint256"
        }
      ],
      "name": "ERC1155InsufficientBalance",
      "type": "error"
    },
    {
      "inputs": [
        {
          "internalType": "address",
          "name": "approver",
          "type": "address"
        }
      ],
      "name": "ERC1155InvalidApprover",
      "type": "error"
    },
    {
      "inputs": [
        {
          "internalType": "uint256",
          "name": "idsLength",
          "type": "uint256"
        },
        {
          "internalType": "uint256",
          "name": "valuesLength",
          "type": "uint256"
        }
      ],
      "name": "ERC1155InvalidArrayLength",
      "type": "error"
    },
    {
      "inputs": [
        {
          "internalType": "address",
          "name": "operator",
          "type": "address"
        }
      ],
      "name": "ERC1155InvalidOperator",
      "type": "error"
    },
    {
      "inputs": [
        {
          "internalType": "address",
          "name": "receiver",
          "type": "address"
        }
      ],
      "name": "ERC1155InvalidReceiver",
      "type": "error"
    },
    {
      "inputs": [
        {
          "internalType": "address",
          "name": "sender",
          "type": "address"
        }
      ],
      "name": "ERC1155InvalidSender",
      "type": "error"
    },
    {
      "inputs": [
        {
          "internalType": "address",
          "name": "operator",
          "type": "address"
        },
        {
          "internalType": "address",
          "name": "owner",
          "type": "address"
        }
      ],
      "name": "ERC1155MissingApprovalForAll",
      "type": "error"
    },
    {
      "inputs": [
        {
          "internalType": "address",
          "name": "owner",
          "type": "address"
        }
      ],
      "name": "OwnableInvalidOwner",
      "type": "error"
    },
    {
      "inputs": [
        {
          "internalType": "address",
          "name": "account",
          "type": "address"
        }
      ],
      "name": "OwnableUnauthorizedAccount",
      "type": "error"
    },
    {
      "anonymous": false,
      "inputs": [
        {
          "indexed": true,
          "internalType": "address",
          "name": "account",
          "type": "address"
        },
        {
          "indexed": true,
          "internalType": "address",
          "name": "operator",
          "type": "address"
        },
        {
          "indexed": false,
          "internalType": "bool",
          "name": "approved",
          "type": "bool"
        }
      ],
      "name": "ApprovalForAll",
      "type": "event"
    },
    {
      "anonymous": false,
      "inputs": [
        {
          "indexed": true,
          "internalType": "address",
          "name": "previousOwner",
          "type": "address"
        },
        {
          "indexed": true,
          "internalType": "address",
          "name": "newOwner",
          "type": "address"
        }
      ],
      "name": "OwnershipTransferred",
      "type": "event"
    },
    {
      "anonymous": false,
      "inputs": [
        {
          "indexed": true,
          "internalType": "uint256",
          "name": "pokemonId",
          "type": "uint256"
        },
        {
          "indexed": false,
          "internalType": "uint256",
          "name": "groundId",
          "type": "uint256"
        },
        {
          "indexed": false,
          "internalType": "uint256",
          "name": "xpGained",
          "type": "uint256"
        }
      ],
      "name": "TrainingCompleted",
      "type": "event"
    },
    {
      "anonymous": false,
      "inputs": [
        {
          "indexed": true,
          "internalType": "uint256",
          "name": "pokemonId",
          "type": "uint256"
        },
        {
          "indexed": false,
          "internalType": "uint256",
          "name": "groundId",
          "type": "uint256"
        },
        {
          "indexed": false,
          "internalType": "uint256",
          "name": "startTime",
          "type": "uint256"
        }
      ],
      "name": "TrainingStarted",
      "type": "event"
    },
    {
      "anonymous": false,
      "inputs": [
        {
          "indexed": true,
          "internalType": "address",
          "name": "operator",
          "type": "address"
        },
        {
          "indexed": true,
          "internalType": "address",
          "name": "from",
          "type": "address"
        },
        {
          "indexed": true,
          "internalType": "address",
          "name": "to",
          "type": "address"
        },
        {
          "indexed": false,
          "internalType": "uint256[]",
          "name": "ids",
          "type": "uint256[]"
        },
        {
          "indexed": false,
          "internalType": "uint256[]",
          "name": "values",
          "type": "uint256[]"
        }
      ],
      "name": "TransferBatch",
      "type": "event"
    },
    {
      "anonymous": false,
      "inputs": [
        {
          "indexed": true,
          "internalType": "address",
          "name": "operator",
          "type": "address"
        },
        {
          "indexed": true,
          "internalType": "address",
          "name": "from",
          "type": "address"
        },
        {
          "indexed": true,
          "internalType": "address",
          "name": "to",
          "type": "address"
        },
        {
          "indexed": false,
          "internalType": "uint256",
          "name": "id",
          "type": "uint256"
        },
        {
          "indexed": false,
          "internalType": "uint256",
          "name": "value",
          "type": "uint256"
        }
      ],
      "name": "TransferSingle",
      "type": "event"
    },
    {
      "anonymous": false,
      "inputs": [
        {
          "indexed": false,
          "internalType": "string",
          "name": "value",
          "type": "string"
        },
        {
          "indexed": true,
          "internalType": "uint256",
          "name": "id",
          "type": "uint256"
        }
      ],
      "name": "URI",
      "type": "event"
    },
    {
      "inputs": [],
      "name": "BASIC_TRAINING",
      "outputs": [
        {
          "internalType": "uint256",
          "name": "",
          "type": "uint256"
        }
      ],
      "stateMutability": "view",
      "type": "function"
    },
    {
      "inputs": [],
      "name": "FIRE_DOJO",
      "outputs": [
        {
          "internalType": "uint256",
          "name": "",
          "type": "uint256"
        }
      ],
      "stateMutability": "view",
      "type": "function"
    },
    {
      "inputs": [],
      "name": "GRASS_GARDEN",
      "outputs": [
        {
          "internalType": "uint256",
          "name": "",
          "type": "uint256"
        }
      ],
      "stateMutability": "view",
      "type": "function"
    },
    {
      "inputs": [],
      "name": "MIN_TRAINING_TIME",
      "outputs": [
        {
          "internalType": "uint256",
          "name": "",
          "type": "uint256"
        }
      ],
      "stateMutability": "view",
      "type": "function"
    },
    {
      "inputs": [],
      "name": "TYPE_BONUS_MULTIPLIER",
      "outputs": [
        {
          "internalType": "uint256",
          "name": "",
          "type": "uint256"
        }
      ],
      "stateMutability": "view",
      "type": "function"
    },
    {
      "inputs": [],
      "name": "WATER_TEMPLE",
      "outputs": [
        {
          "internalType": "uint256",
          "name": "",
          "type": "uint256"
        }
      ],
      "stateMutability": "view",
      "type": "function"
    },
    {
      "inputs": [],
      "name": "XP_PER_MINUTE",
      "outputs": [
        {
          "internalType": "uint256",
          "name": "",
          "type": "uint256"
        }
      ],
      "stateMutability": "view",
      "type": "function"
    },
    {
      "inputs": [
        {
          "internalType": "address",
          "name": "account",
          "type": "address"
        },
        {
          "internalType": "uint256",
          "name": "id",
          "type": "uint256"
        }
      ],
      "name": "balanceOf",
      "outputs": [
        {
          "internalType": "uint256",
          "name": "",
          "type": "uint256"
        }
      ],
      "stateMutability": "view",
      "type": "function"
    },
    {
      "inputs": [
        {
          "internalType": "address[]",
          "name": "accounts",
          "type": "address[]"
        },
        {
          "internalType": "uint256[]",
          "name": "ids",
          "type": "uint256[]"
        }
      ],
      "name": "balanceOfBatch",
      "outputs": [
        {
          "internalType": "uint256[]",
          "name": "",
          "type": "uint256[]"
        }
      ],
      "stateMutability": "view",
      "type": "function"
    },
    {
      "inputs": [
        {
          "internalType": "uint256",
          "name": "pokemonId",
          "type": "uint256"
        },
        {
          "internalType": "uint256",
          "name": "groundId",
          "type": "uint256"
        }
      ],
      "name": "calculateCurrentXP",
      "outputs": [
        {
          "internalType": "uint256",
          "name": "",
          "type": "uint256"
        }
      ],
      "stateMutability": "view",
      "type": "function"
    },
    {
      "inputs": [
        {
          "internalType": "uint256",
          "name": "pokemonId",
          "type": "uint256"
        },
        {
          "internalType": "uint256",
          "name": "groundId",
          "type": "uint256"
        }
      ],
      "name": "calculateCurrentXP",
      "outputs": [
        {
          "internalType": "uint256",
          "name": "",
          "type": "uint256"
        }
      ],
      "stateMutability": "view",
      "type": "function"
    },
    {
      "inputs": [
        {
          "internalType": "uint256",
          "name": "pokemonId",
          "type": "uint256"
        },
        {
          "internalType": "uint256",
          "name": "groundId",
          "type": "uint256"
        }
      ],
      "name": "endTraining",
      "outputs": [],
      "stateMutability": "nonpayable",
      "type": "function"
    },
    {
      "inputs": [
        {
          "internalType": "uint256",
          "name": "tokenId",
          "type": "uint256"
        }
      ],
      "name": "getPokemonData",
      "outputs": [
        {
          "components": [
            {
              "internalType": "string",
              "name": "name",
              "type": "string"
            },
            {
              "internalType": "string",
              "name": "pokemonType",
              "type": "string"
            },
            {
              "internalType": "uint256",
              "name": "level",
              "type": "uint256"
            },
            {
              "internalType": "uint256",
              "name": "xp",
              "type": "uint256"
            },
            {
              "internalType": "uint256",
              "name": "trainingStartTime",
              "type": "uint256"
            },
            {
              "internalType": "bool",
              "name": "isTraining",
              "type": "bool"
            }
          ],
          "internalType": "struct PokemonNFT.Pokemon",
          "name": "",
          "type": "tuple"
        }
      ],
      "stateMutability": "view",
      "type": "function"
    },
    {
      "inputs": [
        {
          "internalType": "uint256",
          "name": "groundId",
          "type": "uint256"
        }
      ],
      "name": "getTrainingGround",
      "outputs": [
        {
          "components": [
            {
              "internalType": "string",
              "name": "name",
              "type": "string"
            },
            {
              "internalType": "uint256",
              "name": "xpPerHour",
              "type": "uint256"
            },
            {
              "internalType": "string",
              "name": "requiredType",
              "type": "string"
            },
            {
              "internalType": "uint256",
              "name": "minLevel",
              "type": "uint256"
            }
          ],
          "internalType": "struct PokemonNFT.TrainingGround",
          "name": "",
          "type": "tuple"
        }
      ],
      "stateMutability": "view",
      "type": "function"
    },
    {
      "inputs": [
        {
          "internalType": "address",
          "name": "",
          "type": "address"
        }
      ],
      "name": "hasStarterPokemon",
      "outputs": [
        {
          "internalType": "bool",
          "name": "",
          "type": "bool"
        }
      ],
      "stateMutability": "view",
      "type": "function"
    },
    {
      "inputs": [
        {
          "internalType": "address",
          "name": "account",
          "type": "address"
        },
        {
          "internalType": "address",
          "name": "operator",
          "type": "address"
        }
      ],
      "name": "isApprovedForAll",
      "outputs": [
        {
          "internalType": "bool",
          "name": "",
          "type": "bool"
        }
      ],
      "stateMutability": "view",
      "type": "function"
    },
    {
      "inputs": [
        {
          "internalType": "uint256",
          "name": "pokemonId",
          "type": "uint256"
        }
      ],
      "name": "mintStarterPokemon",
      "outputs": [],
      "stateMutability": "nonpayable",
      "type": "function"
    },
    {
      "inputs": [],
      "name": "owner",
      "outputs": [
        {
          "internalType": "address",
          "name": "",
          "type": "address"
        }
      ],
      "stateMutability": "view",
      "type": "function"
    },
    {
      "inputs": [
        {
          "internalType": "uint256",
          "name": "",
          "type": "uint256"
        }
      ],
      "name": "pokemonData",
      "outputs": [
        {
          "internalType": "string",
          "name": "name",
          "type": "string"
        },
        {
          "internalType": "string",
          "name": "pokemonType",
          "type": "string"
        },
        {
          "internalType": "uint256",
          "name": "level",
          "type": "uint256"
        },
        {
          "internalType": "uint256",
          "name": "xp",
          "type": "uint256"
        },
        {
          "internalType": "uint256",
          "name": "trainingStartTime",
          "type": "uint256"
        },
        {
          "internalType": "bool",
          "name": "isTraining",
          "type": "bool"
        }
      ],
      "stateMutability": "view",
      "type": "function"
    },
    {
      "inputs": [],
      "name": "renounceOwnership",
      "outputs": [],
      "stateMutability": "nonpayable",
      "type": "function"
    },
    {
      "inputs": [
        {
          "internalType": "address",
          "name": "from",
          "type": "address"
        },
        {
          "internalType": "address",
          "name": "to",
          "type": "address"
        },
        {
          "internalType": "uint256[]",
          "name": "ids",
          "type": "uint256[]"
        },
        {
          "internalType": "uint256[]",
          "name": "values",
          "type": "uint256[]"
        },
        {
          "internalType": "bytes",
          "name": "data",
          "type": "bytes"
        }
      ],
      "name": "safeBatchTransferFrom",
      "outputs": [],
      "stateMutability": "nonpayable",
      "type": "function"
    },
    {
      "inputs": [
        {
          "internalType": "address",
          "name": "from",
          "type": "address"
        },
        {
          "internalType": "address",
          "name": "to",
          "type": "address"
        },
        {
          "internalType": "uint256",
          "name": "id",
          "type": "uint256"
        },
        {
          "internalType": "uint256",
          "name": "value",
          "type": "uint256"
        },
        {
          "internalType": "bytes",
          "name": "data",
          "type": "bytes"
        }
      ],
      "name": "safeTransferFrom",
      "outputs": [],
      "stateMutability": "nonpayable",
      "type": "function"
    },
    {
      "inputs": [
        {
          "internalType": "address",
          "name": "operator",
          "type": "address"
        },
        {
          "internalType": "bool",
          "name": "approved",
          "type": "bool"
        }
      ],
      "name": "setApprovalForAll",
      "outputs": [],
      "stateMutability": "nonpayable",
      "type": "function"
    },
    {
      "inputs": [
        {
          "internalType": "string",
          "name": "newBaseURI",
          "type": "string"
        }
      ],
      "name": "setBaseURI",
      "outputs": [],
      "stateMutability": "nonpayable",
      "type": "function"
    },
    {
      "inputs": [
        {
          "internalType": "uint256",
          "name": "pokemonId",
          "type": "uint256"
        },
        {
          "internalType": "uint256",
          "name": "groundId",
          "type": "uint256"
        }
      ],
      "name": "startTraining",
      "outputs": [],
      "stateMutability": "nonpayable",
      "type": "function"
    },
    {
      "inputs": [
        {
          "internalType": "bytes4",
          "name": "interfaceId",
          "type": "bytes4"
        }
      ],
      "name": "supportsInterface",
      "outputs": [
        {
          "internalType": "bool",
          "name": "",
          "type": "bool"
        }
      ],
      "stateMutability": "view",
      "type": "function"
    },
    {
      "inputs": [
        {
          "internalType": "uint256",
          "name": "",
          "type": "uint256"
        }
      ],
      "name": "trainingGrounds",
      "outputs": [
        {
          "internalType": "string",
          "name": "name",
          "type": "string"
        },
        {
          "internalType": "uint256",
          "name": "xpPerHour",
          "type": "uint256"
        },
        {
          "internalType": "string",
          "name": "requiredType",
          "type": "string"
        },
        {
          "internalType": "uint256",
          "name": "minLevel",
          "type": "uint256"
        }
      ],
      "stateMutability": "view",
      "type": "function"
    },
    {
      "inputs": [
        {
          "internalType": "address",
          "name": "newOwner",
          "type": "address"
        }
      ],
      "name": "transferOwnership",
      "outputs": [],
      "stateMutability": "nonpayable",
      "type": "function"
    },
    {
      "inputs": [
        {
          "internalType": "uint256",
          "name": "tokenId",
          "type": "uint256"
        }
      ],
      "name": "uri",
      "outputs": [
        {
          "internalType": "string",
          "name": "",
          "type": "string"
        }
      ],
      "stateMutability": "view",
      "type": "function"
    }
  ],
  "bytecode": "0x60806040523480156200001157600080fd5b5060408051602081019091526000815233906200002e8162000652565b506001600160a01b0381166200005e57604051631e4fbdf760e01b81526000600482015260240160405180910390fd5b620000698162000664565b506040805161010081018252600960c0820190815268213ab63130b9b0bab960b91b60e0830152815281518083018352600580825264477261737360d81b60208381019190915280840192909252928201929092526000606082018190526080820181905260a0820181905260019052600490915280517fabd6e7cb50984ff9c2f3e18a2660c3353dadf4e3291deeb275dae2cd1e44fe059081906200011090826200075b565b50602082015160018201906200012790826200075b565b506040828101516002830155606080840151600384015560808085015160048086019190915560a0958601516005958601805460ff1916911515919091179055835161010081018552600a60c082019081526921b430b936b0b73232b960b11b60e0830152815284518086018652828152634669726560e01b602082810191909152808301919091529481019590955260009285018390529084018290529383018190528390529190915280517f1a1e6821cde7d0159c0d293177871e09677b4e42307c7db3ba94f8648a5a050f9081906200020490826200075b565b50602082015160018201906200021b90826200075b565b506040828101516002830155606080840151600384015560808085015160048086019190915560a0958601516005958601805460ff1916911515919091179055835161010081018552600860c08201908152675371756972746c6560c01b60e0830152815284518086018652868152642bb0ba32b960d91b60208281019190915280830191909152948101959095526000928501839052908401829052938301819052600790529190915280517fbeb3bad75134cb432e5707980e3245c52c5998a1125ee30f2f0dbf3925b1e551908190620002f890826200075b565b50602082015160018201906200030f90826200075b565b5060408281015160028301556060808401516003840155608080850151600485015560a0948501516005909401805460ff191694151594909417909355815160c081018352600e9381019384526d426173696320547261696e696e6760901b94810194909452918352603c6020808501919091528151808201835260008082529285015260019284018390529190526006905280517f3e5fec24aa4dc4e5aee2e025e51e1392c72a2500577559fae9665c6d52bd6a31908190620003d490826200075b565b506020820151600182015560408201516002820190620003f590826200075b565b506060918201516003909101556040805160c081018252600960808201908152684669726520446f6a6f60b81b60a0830152815260786020808301919091528251808401845260048152634669726560e01b818301529282019290925260059281019290925260026000526006905280517f8819ef417987f8ae7a81f42cdfb18815282fe989326fbff903d13cf0e03ace299081906200049690826200075b565b506020820151600182015560408201516002820190620004b790826200075b565b506060918201516003918201556040805160c081018252600c608082019081526b57617465722054656d706c6560a01b60a083015281526078602080830191909152825180840184526005808252642bb0ba32b960d91b828401529383015293810191909152600091909152600690915280517f75f96ab15d697e93042dc45b5c896c4b27e89bb6eaf39475c5c371cb2513f7d29081906200055a90826200075b565b5060208201516001820155604082015160028201906200057b90826200075b565b506060918201516003909101556040805160c081018252600c608082019081526b23b930b9b99023b0b93232b760a11b60a08301528152607860208083019190915282518084018452600580825264477261737360d81b8284015293830152928101919091526004600052600690915280517fc5069e24aaadb2addc3e52e868fcf3f4f8acf5a87e24300992fd4540c2a87eed9081906200061d90826200075b565b5060208201516001820155604082015160028201906200063e90826200075b565b506060820151816003015590505062000827565b60026200066082826200075b565b5050565b600380546001600160a01b038381166001600160a01b0319831681179093556040519116919082907f8be0079c531659141344cd1fd0a4f28419497f9722a3daafe3b4186f6b6457e090600090a35050565b634e487b7160e01b600052604160045260246000fd5b600181811c90821680620006e157607f821691505b6020821081036200070257634e487b7160e01b600052602260045260246000fd5b50919050565b601f8211156200075657600081815260208120601f850160051c81016020861015620007315750805b601f850160051c820191505b8181101562000752578281556001016200073d565b5050505b505050565b81516001600160401b03811115620007775762000777620006b6565b6200078f81620007888454620006cc565b8462000708565b602080601f831160018114620007c75760008415620007ae5750858301515b600019600386901b1c1916600185901b17855562000752565b600085815260208120601f198616915b82811015620007f857888601518255948401946001909101908401620007d7565b5085821015620008175787850151600019600388901b60f8161c191681555b5050505050600190811b01905550565b6126aa80620008376000396000f3fe608060405234801561001057600080fd5b50600436106101c35760003560e01c8063715018a6116100f9578063de23cfca11610097578063f17f767a11610071578063f17f767a1461031a578063f242432a146103c6578063f2fde38b146103d9578063fb1224e5146103ec57600080fd5b8063de23cfca1461037d578063e47248dc146103a0578063e985e9c5146103b357600080fd5b80638da5cb5b116100d35780638da5cb5b14610322578063a22cb4651461033d578063b8708c4214610350578063c1b2c1ae1461035857600080fd5b8063715018a6146102ff5780637506bf691461030757806376a939e71461031a57600080fd5b80632c17a522116101665780634f13b164116101405780634f13b164146102b157806355f804b3146102d15780635eade546146102e45780636af783ea146102f757600080fd5b80632c17a522146102765780632eb2c2d61461027e5780634e1273f41461029157600080fd5b80630f8ea1c2116101a25780630f8ea1c2146102315780630fccc07214610239578063154aa2a8146102415780632273c74e1461025657600080fd5b8062fdd58e146101c857806301ffc9a7146101ee5780630e89341c14610211575b600080fd5b6101db6101d6366004611c58565b61040f565b6040519081526020015b60405180910390f35b6102016101fc366004611c98565b610437565b60405190151581526020016101e5565b61022461021f366004611cbc565b610487565b6040516101e59190611d25565b6101db609681565b6101db603c81565b61025461024f366004611d38565b6104bb565b005b610269610264366004611cbc565b61062e565b6040516101e59190611d5a565b6101db600481565b61025461028c366004611f18565b6107d9565b6102a461029f366004611fc2565b610840565b6040516101e591906120bd565b6102c46102bf366004611cbc565b610915565b6040516101e591906120d0565b6102546102df36600461212a565b610a97565b6101db6102f2366004611d38565b610aaf565b6101db600381565b610254610cd6565b610254610315366004611d38565b610cea565b6101db600181565b6003546040516001600160a01b0390911681526020016101e5565b61025461034b36600461217b565b610f98565b6101db600281565b61036b610366366004611cbc565b610fa3565b6040516101e5969594939291906121b7565b61020161038b366004612204565b60056020526000908152604090205460ff1681565b6102546103ae366004611cbc565b6110eb565b6102016103c136600461221f565b6111ea565b6102546103d4366004612252565b611218565b6102546103e7366004612204565b611277565b6103ff6103fa366004611cbc565b6112b5565b6040516101e594939291906122b7565b6000818152602081815260408083206001600160a01b03861684529091529020545b92915050565b60006001600160e01b03198216636cdb3d1360e11b148061046857506001600160e01b031982166303a24d0760e21b145b8061043157506301ffc9a760e01b6001600160e01b0319831614610431565b60606007610494836113ed565b6040516020016104a59291906123a1565b6040516020818303038152906040529050919050565b60006104c7338461040f565b1161050c5760405162461bcd60e51b815260206004820152601060248201526f2737ba103cb7bab9102837b5b2b6b7b760811b60448201526064015b60405180910390fd5b60008281526004602052604090206005015460ff16156105615760405162461bcd60e51b815260206004820152601060248201526f416c726561647920747261696e696e6760801b6044820152606401610503565b60008181526006602090815260408083206003015485845260049092529091206002015410156105c35760405162461bcd60e51b815260206004820152600d60248201526c4c6576656c20746f6f206c6f7760981b6044820152606401610503565b60008281526004602081905260409182902060058101805460ff19166001179055429101819055905183917f1ec33602afef38dd401d03630f0a99444fae8d2cca4f187b3368262dc152df809161062291858252602082015260400190565b60405180910390a25050565b6106696040518060c0016040528060608152602001606081526020016000815260200160008152602001600081526020016000151581525090565b60008281526004602052604090819020815160c08101909252805482908290610691906122f4565b80601f01602080910402602001604051908101604052809291908181526020018280546106bd906122f4565b801561070a5780601f106106df5761010080835404028352916020019161070a565b820191906000526020600020905b8154815290600101906020018083116106ed57829003601f168201915b50505050508152602001600182018054610723906122f4565b80601f016020809104026020016040519081016040528092919081815260200182805461074f906122f4565b801561079c5780601f106107715761010080835404028352916020019161079c565b820191906000526020600020905b81548152906001019060200180831161077f57829003601f168201915b505050918352505060028201546020820152600382015460408201526004820154606082015260059091015460ff16151560809091015292915050565b336001600160a01b03861681148015906107fa57506107f886826111ea565b155b1561082b5760405163711bec9160e11b81526001600160a01b03808316600483015287166024820152604401610503565b6108388686868686611480565b505050505050565b606081518351146108715781518351604051635b05999160e01b815260048101929092526024820152604401610503565b6000835167ffffffffffffffff81111561088d5761088d611dca565b6040519080825280602002602001820160405280156108b6578160200160208202803683370190505b50905060005b845181101561090d576020808202860101516108e09060208084028701015161040f565b8282815181106108f2576108f26123d6565b602090810291909101015261090681612402565b90506108bc565b509392505050565b6109406040518060800160405280606081526020016000815260200160608152602001600081525090565b60008281526006602052604090819020815160808101909252805482908290610968906122f4565b80601f0160208091040260200160405190810160405280929190818152602001828054610994906122f4565b80156109e15780601f106109b6576101008083540402835291602001916109e1565b820191906000526020600020905b8154815290600101906020018083116109c457829003601f168201915b5050505050815260200160018201548152602001600282018054610a04906122f4565b80601f0160208091040260200160405190810160405280929190818152602001828054610a30906122f4565b8015610a7d5780601f10610a5257610100808354040283529160200191610a7d565b820191906000526020600020905b815481529060010190602001808311610a6057829003601f168201915b505050505081526020016003820154815250509050919050565b610a9f6114e7565b6007610aab8282612466565b5050565b600082815260046020526040808220815160c0810190925280548392919082908290610ada906122f4565b80601f0160208091040260200160405190810160405280929190818152602001828054610b06906122f4565b8015610b535780601f10610b2857610100808354040283529160200191610b53565b820191906000526020600020905b815481529060010190602001808311610b3657829003601f168201915b50505050508152602001600182018054610b6c906122f4565b80601f0160208091040260200160405190810160405280929190818152602001828054610b98906122f4565b8015610be55780601f10610bba57610100808354040283529160200191610be5565b820191906000526020600020905b815481529060010190602001808311610bc857829003601f168201915b505050918352505060028201546020820152600382015460408201526004820154606082015260059091015460ff16151560809091015260a0810151909150610c3357606001519050610431565b6000816080015142610c459190612526565b90506000610c54603c83612539565b90506000610c6360018361255b565b905060066000878152602001908152602001600020600201604051610c889190612572565b604051809103902084602001518051906020012003610cbb576064610cae60968361255b565b610cb89190612539565b90505b808460600151610ccb919061257e565b979650505050505050565b610cde6114e7565b610ce86000611514565b565b6000610cf6338461040f565b11610d365760405162461bcd60e51b815260206004820152601060248201526f2737ba103cb7bab9102837b5b2b6b7b760811b6044820152606401610503565b60008281526004602052604090206005015460ff16610d865760405162461bcd60e51b815260206004820152600c60248201526b4e6f7420747261696e696e6760a01b6044820152606401610503565b60008281526004602081905260409091200154610da590603c9061257e565b421015610df45760405162461bcd60e51b815260206004820152601960248201527f4d696e20747261696e696e672074696d65206e6f74206d6574000000000000006044820152606401610503565b600082815260046020819052604082200154610e109042612526565b90506000610e1f603c83612539565b90506000610e2e60018361255b565b905060066000858152602001908152602001600020600201604051610e539190612572565b6040805191829003822060008881526004602052919091209091610e7a9160010190612572565b604051809103902003610ea1576064610e9460968361255b565b610e9e9190612539565b90505b60008581526004602052604081206003018054839290610ec290849061257e565b90915550505b600085815260046020526040902060030154606411610f35576000858152600460205260408120600201805460019290610f0390849061257e565b90915550506000858152600460205260408120600301805460649290610f2a908490612526565b90915550610ec89050565b600085815260046020818152604080842060058101805460ff1916905590920192909255805186815291820183905286917f0ccc42750d9dce02f33355c35d96f5b942523df7acac68e43b23572a50c9f25f910160405180910390a25050505050565b610aab338383611566565b600460205260009081526040902080548190610fbe906122f4565b80601f0160208091040260200160405190810160405280929190818152602001828054610fea906122f4565b80156110375780601f1061100c57610100808354040283529160200191611037565b820191906000526020600020905b81548152906001019060200180831161101a57829003601f168201915b50505050509080600101805461104c906122f4565b80601f0160208091040260200160405190810160405280929190818152602001828054611078906122f4565b80156110c55780601f1061109a576101008083540402835291602001916110c5565b820191906000526020600020905b8154815290600101906020018083116110a857829003601f168201915b505050506002830154600384015460048501546005909501549394919390925060ff1686565b80600114806110fa5750806004145b806111055750806007145b6111515760405162461bcd60e51b815260206004820152601760248201527f496e76616c6964207374617274657220506f6b656d6f6e0000000000000000006044820152606401610503565b3360009081526005602052604090205460ff16156111b15760405162461bcd60e51b815260206004820152601b60248201527f416c726561647920686173207374617274657220506f6b656d6f6e00000000006044820152606401610503565b6111cd33826001604051806020016040528060008152506115fc565b50336000908152600560205260409020805460ff19166001179055565b6001600160a01b03918216600090815260016020908152604080832093909416825291909152205460ff1690565b336001600160a01b0386168114801590611239575061123786826111ea565b155b1561126a5760405163711bec9160e11b81526001600160a01b03808316600483015287166024820152604401610503565b6108388686868686611659565b61127f6114e7565b6001600160a01b0381166112a957604051631e4fbdf760e01b815260006004820152602401610503565b6112b281611514565b50565b6006602052600090815260409020805481906112d0906122f4565b80601f01602080910402602001604051908101604052809291908181526020018280546112fc906122f4565b80156113495780601f1061131e57610100808354040283529160200191611349565b820191906000526020600020905b81548152906001019060200180831161132c57829003601f168201915b505050505090806001015490806002018054611364906122f4565b80601f0160208091040260200160405190810160405280929190818152602001828054611390906122f4565b80156113dd5780601f106113b2576101008083540402835291602001916113dd565b820191906000526020600020905b8154815290600101906020018083116113c057829003601f168201915b5050505050908060030154905084565b606060006113fa836116e7565b600101905060008167ffffffffffffffff81111561141a5761141a611dca565b6040519080825280601f01601f191660200182016040528015611444576020820181803683370190505b5090508181016020015b600019016f181899199a1a9b1b9c1cb0b131b232b360811b600a86061a8153600a850494508461144e57509392505050565b6001600160a01b0384166114aa57604051632bfa23e760e11b815260006004820152602401610503565b6001600160a01b0385166114d357604051626a0d4560e21b815260006004820152602401610503565b6114e085858585856117bf565b5050505050565b6003546001600160a01b03163314610ce85760405163118cdaa760e01b8152336004820152602401610503565b600380546001600160a01b038381166001600160a01b0319831681179093556040519116919082907f8be0079c531659141344cd1fd0a4f28419497f9722a3daafe3b4186f6b6457e090600090a35050565b6001600160a01b03821661158f5760405162ced3e160e81b815260006004820152602401610503565b6001600160a01b03838116600081815260016020908152604080832094871680845294825291829020805460ff191686151590811790915591519182527f17307eab39ab6107e8899845ad3d59bd9653f200f220920489ca2b5937696c31910160405180910390a3505050565b6001600160a01b03841661162657604051632bfa23e760e11b815260006004820152602401610503565b604080516001808252602082018690528183019081526060820185905260808201909252906108386000878484876117bf565b6001600160a01b03841661168357604051632bfa23e760e11b815260006004820152602401610503565b6001600160a01b0385166116ac57604051626a0d4560e21b815260006004820152602401610503565b604080516001808252602082018690528183019081526060820185905260808201909252906116de87878484876117bf565b50505050505050565b60008072184f03e93ff9f4daa797ed6e38ed64bf6a1f0160401b83106117265772184f03e93ff9f4daa797ed6e38ed64bf6a1f0160401b830492506040015b6d04ee2d6d415b85acef81000000008310611752576d04ee2d6d415b85acef8100000000830492506020015b662386f26fc10000831061177057662386f26fc10000830492506010015b6305f5e1008310611788576305f5e100830492506008015b612710831061179c57612710830492506004015b606483106117ae576064830492506002015b600a83106104315760010192915050565b6117cb85858585611812565b6001600160a01b038416156114e0578251339060010361180457602084810151908401516117fd838989858589611a2f565b5050610838565b610838818787878787611b53565b80518251146118415781518151604051635b05999160e01b815260048101929092526024820152604401610503565b3360005b8351811015611950576020818102858101820151908501909101516001600160a01b038816156118f8576000828152602081815260408083206001600160a01b038c168452909152902054818110156118d1576040516303dee4c560e01b81526001600160a01b038a166004820152602481018290526044810183905260648101849052608401610503565b6000838152602081815260408083206001600160a01b038d16845290915290209082900390555b6001600160a01b0387161561193d576000828152602081815260408083206001600160a01b038b1684529091528120805483929061193790849061257e565b90915550505b50508061194990612402565b9050611845565b5082516001036119d15760208301516000906020840151909150856001600160a01b0316876001600160a01b0316846001600160a01b03167fc3d58168c5ae7397731d063d5bbf3d657854427343f4c083240f7aacaa2d0f6285856040516119c2929190918252602082015260400190565b60405180910390a450506114e0565b836001600160a01b0316856001600160a01b0316826001600160a01b03167f4a39dc06d4c0dbc64b70af90fd698a233a518aa5d07e595d983b8c0526c8f7fb8686604051611a20929190612591565b60405180910390a45050505050565b6001600160a01b0384163b156108385760405163f23a6e6160e01b81526001600160a01b0385169063f23a6e6190611a7390899089908890889088906004016125bf565b6020604051808303816000875af1925050508015611aae575060408051601f3d908101601f19168201909252611aab918101906125f9565b60015b611b17573d808015611adc576040519150601f19603f3d011682016040523d82523d6000602084013e611ae1565b606091505b508051600003611b0f57604051632bfa23e760e11b81526001600160a01b0386166004820152602401610503565b805181602001fd5b6001600160e01b0319811663f23a6e6160e01b146116de57604051632bfa23e760e11b81526001600160a01b0386166004820152602401610503565b6001600160a01b0384163b156108385760405163bc197c8160e01b81526001600160a01b0385169063bc197c8190611b979089908990889088908890600401612616565b6020604051808303816000875af1925050508015611bd2575060408051601f3d908101601f19168201909252611bcf918101906125f9565b60015b611c00573d808015611adc576040519150601f19603f3d011682016040523d82523d6000602084013e611ae1565b6001600160e01b0319811663bc197c8160e01b146116de57604051632bfa23e760e11b81526001600160a01b0386166004820152602401610503565b80356001600160a01b0381168114611c5357600080fd5b919050565b60008060408385031215611c6b57600080fd5b611c7483611c3c565b946020939093013593505050565b6001600160e01b0319811681146112b257600080fd5b600060208284031215611caa57600080fd5b8135611cb581611c82565b9392505050565b600060208284031215611cce57600080fd5b5035919050565b60005b83811015611cf0578181015183820152602001611cd8565b50506000910152565b60008151808452611d11816020860160208601611cd5565b601f01601f19169290920160200192915050565b602081526000611cb56020830184611cf9565b60008060408385031215611d4b57600080fd5b50508035926020909101359150565b602081526000825160c06020840152611d7660e0840182611cf9565b90506020840151601f19848303016040850152611d938282611cf9565b9150506040840151606084015260608401516080840152608084015160a084015260a0840151151560c08401528091505092915050565b634e487b7160e01b600052604160045260246000fd5b604051601f8201601f1916810167ffffffffffffffff81118282101715611e0957611e09611dca565b604052919050565b600067ffffffffffffffff821115611e2b57611e2b611dca565b5060051b60200190565b600082601f830112611e4657600080fd5b81356020611e5b611e5683611e11565b611de0565b82815260059290921b84018101918181019086841115611e7a57600080fd5b8286015b84811015611e955780358352918301918301611e7e565b509695505050505050565b600067ffffffffffffffff831115611eba57611eba611dca565b611ecd601f8401601f1916602001611de0565b9050828152838383011115611ee157600080fd5b828260208301376000602084830101529392505050565b600082601f830112611f0957600080fd5b611cb583833560208501611ea0565b600080600080600060a08688031215611f3057600080fd5b611f3986611c3c565b9450611f4760208701611c3c565b9350604086013567ffffffffffffffff80821115611f6457600080fd5b611f7089838a01611e35565b94506060880135915080821115611f8657600080fd5b611f9289838a01611e35565b93506080880135915080821115611fa857600080fd5b50611fb588828901611ef8565b9150509295509295909350565b60008060408385031215611fd557600080fd5b823567ffffffffffffffff80821115611fed57600080fd5b818501915085601f83011261200157600080fd5b81356020612011611e5683611e11565b82815260059290921b8401810191818101908984111561203057600080fd5b948201945b838610156120555761204686611c3c565b82529482019490820190612035565b9650508601359250508082111561206b57600080fd5b5061207885828601611e35565b9150509250929050565b600081518084526020808501945080840160005b838110156120b257815187529582019590820190600101612096565b509495945050505050565b602081526000611cb56020830184612082565b6020815260008251608060208401526120ec60a0840182611cf9565b9050602084015160408401526040840151601f198483030160608501526121138282611cf9565b915050606084015160808401528091505092915050565b60006020828403121561213c57600080fd5b813567ffffffffffffffff81111561215357600080fd5b8201601f8101841361216457600080fd5b61217384823560208401611ea0565b949350505050565b6000806040838503121561218e57600080fd5b61219783611c3c565b9150602083013580151581146121ac57600080fd5b809150509250929050565b60c0815260006121ca60c0830189611cf9565b82810360208401526121dc8189611cf9565b91505085604083015284606083015283608083015282151560a0830152979650505050505050565b60006020828403121561221657600080fd5b611cb582611c3c565b6000806040838503121561223257600080fd5b61223b83611c3c565b915061224960208401611c3c565b90509250929050565b600080600080600060a0868803121561226a57600080fd5b61227386611c3c565b945061228160208701611c3c565b93506040860135925060608601359150608086013567ffffffffffffffff8111156122ab57600080fd5b611fb588828901611ef8565b6080815260006122ca6080830187611cf9565b85602084015282810360408401526122e28186611cf9565b91505082606083015295945050505050565b600181811c9082168061230857607f821691505b60208210810361232857634e487b7160e01b600052602260045260246000fd5b50919050565b6000815461233b816122f4565b60018281168015612353576001811461236857612397565b60ff1984168752821515830287019450612397565b8560005260208060002060005b8581101561238e5781548a820152908401908201612375565b50505082870194505b5050505092915050565b60006123ad828561232e565b83516123bd818360208801611cd5565b64173539b7b760d91b9101908152600501949350505050565b634e487b7160e01b600052603260045260246000fd5b634e487b7160e01b600052601160045260246000fd5b600060018201612414576124146123ec565b5060010190565b601f82111561246157600081815260208120601f850160051c810160208610156124425750805b601f850160051c820191505b818110156108385782815560010161244e565b505050565b815167ffffffffffffffff81111561248057612480611dca565b6124948161248e84546122f4565b8461241b565b602080601f8311600181146124c957600084156124b15750858301515b600019600386901b1c1916600185901b178555610838565b600085815260208120601f198616915b828110156124f8578886015182559484019460019091019084016124d9565b50858210156125165787850151600019600388901b60f8161c191681555b5050505050600190811b01905550565b81810381811115610431576104316123ec565b60008261255657634e487b7160e01b600052601260045260246000fd5b500490565b8082028115828204841417610431576104316123ec565b6000611cb5828461232e565b80820180821115610431576104316123ec565b6040815260006125a46040830185612082565b82810360208401526125b68185612082565b95945050505050565b6001600160a01b03868116825285166020820152604081018490526060810183905260a060808201819052600090610ccb90830184611cf9565b60006020828403121561260b57600080fd5b8151611cb581611c82565b6001600160a01b0386811682528516602082015260a06040820181905260009061264290830186612082565b82810360608401526126548186612082565b905082810360808401526126688185611cf9565b9897505050505050505056fea26469706673582212207699d7b7a35ed1ecaba0727a8522d999750a6a43ba58da96ab9976986d6ad6f564736f6c63430008140033",
  "linkReferences": {},
  "deployedLinkReferences": {}
}