{
  "_format": "hh-sol-artifact-1",
  "contractName": "PokemonNFT",
  "sourceName": "contracts/PokeContract.sol",
  "abi": [
    {
      "inputs": [],
      "stateMutability": "nonpayable",
      "type": "constructor"
    },
    {
      "inputs": [
        {
          "internalType": "address",
          "name": "sender",
          "type": "address"
        },
        {
          "internalType": "uint256",
          "name": "balance",
          "type": "uint256"
        },
        {
          "internalType": "uint256",
          "name": "needed",
          "type": "uint256"
        },
        {
          "internalType": "uint256",
          "name": "tokenId",
          "type": "uint256"
        }
      ],
      "name": "ERC1155InsufficientBalance",
      "type": "error"
    },
    {
      "inputs": [
        {
          "internalType": "address",
          "name": "approver",
          "type": "address"
        }
      ],
      "name": "ERC1155InvalidApprover",
      "type": "error"
    },
    {
      "inputs": [
        {
          "internalType": "uint256",
          "name": "idsLength",
          "type": "uint256"
        },
        {
          "internalType": "uint256",
          "name": "valuesLength",
          "type": "uint256"
        }
      ],
      "name": "ERC1155InvalidArrayLength",
      "type": "error"
    },
    {
      "inputs": [
        {
          "internalType": "address",
          "name": "operator",
          "type": "address"
        }
      ],
      "name": "ERC1155InvalidOperator",
      "type": "error"
    },
    {
      "inputs": [
        {
          "internalType": "address",
          "name": "receiver",
          "type": "address"
        }
      ],
      "name": "ERC1155InvalidReceiver",
      "type": "error"
    },
    {
      "inputs": [
        {
          "internalType": "address",
          "name": "sender",
          "type": "address"
        }
      ],
      "name": "ERC1155InvalidSender",
      "type": "error"
    },
    {
      "inputs": [
        {
          "internalType": "address",
          "name": "operator",
          "type": "address"
        },
        {
          "internalType": "address",
          "name": "owner",
          "type": "address"
        }
      ],
      "name": "ERC1155MissingApprovalForAll",
      "type": "error"
    },
    {
      "inputs": [
        {
          "internalType": "address",
          "name": "owner",
          "type": "address"
        }
      ],
      "name": "OwnableInvalidOwner",
      "type": "error"
    },
    {
      "inputs": [
        {
          "internalType": "address",
          "name": "account",
          "type": "address"
        }
      ],
      "name": "OwnableUnauthorizedAccount",
      "type": "error"
    },
    {
      "anonymous": false,
      "inputs": [
        {
          "indexed": true,
          "internalType": "address",
          "name": "account",
          "type": "address"
        },
        {
          "indexed": true,
          "internalType": "address",
          "name": "operator",
          "type": "address"
        },
        {
          "indexed": false,
          "internalType": "bool",
          "name": "approved",
          "type": "bool"
        }
      ],
      "name": "ApprovalForAll",
      "type": "event"
    },
    {
      "anonymous": false,
      "inputs": [
        {
          "indexed": true,
          "internalType": "address",
          "name": "previousOwner",
          "type": "address"
        },
        {
          "indexed": true,
          "internalType": "address",
          "name": "newOwner",
          "type": "address"
        }
      ],
      "name": "OwnershipTransferred",
      "type": "event"
    },
    {
      "anonymous": false,
      "inputs": [
        {
          "indexed": true,
          "internalType": "address",
          "name": "operator",
          "type": "address"
        },
        {
          "indexed": true,
          "internalType": "address",
          "name": "from",
          "type": "address"
        },
        {
          "indexed": true,
          "internalType": "address",
          "name": "to",
          "type": "address"
        },
        {
          "indexed": false,
          "internalType": "uint256[]",
          "name": "ids",
          "type": "uint256[]"
        },
        {
          "indexed": false,
          "internalType": "uint256[]",
          "name": "values",
          "type": "uint256[]"
        }
      ],
      "name": "TransferBatch",
      "type": "event"
    },
    {
      "anonymous": false,
      "inputs": [
        {
          "indexed": true,
          "internalType": "address",
          "name": "operator",
          "type": "address"
        },
        {
          "indexed": true,
          "internalType": "address",
          "name": "from",
          "type": "address"
        },
        {
          "indexed": true,
          "internalType": "address",
          "name": "to",
          "type": "address"
        },
        {
          "indexed": false,
          "internalType": "uint256",
          "name": "id",
          "type": "uint256"
        },
        {
          "indexed": false,
          "internalType": "uint256",
          "name": "value",
          "type": "uint256"
        }
      ],
      "name": "TransferSingle",
      "type": "event"
    },
    {
      "anonymous": false,
      "inputs": [
        {
          "indexed": false,
          "internalType": "string",
          "name": "value",
          "type": "string"
        },
        {
          "indexed": true,
          "internalType": "uint256",
          "name": "id",
          "type": "uint256"
        }
      ],
      "name": "URI",
      "type": "event"
    },
    {
      "inputs": [
        {
          "internalType": "address",
          "name": "account",
          "type": "address"
        },
        {
          "internalType": "uint256",
          "name": "id",
          "type": "uint256"
        }
      ],
      "name": "balanceOf",
      "outputs": [
        {
          "internalType": "uint256",
          "name": "",
          "type": "uint256"
        }
      ],
      "stateMutability": "view",
      "type": "function"
    },
    {
      "inputs": [
        {
          "internalType": "address[]",
          "name": "accounts",
          "type": "address[]"
        },
        {
          "internalType": "uint256[]",
          "name": "ids",
          "type": "uint256[]"
        }
      ],
      "name": "balanceOfBatch",
      "outputs": [
        {
          "internalType": "uint256[]",
          "name": "",
          "type": "uint256[]"
        }
      ],
      "stateMutability": "view",
      "type": "function"
    },
    {
      "inputs": [
        {
          "internalType": "uint256",
          "name": "tokenId",
          "type": "uint256"
        }
      ],
      "name": "getPokemonData",
      "outputs": [
        {
          "components": [
            {
              "internalType": "string",
              "name": "name",
              "type": "string"
            },
            {
              "internalType": "string",
              "name": "pokemonType",
              "type": "string"
            },
            {
              "internalType": "uint256",
              "name": "level",
              "type": "uint256"
            },
            {
              "internalType": "uint256",
              "name": "xp",
              "type": "uint256"
            }
          ],
          "internalType": "struct PokemonNFT.Pokemon",
          "name": "",
          "type": "tuple"
        }
      ],
      "stateMutability": "view",
      "type": "function"
    },
    {
      "inputs": [
        {
          "internalType": "address",
          "name": "",
          "type": "address"
        }
      ],
      "name": "hasStarterPokemon",
      "outputs": [
        {
          "internalType": "bool",
          "name": "",
          "type": "bool"
        }
      ],
      "stateMutability": "view",
      "type": "function"
    },
    {
      "inputs": [
        {
          "internalType": "address",
          "name": "account",
          "type": "address"
        },
        {
          "internalType": "address",
          "name": "operator",
          "type": "address"
        }
      ],
      "name": "isApprovedForAll",
      "outputs": [
        {
          "internalType": "bool",
          "name": "",
          "type": "bool"
        }
      ],
      "stateMutability": "view",
      "type": "function"
    },
    {
      "inputs": [
        {
          "internalType": "uint256",
          "name": "pokemonId",
          "type": "uint256"
        }
      ],
      "name": "mintStarterPokemon",
      "outputs": [],
      "stateMutability": "nonpayable",
      "type": "function"
    },
    {
      "inputs": [],
      "name": "owner",
      "outputs": [
        {
          "internalType": "address",
          "name": "",
          "type": "address"
        }
      ],
      "stateMutability": "view",
      "type": "function"
    },
    {
      "inputs": [
        {
          "internalType": "uint256",
          "name": "",
          "type": "uint256"
        }
      ],
      "name": "pokemonData",
      "outputs": [
        {
          "internalType": "string",
          "name": "name",
          "type": "string"
        },
        {
          "internalType": "string",
          "name": "pokemonType",
          "type": "string"
        },
        {
          "internalType": "uint256",
          "name": "level",
          "type": "uint256"
        },
        {
          "internalType": "uint256",
          "name": "xp",
          "type": "uint256"
        }
      ],
      "stateMutability": "view",
      "type": "function"
    },
    {
      "inputs": [],
      "name": "renounceOwnership",
      "outputs": [],
      "stateMutability": "nonpayable",
      "type": "function"
    },
    {
      "inputs": [
        {
          "internalType": "address",
          "name": "from",
          "type": "address"
        },
        {
          "internalType": "address",
          "name": "to",
          "type": "address"
        },
        {
          "internalType": "uint256[]",
          "name": "ids",
          "type": "uint256[]"
        },
        {
          "internalType": "uint256[]",
          "name": "values",
          "type": "uint256[]"
        },
        {
          "internalType": "bytes",
          "name": "data",
          "type": "bytes"
        }
      ],
      "name": "safeBatchTransferFrom",
      "outputs": [],
      "stateMutability": "nonpayable",
      "type": "function"
    },
    {
      "inputs": [
        {
          "internalType": "address",
          "name": "from",
          "type": "address"
        },
        {
          "internalType": "address",
          "name": "to",
          "type": "address"
        },
        {
          "internalType": "uint256",
          "name": "id",
          "type": "uint256"
        },
        {
          "internalType": "uint256",
          "name": "value",
          "type": "uint256"
        },
        {
          "internalType": "bytes",
          "name": "data",
          "type": "bytes"
        }
      ],
      "name": "safeTransferFrom",
      "outputs": [],
      "stateMutability": "nonpayable",
      "type": "function"
    },
    {
      "inputs": [
        {
          "internalType": "address",
          "name": "operator",
          "type": "address"
        },
        {
          "internalType": "bool",
          "name": "approved",
          "type": "bool"
        }
      ],
      "name": "setApprovalForAll",
      "outputs": [],
      "stateMutability": "nonpayable",
      "type": "function"
    },
    {
      "inputs": [
        {
          "internalType": "string",
          "name": "newBaseURI",
          "type": "string"
        }
      ],
      "name": "setBaseURI",
      "outputs": [],
      "stateMutability": "nonpayable",
      "type": "function"
    },
    {
      "inputs": [
        {
          "internalType": "bytes4",
          "name": "interfaceId",
          "type": "bytes4"
        }
      ],
      "name": "supportsInterface",
      "outputs": [
        {
          "internalType": "bool",
          "name": "",
          "type": "bool"
        }
      ],
      "stateMutability": "view",
      "type": "function"
    },
    {
      "inputs": [
        {
          "internalType": "address",
          "name": "newOwner",
          "type": "address"
        }
      ],
      "name": "transferOwnership",
      "outputs": [],
      "stateMutability": "nonpayable",
      "type": "function"
    },
    {
      "inputs": [
        {
          "internalType": "uint256",
          "name": "tokenId",
          "type": "uint256"
        }
      ],
      "name": "uri",
      "outputs": [
        {
          "internalType": "string",
          "name": "",
          "type": "string"
        }
      ],
      "stateMutability": "view",
      "type": "function"
    }
  ],
  "bytecode": "0x60806040523480156200001157600080fd5b5060408051602081019091526000815233906200002e81620002bf565b506001600160a01b0381166200005e57604051631e4fbdf760e01b81526000600482015260240160405180910390fd5b6200006981620002d1565b506040805160c08101825260096080820190815268213ab63130b9b0bab960b91b60a0830152815281518083018352600580825264477261737360d81b602083810191909152808401929092529282019290925260006060820181905260019052600490915280517fabd6e7cb50984ff9c2f3e18a2660c3353dadf4e3291deeb275dae2cd1e44fe05908190620001019082620003c8565b5060208201516001820190620001189082620003c8565b506040828101516002830155606092830151600390920191909155805160c081018252600a608082019081526921b430b936b0b73232b960b11b60a08301528152815180830183526004808252634669726560e01b60208381019190915280840192909252600593830193909352600093820184905292829052915280517f1a1e6821cde7d0159c0d293177871e09677b4e42307c7db3ba94f8648a5a050f908190620001c69082620003c8565b5060208201516001820190620001dd9082620003c8565b506040828101516002830155606092830151600390920191909155805160c081018252600860808201908152675371756972746c6560c01b60a08301528152815180830183526005808252642bb0ba32b960d91b6020838101919091528084019290925292820192909252600092810183905260079092526004905280517fbeb3bad75134cb432e5707980e3245c52c5998a1125ee30f2f0dbf3925b1e5519081906200028b9082620003c8565b5060208201516001820190620002a29082620003c8565b506040820151600282015560609091015160039091015562000494565b6002620002cd8282620003c8565b5050565b600380546001600160a01b038381166001600160a01b0319831681179093556040519116919082907f8be0079c531659141344cd1fd0a4f28419497f9722a3daafe3b4186f6b6457e090600090a35050565b634e487b7160e01b600052604160045260246000fd5b600181811c908216806200034e57607f821691505b6020821081036200036f57634e487b7160e01b600052602260045260246000fd5b50919050565b601f821115620003c357600081815260208120601f850160051c810160208610156200039e5750805b601f850160051c820191505b81811015620003bf57828155600101620003aa565b5050505b505050565b81516001600160401b03811115620003e457620003e462000323565b620003fc81620003f5845462000339565b8462000375565b602080601f8311600181146200043457600084156200041b5750858301515b600019600386901b1c1916600185901b178555620003bf565b600085815260208120601f198616915b82811015620004655788860151825594840194600190910190840162000444565b5085821015620004845787850151600019600388901b60f8161c191681555b5050505050600190811b01905550565b611ac180620004a46000396000f3fe608060405234801561001057600080fd5b50600436106100ff5760003560e01c80638da5cb5b11610097578063e47248dc11610066578063e47248dc14610251578063e985e9c514610264578063f242432a14610277578063f2fde38b1461028a57600080fd5b80638da5cb5b146101dd578063a22cb465146101f8578063c1b2c1ae1461020b578063de23cfca1461022e57600080fd5b80632eb2c2d6116100d35780632eb2c2d61461018d5780634e1273f4146101a257806355f804b3146101c2578063715018a6146101d557600080fd5b8062fdd58e1461010457806301ffc9a71461012a5780630e89341c1461014d5780632273c74e1461016d575b600080fd5b6101176101123660046111b0565b61029d565b6040519081526020015b60405180910390f35b61013d6101383660046111f0565b6102c5565b6040519015158152602001610121565b61016061015b366004611214565b610315565b604051610121919061127d565b61018061017b366004611214565b610349565b6040516101219190611290565b6101a061019b366004611438565b6104cb565b005b6101b56101b03660046114e2565b610537565b60405161012191906115dd565b6101a06101d03660046115f0565b61060c565b6101a0610624565b6003546040516001600160a01b039091168152602001610121565b6101a0610206366004611641565b610638565b61021e610219366004611214565b610643565b604051610121949392919061167d565b61013d61023c3660046116b6565b60056020526000908152604090205460ff1681565b6101a061025f366004611214565b61077b565b61013d6102723660046116d1565b61087a565b6101a0610285366004611704565b6108a8565b6101a06102983660046116b6565b610907565b6000818152602081815260408083206001600160a01b03861684529091529020545b92915050565b60006001600160e01b03198216636cdb3d1360e11b14806102f657506001600160e01b031982166303a24d0760e21b145b806102bf57506301ffc9a760e01b6001600160e01b03198316146102bf565b6060600661032283610945565b6040516020016103339291906117a3565b6040516020818303038152906040529050919050565b6103746040518060800160405280606081526020016060815260200160008152602001600081525090565b6000828152600460205260409081902081516080810190925280548290829061039c90611769565b80601f01602080910402602001604051908101604052809291908181526020018280546103c890611769565b80156104155780601f106103ea57610100808354040283529160200191610415565b820191906000526020600020905b8154815290600101906020018083116103f857829003601f168201915b5050505050815260200160018201805461042e90611769565b80601f016020809104026020016040519081016040528092919081815260200182805461045a90611769565b80156104a75780601f1061047c576101008083540402835291602001916104a7565b820191906000526020600020905b81548152906001019060200180831161048a57829003601f168201915b50505050508152602001600282015481526020016003820154815250509050919050565b336001600160a01b03861681148015906104ec57506104ea868261087a565b155b156105225760405163711bec9160e11b81526001600160a01b038083166004830152871660248201526044015b60405180910390fd5b61052f86868686866109d8565b505050505050565b606081518351146105685781518351604051635b05999160e01b815260048101929092526024820152604401610519565b6000835167ffffffffffffffff811115610584576105846112ea565b6040519080825280602002602001820160405280156105ad578160200160208202803683370190505b50905060005b8451811015610604576020808202860101516105d79060208084028701015161029d565b8282815181106105e9576105e961183a565b60209081029190910101526105fd81611866565b90506105b3565b509392505050565b610614610a3f565b600661062082826118ca565b5050565b61062c610a3f565b6106366000610a6c565b565b610620338383610abe565b60046020526000908152604090208054819061065e90611769565b80601f016020809104026020016040519081016040528092919081815260200182805461068a90611769565b80156106d75780601f106106ac576101008083540402835291602001916106d7565b820191906000526020600020905b8154815290600101906020018083116106ba57829003601f168201915b5050505050908060010180546106ec90611769565b80601f016020809104026020016040519081016040528092919081815260200182805461071890611769565b80156107655780601f1061073a57610100808354040283529160200191610765565b820191906000526020600020905b81548152906001019060200180831161074857829003601f168201915b5050505050908060020154908060030154905084565b806001148061078a5750806004145b806107955750806007145b6107e15760405162461bcd60e51b815260206004820152601760248201527f496e76616c6964207374617274657220506f6b656d6f6e0000000000000000006044820152606401610519565b3360009081526005602052604090205460ff16156108415760405162461bcd60e51b815260206004820152601b60248201527f416c726561647920686173207374617274657220506f6b656d6f6e00000000006044820152606401610519565b61085d3382600160405180602001604052806000815250610b54565b50336000908152600560205260409020805460ff19166001179055565b6001600160a01b03918216600090815260016020908152604080832093909416825291909152205460ff1690565b336001600160a01b03861681148015906108c957506108c7868261087a565b155b156108fa5760405163711bec9160e11b81526001600160a01b03808316600483015287166024820152604401610519565b61052f8686868686610bb1565b61090f610a3f565b6001600160a01b03811661093957604051631e4fbdf760e01b815260006004820152602401610519565b61094281610a6c565b50565b6060600061095283610c3f565b600101905060008167ffffffffffffffff811115610972576109726112ea565b6040519080825280601f01601f19166020018201604052801561099c576020820181803683370190505b5090508181016020015b600019016f181899199a1a9b1b9c1cb0b131b232b360811b600a86061a8153600a85049450846109a657509392505050565b6001600160a01b038416610a0257604051632bfa23e760e11b815260006004820152602401610519565b6001600160a01b038516610a2b57604051626a0d4560e21b815260006004820152602401610519565b610a388585858585610d17565b5050505050565b6003546001600160a01b031633146106365760405163118cdaa760e01b8152336004820152602401610519565b600380546001600160a01b038381166001600160a01b0319831681179093556040519116919082907f8be0079c531659141344cd1fd0a4f28419497f9722a3daafe3b4186f6b6457e090600090a35050565b6001600160a01b038216610ae75760405162ced3e160e81b815260006004820152602401610519565b6001600160a01b03838116600081815260016020908152604080832094871680845294825291829020805460ff191686151590811790915591519182527f17307eab39ab6107e8899845ad3d59bd9653f200f220920489ca2b5937696c31910160405180910390a3505050565b6001600160a01b038416610b7e57604051632bfa23e760e11b815260006004820152602401610519565b6040805160018082526020820186905281830190815260608201859052608082019092529061052f600087848487610d17565b6001600160a01b038416610bdb57604051632bfa23e760e11b815260006004820152602401610519565b6001600160a01b038516610c0457604051626a0d4560e21b815260006004820152602401610519565b60408051600180825260208201869052818301908152606082018590526080820190925290610c368787848487610d17565b50505050505050565b60008072184f03e93ff9f4daa797ed6e38ed64bf6a1f0160401b8310610c7e5772184f03e93ff9f4daa797ed6e38ed64bf6a1f0160401b830492506040015b6d04ee2d6d415b85acef81000000008310610caa576d04ee2d6d415b85acef8100000000830492506020015b662386f26fc100008310610cc857662386f26fc10000830492506010015b6305f5e1008310610ce0576305f5e100830492506008015b6127108310610cf457612710830492506004015b60648310610d06576064830492506002015b600a83106102bf5760010192915050565b610d2385858585610d6a565b6001600160a01b03841615610a385782513390600103610d5c5760208481015190840151610d55838989858589610f87565b505061052f565b61052f8187878787876110ab565b8051825114610d995781518151604051635b05999160e01b815260048101929092526024820152604401610519565b3360005b8351811015610ea8576020818102858101820151908501909101516001600160a01b03881615610e50576000828152602081815260408083206001600160a01b038c16845290915290205481811015610e29576040516303dee4c560e01b81526001600160a01b038a166004820152602481018290526044810183905260648101849052608401610519565b6000838152602081815260408083206001600160a01b038d16845290915290209082900390555b6001600160a01b03871615610e95576000828152602081815260408083206001600160a01b038b16845290915281208054839290610e8f90849061198a565b90915550505b505080610ea190611866565b9050610d9d565b508251600103610f295760208301516000906020840151909150856001600160a01b0316876001600160a01b0316846001600160a01b03167fc3d58168c5ae7397731d063d5bbf3d657854427343f4c083240f7aacaa2d0f628585604051610f1a929190918252602082015260400190565b60405180910390a45050610a38565b836001600160a01b0316856001600160a01b0316826001600160a01b03167f4a39dc06d4c0dbc64b70af90fd698a233a518aa5d07e595d983b8c0526c8f7fb8686604051610f7892919061199d565b60405180910390a45050505050565b6001600160a01b0384163b1561052f5760405163f23a6e6160e01b81526001600160a01b0385169063f23a6e6190610fcb90899089908890889088906004016119cb565b6020604051808303816000875af1925050508015611006575060408051601f3d908101601f1916820190925261100391810190611a10565b60015b61106f573d808015611034576040519150601f19603f3d011682016040523d82523d6000602084013e611039565b606091505b50805160000361106757604051632bfa23e760e11b81526001600160a01b0386166004820152602401610519565b805181602001fd5b6001600160e01b0319811663f23a6e6160e01b14610c3657604051632bfa23e760e11b81526001600160a01b0386166004820152602401610519565b6001600160a01b0384163b1561052f5760405163bc197c8160e01b81526001600160a01b0385169063bc197c81906110ef9089908990889088908890600401611a2d565b6020604051808303816000875af192505050801561112a575060408051601f3d908101601f1916820190925261112791810190611a10565b60015b611158573d808015611034576040519150601f19603f3d011682016040523d82523d6000602084013e611039565b6001600160e01b0319811663bc197c8160e01b14610c3657604051632bfa23e760e11b81526001600160a01b0386166004820152602401610519565b80356001600160a01b03811681146111ab57600080fd5b919050565b600080604083850312156111c357600080fd5b6111cc83611194565b946020939093013593505050565b6001600160e01b03198116811461094257600080fd5b60006020828403121561120257600080fd5b813561120d816111da565b9392505050565b60006020828403121561122657600080fd5b5035919050565b60005b83811015611248578181015183820152602001611230565b50506000910152565b6000815180845261126981602086016020860161122d565b601f01601f19169290920160200192915050565b60208152600061120d6020830184611251565b6020815260008251608060208401526112ac60a0840182611251565b90506020840151601f198483030160408501526112c98282611251565b91505060408401516060840152606084015160808401528091505092915050565b634e487b7160e01b600052604160045260246000fd5b604051601f8201601f1916810167ffffffffffffffff81118282101715611329576113296112ea565b604052919050565b600067ffffffffffffffff82111561134b5761134b6112ea565b5060051b60200190565b600082601f83011261136657600080fd5b8135602061137b61137683611331565b611300565b82815260059290921b8401810191818101908684111561139a57600080fd5b8286015b848110156113b5578035835291830191830161139e565b509695505050505050565b600067ffffffffffffffff8311156113da576113da6112ea565b6113ed601f8401601f1916602001611300565b905082815283838301111561140157600080fd5b828260208301376000602084830101529392505050565b600082601f83011261142957600080fd5b61120d838335602085016113c0565b600080600080600060a0868803121561145057600080fd5b61145986611194565b945061146760208701611194565b9350604086013567ffffffffffffffff8082111561148457600080fd5b61149089838a01611355565b945060608801359150808211156114a657600080fd5b6114b289838a01611355565b935060808801359150808211156114c857600080fd5b506114d588828901611418565b9150509295509295909350565b600080604083850312156114f557600080fd5b823567ffffffffffffffff8082111561150d57600080fd5b818501915085601f83011261152157600080fd5b8135602061153161137683611331565b82815260059290921b8401810191818101908984111561155057600080fd5b948201945b838610156115755761156686611194565b82529482019490820190611555565b9650508601359250508082111561158b57600080fd5b5061159885828601611355565b9150509250929050565b600081518084526020808501945080840160005b838110156115d2578151875295820195908201906001016115b6565b509495945050505050565b60208152600061120d60208301846115a2565b60006020828403121561160257600080fd5b813567ffffffffffffffff81111561161957600080fd5b8201601f8101841361162a57600080fd5b611639848235602084016113c0565b949350505050565b6000806040838503121561165457600080fd5b61165d83611194565b91506020830135801515811461167257600080fd5b809150509250929050565b6080815260006116906080830187611251565b82810360208401526116a28187611251565b604084019590955250506060015292915050565b6000602082840312156116c857600080fd5b61120d82611194565b600080604083850312156116e457600080fd5b6116ed83611194565b91506116fb60208401611194565b90509250929050565b600080600080600060a0868803121561171c57600080fd5b61172586611194565b945061173360208701611194565b93506040860135925060608601359150608086013567ffffffffffffffff81111561175d57600080fd5b6114d588828901611418565b600181811c9082168061177d57607f821691505b60208210810361179d57634e487b7160e01b600052602260045260246000fd5b50919050565b60008084546117b181611769565b600182811680156117c957600181146117de5761180d565b60ff198416875282151583028701945061180d565b8860005260208060002060005b858110156118045781548a8201529084019082016117eb565b50505082870194505b50505050835161182181836020880161122d565b64173539b7b760d91b9101908152600501949350505050565b634e487b7160e01b600052603260045260246000fd5b634e487b7160e01b600052601160045260246000fd5b60006001820161187857611878611850565b5060010190565b601f8211156118c557600081815260208120601f850160051c810160208610156118a65750805b601f850160051c820191505b8181101561052f578281556001016118b2565b505050565b815167ffffffffffffffff8111156118e4576118e46112ea565b6118f8816118f28454611769565b8461187f565b602080601f83116001811461192d57600084156119155750858301515b600019600386901b1c1916600185901b17855561052f565b600085815260208120601f198616915b8281101561195c5788860151825594840194600190910190840161193d565b508582101561197a5787850151600019600388901b60f8161c191681555b5050505050600190811b01905550565b808201808211156102bf576102bf611850565b6040815260006119b060408301856115a2565b82810360208401526119c281856115a2565b95945050505050565b6001600160a01b03868116825285166020820152604081018490526060810183905260a060808201819052600090611a0590830184611251565b979650505050505050565b600060208284031215611a2257600080fd5b815161120d816111da565b6001600160a01b0386811682528516602082015260a060408201819052600090611a59908301866115a2565b8281036060840152611a6b81866115a2565b90508281036080840152611a7f8185611251565b9897505050505050505056fea2646970667358221220839f3c5231bb87d7dfb12aea43bb786c34bfe8ff5c0e50b242d10ae37347c60764736f6c63430008140033",
  "linkReferences": {},
  "deployedLinkReferences": {}
}